:0300000002093DB5
:0C093D00787FE4F6D8FD75814002082D9B
:10073A00AD07AC06E41200A8E4FBFA79407841124E
:10074A0000061200E1D3EF9400EE9400400800EF97
:07075A001F70F21E80EF2268
:1007CE008E3D8F3ED3E53E9400E53D94004011E50D
:1007DE003E153E7002153D7FE87E0312073A80E417
:0107EE0022E8
:08096100AF8CEFFEAD8AEDFF43
:01096900226B
:08096A00AF8DEFFEAD8BEDFF38
:010972002262
:08097300AFD6EFFEADD7EDFF9A
:01097B002259
:08097C00AFD4EFFEADD5EDFF95
:010984002250
:08098500AFD2EFFEADD3EDFF90
:01098D002247
:10066300E4F53FF54053BCF0EF42BC7F017E00123E
:1006730007CE43BC40E5BC30E5FB53BCDFAFBDEF69
:0A068300ADBEF53FEDF540AE3FFFC0
:01068D00224A
:1007880075C78375C501EFF5C4EEF5C375C65A750F
:10079800C6A500ADC2E4F5C7F5C5F5C675C380F5B5
:0307A800C4AF05D6
:0107AB00222B
:1007AC0075C78375C502EFF5C4EEF5C38DC275C66A
:1007BC005A75C6A500E4F5C7F5C5F5C675C380F531
:0207CC00C42245
:1007EF0075C78375C503EFF5C4EEF5C375C65A75A6
:1007FF00C6A500E4F5C7F5C5F5C675C380F5C422D7
:08098E00AFF9EFFEADE9EDFF4A
:01099600223E
:08099700AFFAEFFEADEAEDFF3F
:01099F002235
:0809A000AFFBEFFEADEBEDFF34
:0109A800222C
:0809A900AFFCEFFEADECEDFF29
:0109B1002223
:0809B200AFFDEFFEADEDEDFF1E
:0109BA00221A
:10085C00AD0753F2FDE425E0FFEF42F2ED543FF516
:02086C00FA226E
:0909BB0053F2FEEF543FF5EA226D
:10086E00AD0753F2FDE425E0FFEF42F2ED547FF5C4
:02087E00FA225C
:0909C40053F2FEEF547FF5EA2224
:1008FD00AD0753F2FDE425E0FFEF42F2EDF5FA22EC
:070A030053F2FEEFF5EA22B9
:1005AF00AD07AC0653F2CDE425E0FFEF42F2EC5479
:1005BF0002FEE47805C333CE33CED8F942F2E4C459
:0D05CF00F8540FC868FFEF42F2EDF5FA2274
:10068E00AD07AC0653F2F2EC5402FEE47803C3332A
:10069E00CE33CED8F942F2EC5401FEE47802C333E5
:0B06AE00CE33CED8F942F2EDF5EA227F
:10088000AD0753F3FDE425E0FFEF42F3ED543FF5F0
:02089000FB2249
:0909CD0053F3FEEF543FF5EB2259
:10089200AD0753F3FDE425E0FFEF42F3ED547FF59E
:0208A200FB2237
:0909D60053F3FEEF547FF5EB2210
:10090D00AD0753F3FDE425E0FFEF42F3EDF5FB22D8
:070A0A0053F3FEEFF5EB22B0
:1005DC00AD07AC0653F3CDE425E0FFEF42F3EC544A
:1005EC0002FEE47805C333CE33CED8F942F3E4C42B
:0D05FC00F8540FC868FFEF42F3EDF5FB2245
:1006B900AD07AC0653F3F2EC5402FEE47803C333FE
:1006C900CE33CED8F942F3EC5401FEE47802C333B9
:0B06D900CE33CED8F942F3EDF5EB2252
:1008A400AD0753F4FDE425E0FFEF42F4ED543FF5CA
:0208B400FC2224
:0909DF0053F4FEEF543FF5EC2245
:1008B600AD0753F4FDE425E0FFEF42F4ED547FF578
:0208C600FC2212
:0909E80053F4FEEF547FF5EC22FC
:10091D00AD0753F4FDE425E0FFEF42F4EDF5FC22C5
:070A110053F4FEEFF5EC22A7
:10060900AD07AC0653F4CDE425E0FFEF42F4EC541A
:1006190002FEE47805C333CE33CED8F942F4E4C4FC
:0D062900F8540FC868FFEF42F4EDF5FC2215
:1006E400AD07AC0653F4F2EC5402FEE47803C333D2
:1006F400CE33CED8F942F4EC5401FEE47802C3338D
:0B070400CE33CED8F942F4EDF5EC2224
:1008C800AD0753F5FDE425E0FFEF42F5ED543FF5A4
:0208D800FD22FF
:0909F10053F5FEEF543FF5ED2231
:1008DA00AD0753F5FDE425E0FFEF42F5ED547FF552
:0208EA00FD22ED
:0909FA0053F5FEEF547FF5ED22E8
:10092D00AD0753F5FDE425E0FFEF42F5EDF5FD22B2
:070A180053F5FEEFF5ED229E
:10063600AD07AC0653F5CDE425E0FFEF42F5EC54EB
:1006460002FEE47805C333CE33CED8F942F5E4C4CE
:0D065600F8540FC868FFEF42F5EDF5FD22E6
:10070F00AD07AC0653F5F2EC5402FEE47803C333A5
:10071F00CE33CED8F942F5EC5401FEE47802C33360
:0B072F00CE33CED8F942F5EDF5ED22F7
:0408460090FE81F0AF
:10084A0075BA8090FE82E030E6F9E054BFF0E4F534
:02085A00BA22C0
:0C09490075BA807401120846E4F5BA2269
:0C09550075BA807406120846E4F5BA2258
:10080F0075BA8090FE86EFF090FE817402F01208A8
:0E081F004A90FE817403F012084AE4F5BA22F2
:10076100E4FE75BA8090FE817404F012084A90FE8E
:1007710087E0FE90FE82EFF090FE817405F0120892
:060781004AE4F5BAAF06E0
:01078700224F
:1008EC00E4FE8FCFE5CD30E7FBAECF75CD80AF0604
:0108FC0022D9
:080426008F0B8E0A8D098C0872
:10042E00E4F515F514F513F5127598507F04FEFDDD
:10043E00FCAB0BAA0AA909A808120162A804A90517
:10044E00AA06AB07AF11AE10AD0FAC0E1201ED8FB9
:10045E00158E148D138C12E50D640170107B0CFA41
:10046E00F9F81201ED8F158E148D138C12C3E495CD
:10047E0015F515E49514F51474019513F513E4951B
:10048E0012F512E50C7028E50D7008538EF3438EAD
:10049E00048003538EF3E515FFE48FD7AF15AE142A
:1004AE00AD13AC12780812028D8FD6438E1022E552
:1004BE000D538EBF438E40538FFD53890FE515FFAD
:1004CE00E48F8BAF15AE14AD13AC12780812028DFB
:0504DE008F8D438840F2
:0104E30022F6
:030A1F008F99228A
:030A2200AF992267
:0604E4008D34AB07AA06EF
:1004EA00E4F53CF53BF53AF539759A10AE02EB782E
:1004FA0002C333CE33CED8F9FBAA06E4F9F8AF38F3
:10050A00AE37AD36AC351201ED8F3C8E3B8D3A8C51
:10051A0039E534640170107B0CFAF9F81201ED8F99
:10052A003C8E3B8D3A8C39C3E4953CF53CE4953BD3
:10053A00F53B7401953AF53AE49539F539E53470A5
:10054A0008538EF3438E048003538EF3E53CFFE495
:10055A008FD7AF3CAE3BAD3AAC39780812028D8FDB
:04056A00D6438E10D6
:01056E00226A
:030A25008F9B2282
:030A2800AF9B225F
:0802A0008F198E188D178C16C2
:1002A800E4F523F522F521F520E51A4410F5ACE430
:1002B8007F04FEFDFCAB19AA18A917A81612016243
:1002C800A804A905AA06AB07AF1FAE1EAD1DAC1C3E
:1002D8001201ED8F238E228D218C20E51B64017085
:1002E800107B0CFAF9F81201ED8F238E228D218CE8
:1002F80020C3E49523F523E49522F5227401952182
:10030800F521E49520F520E51A7028E51B700853BF
:100318008EF3438E048003538EF3E523FFE48FD7D7
:10032800AF23AE22AD21AC20780812028D8FD643C0
:100338008E1022E51B700853D1F843D10280035375
:10034800D1F8E523FFE48FD5AF23AE22AD21AC2051
:0A035800780812028D8FD443D108FB
:010362002278
:030A2B008FAD226A
:030A2E00AFAD2247
:080363008F278E268D258C24C6
:10036B00E4F531F530F52FF52EE5284410F584E44E
:10037B007F04FEFDFCAB27AA26A925A82412016247
:10038B00A804A905AA06AB07AF2DAE2CAD2BAC2A42
:10039B001201ED8F318E308D2F8C2EE5296401707B
:1003AB00107B0CFAF9F81201ED8F318E308D2F8CFA
:1003BB002EC3E49531F531E49530F5307401952F6A
:1003CB00F52FE4952EF52EE5287028E529700853B6
:1003DB008EF3438E048003538EF3E531FFE48FD706
:1003EB00AF31AE30AD2FAC2E780812028D8FD643C5
:1003FB008E1022E529700853D18F43D120800353EF
:10040B00D18FE531FFE48FD3AF31AE30AD2FAC2EB2
:0A041B00780812028D8FD243D180C1
:0104250022B4
:030A31008F85228C
:030A3400AF852269
:10082D0012056F120985C3EF9458EE949E4005434F
:09083D00C82080EF53C8DF80EAF7
:10056F0075BA80800090FE027480F090FE02E05415
:10057F000160F890FE017418F090FE00E4F0E0F0D6
:10058F00E054F7F0E4F5BA53C9DF53CADF43C9208B
:10059F0043CA2053D18F75D3B075D23C43D180223B
:10000300020157EC5D046005E85904700302014DD9
:10001300120118580460F6EC4860F2EC7004FDFE1F
:10002300FF22C860DB2481C85009C39860025006D0
:100033000201549850CAF582E9294B4A7005AB82F4
:1000430002014375F0007C1A7880C3EF9BEE9AEDB2
:1000530099400DC3EF9BFFEE9AFEED99FDE842F048
:10006300DC23ACF0D0E0FFD0E0FED0E0FDAB82209B
:10007300E7101BEB60BAEC2CFCEF33FFEE33FEED25
:1000830033FD02012FE803F830E705C0F075F000F7
:10009300EF2FFFEE33FEED33FD40B830E7C280AA09
:1000A30075F020800E75F010800575F0087D007ED8
:1000B300007F003392D530D50312027FEC3340101A
:1000C300EF33FFEE33FEED33FDEC33FCD5F0ED22E1
:0E00D300E5F0247EA2D513CC92E7CDCEFF221D
:1000E100EDD2E7CD33EC3392D524814006E4FFFE17
:1000F100FDFC22FCE4CFCECDCC24E0501174FF8076
:10010100EDC3CC13CCCD13CDCE13CECF13CF047012
:07011100F030D5DE02027F91
:10011800E9D2E7C933E833F892D5EDD2E7CD33EC2D
:0701280033FC5002B2D522A6
:10012F00EC30E7100FBF000C0EBE00080DBD000431
:10013F000BEB6014A2D5EB13FCED92E7FD2274FFDD
:10014F00FCFDFEFF22E480F8A2D574FF13FC7D8036
:03015F00E480EF4A
:10016200E88FF0A4CC8BF0A42CFCE98EF0A42CFC3C
:100172008AF0EDA42CFCEA8EF0A4CDA8F08BF0A4BA
:100182002DCC3825F0FDE98FF0A42CCD35F0FCEB19
:100192008EF0A4FEA9F0EB8FF0A4CFC5F02ECD39DE
:0F01A200FEE43CFCEAA42DCE35F0FDE43CFC224B
:1001B10075F008758200EF2FFFEE33FECD33CDCC05
:1001C10033CCC58233C5829BED9AEC99E582984088
:1001D1000CF582EE9BFEED9AFDEC99FC0FD5F0D665
:1001E100E4CEFBE4CDFAE4CCF9A88222B800C1B98F
:1001F1000059BA002DEC8BF084CFCECDFCE5F0CBCD
:10020100F97818EF2FFFEE33FEED33FDEC33FCEB05
:1002110033FB10D703994004EB99FB0FD8E5E4F9C0
:10022100FA227818EF2FFFEE33FEED33FDEC33FCAD
:10023100C933C910D7059BE99A4007EC9BFCE99AA1
:10024100F90FD8E0E4C9FAE4CCFB2275F010EF2FE6
:10025100FFEE33FEED33FDCC33CCC833C810D707E6
:100261009BEC9AE899400AED9BFDEC9AFCE899F821
:0E0271000FD5F0DAE4CDFBE4CCFAE4C8F922B4
:0E027F00C3E49FFFE49EFEE49DFDE49CFC2290
:10028D00E8600FECC313FCED13FDEE13FEEF13FF4F
:03029D00D8F12273
:00000001FF
