:0300000002238157
:0C238100787FE4F6D8FD7581070223C8C0
:102B670054656D702F44656720430052656C2E488D
:0D2B7700756D202F2500202020002D2D0041
:1017BB004502280000000000622800000000000025
:1017CB0000000000002F00000000070007000014BD
:1017DB007F147F1400242A7F2A12006264081323CB
:1017EB0000364955225000000503000000001C2262
:1017FB004100000041221C000014083E08140008A0
:10180B00083E0808000000A060000008080808084F
:10181B00000060600000002010080402003E5149E7
:10182B00453E0000427F4000004261514946002185
:10183B0041454B31001814127F100027454545399F
:10184B00003C4A49493000017109050300364949FA
:10185B00493600064949291E0000363600000000B3
:10186B0056360000000814224100001414141414FE
:10187B0000004122140800020151090600324959A7
:10188B00513E007C1211127C007F49494936003EC3
:10189B0041414122007F4141221C007F494949417E
:1018AB00007F09090901003E4149497A007F080878
:1018BB00087F0000417F4100002040413F01007F35
:1018CB0008142241007F40404040007F020C027F01
:1018DB00007F0408107F003E4141413E007F090913
:1018EB000906003E4151215E007F09192946004639
:1018FB00494949310001017F0101003F4040403F10
:10190B00001F2040201F003F4038403F0063140859
:10191B001463000708700807006151494543000034
:10192B007F414100000204081020000041417F006C
:10193B00000402010204004040404040000001024C
:10194B000400002054545478007F48444438003835
:10195B004444442000384444487F003854545418BD
:10196B0000087E0901020018A4A4A47C007F0804CF
:10197B0004780000447D4000004080847D00007F9F
:10198B00102844000000417F4000007C04180478BC
:10199B00007C0804047800384444443800FC2424B8
:1019AB0024180018242418FC007C080404080048A0
:1019BB005454542000043F444020003C4040207CC1
:1019CB00001C2040201C003C4030403C00442810B0
:1019DB002844001CA0A0A07C004464544C44141464
:0419EB0014141414A8
:102AF300AD07AC06E412027F1202B8D3EF9400EEE6
:0D2B03009400400800EF1F70F21E80EF22CA
:0827A800E034FFF07F017E0028
:1027B0009006D8EEF0A3EFF0D39006D9E094009005
:1027C00006D8E094004015A3E024FFF09006D8E07E
:0D27D00034FFF07FE87E03122AF380DC2244
:082D0300AF8CEFFEAD8AEDFF7D
:012D0B0022A5
:082D0C00AF8DEFFEAD8BEDFF72
:012D1400229C
:082D1500AFD6EFFEADD7EDFFD4
:012D1D002293
:082D1E00AFD4EFFEADD5EDFFCF
:012D2600228A
:082D2700AFD2EFFEADD3EDFFCA
:012D2F002281
:1027DD00E49006F0F0A3F053BCF0EF42BC1227AC2E
:1027ED0043BC40E5BC30E5FB53BCDFAFBDEFFFADF7
:1027FD00BEED9006F0CFF0A3EFF09006F0E0FEA353
:02280D00E0FFEA
:01280F0022A6
:1028DB0075C78375C501EFF5C4EEF5C375C65A759B
:1028EB00C6A500ADC2E4F5C7F5C5F5C675C380F541
:0328FB00C4AF0562
:0128FE0022B7
:1028FF0075C78375C502EFF5C4EEF5C3AF058FC27B
:10290F0075C65A75C6A500E4F5C7F5C5F5C675C3F6
:04291F0080F5C42259
:102A370075C78375C503EFF5C4EEF5C375C65A753B
:102A4700C6A500E4F5C7F5C5F5C675C380F5C4226C
:082D3000AFF9EFFEADE9EDFF84
:012D38002278
:082D3900AFFAEFFEADEAEDFF79
:012D4100226F
:082D4200AFFBEFFEADEBEDFF6E
:012D4A002266
:082D4B00AFFCEFFEADECEDFF63
:012D5300225D
:082D5400AFFDEFFEADEDEDFF58
:012D5C002254
:102B9E00AD0753F2FDED548025E0FFEF42F2ED5408
:042BAE003FF5FA22D3
:0E2C760053F2FEEF548042F2EF543FF5EA2293
:102BEE00AD0753F2FDE425E0FFEF42F2ED547FF521
:022BFE00FA22B9
:092D5D0053F2FEEF547FF5EA2267
:102C3600AD0753F2FDE425E0FFEF42F2EDF5FA228F
:072D810053F2FEEFF5EA2218
:1029B300AD07AC0653F2CDEC5403C4F854F0C8E4AD
:1029C300C4540F48FBEC5404C3134B42F2EDF5FA25
:0129D30022E1
:10292300AD07AC0653F2F2EC5403FEE47806CEC3D3
:1029330013CE13D8F9FBEC54041313543F4B42F258
:04294300EDF5EA22A2
:102BB200AD0753F3FDED548025E0FFEF42F3ED54F2
:042BC2003FF5FB22BE
:0E2C840053F3FEEF548042F3EF543FF5EB2282
:102C0000AD0753F3FDE425E0FFEF42F3ED547FF50C
:022C1000FB22A5
:092D660053F3FEEF547FF5EB225C
:102C4600AD0753F3FDE425E0FFEF42F3EDF5FB227C
:072D880053F3FEEFF5EB220F
:1029D400AD07AC0653F3CDEC5403C4F854F0C8E48B
:1029E400C4540F48FBEC5404C3134B42F3EDF5FB02
:0129F40022C0
:10294700AD07AC0653F3F2EC5403FEE47806CEC3AE
:1029570013CE13D8F9FBEC54041313543F4B42F333
:04296700EDF5EB227D
:102BC600AD0753F4FDED548025E0FFEF42F4ED54DC
:042BD6003FF5FC22A9
:0E2C920053F4FEEF548042F4EF543FF5EC2271
:102C1200AD0753F4FDE425E0FFEF42F4ED547FF5F8
:022C2200FC2292
:092D6F0053F4FEEF547FF5EC2251
:102C5600AD0753F4FDE425E0FFEF42F4EDF5FC2269
:072D8F0053F4FEEFF5EC2206
:1029F500AD07AC0653F4CDEC5403C4F854F0C8E469
:102A0500C4540F48FBEC5404C3134B42F4EDF5FCDE
:012A1500229E
:10296B00AD07AC0653F4F2EC5403FEE47806CEC389
:10297B0013CE13D8F9FBEC54041313543F4B42F40E
:04298B00EDF5EC2258
:102BDA00AD0753F5FDED548025E0FFEF42F5ED54C6
:042BEA003FF5FD2294
:0E2CA00053F5FEEF548042F5EF543FF5ED2260
:102C2400AD0753F5FDE425E0FFEF42F5ED547FF5E4
:022C3400FD227F
:092D780053F5FEEF547FF5ED2246
:102C6600AD0753F5FDE425E0FFEF42F5EDF5FD2256
:072D960053F5FEEFF5ED22FD
:102A1600AD07AC0653F5CDEC5403C4F854F0C8E446
:102A2600C4540F48FBEC5404C3134B42F5EDF5FDBB
:012A3600227D
:10298F00AD07AC0653F5F2EC5403FEE47806CEC364
:10299F0013CE13D8F9FBEC54041313543F4B42F5E9
:0429AF00EDF5ED2233
:0426FE0090FE81F0D9
:102702009006F27403F0A374E8F090FE82E0544065
:10271200701CD39006F3E094009006F2E09400401F
:102722000DA3E024FFF09006F21227A880DC90FEB1
:0527320082E054BFF03D
:01273700227F
:0C2CBB0043BA8074011226FE53BA7F2237
:0C2CC70043BA8074061226FE53BA7F2226
:102AB70043BA8090FE86EFF090FE817402F01227F1
:0E2AC7000290FE817403F012270253BA7F22A0
:052771009006F4EFF0FA
:10277600E4A3F043BA8090FE817404F0122702901D
:10278600FE87E09006F5F09006F4E0F490FE82F005
:1027960090FE817405F012270253BA7F9006F5E089
:0127A600FF33
:0127A700220F
:10264800E49006EDF0A304F0A3742CF08FCFE5CD51
:1026580020E71CD39006EFE094009006EEE094008B
:10266800400DA3E024FFF09006EE1227A880DF4378
:0D267800CD8043CD409006EDE5CFF0E0FFB2
:012685002232
:061EFE0090068A12052780
:101F040090069412053300000000759850E47F0495
:101F1400FEFDFC90068AE0F8A3E0F9A3E0FAA3E052
:101F2400FB120366A804A905AA06AB07900690E075
:101F3400FCA3E0FDA3E0FEA3E0FF1203F1900694EE
:101F440012052790068FE06401701D900694E0FC52
:101F5400A3E0FDA3E0FEA3E0FFE47B0CFAF9F81292
:101F640003F1900694120527900694E0F8A3E0F993
:101F7400A3E0FAA3E0FBC3E49BFFE49AFE74019997
:101F8400FDE498FC90069412052790068EE07032CA
:101F9400A3E07008538EF3438E048003538EF390B2
:101FA4000694A3A3A3E0FF8FD7900694E0FCA3E0DC
:101FB400FDA3E0FEA3E0FF78081204B88FD6438E99
:101FC400102290068FE0538EBF438E40538FFD53F3
:101FD400890F900694A3A3A3E0FF8F8B900694E04F
:101FE400FCA3E0FDA3E0FEA3E0FF78081204B88F91
:041FF4008D43884051
:011FF80022C6
:0C2CD3008F99E598540260FA5398FD2296
:062D9D005398FEAF9922DD
:0920F2009006C3EDF0AB07AA064D
:1020FB009006C812053300000000759A10AE02EB73
:10210B007802C333CE33CED8F9FBAA06E4F9F890A4
:10211B0006C4E0FCA3E0FDA3E0FEA3E0FF1203F185
:10212B009006C81205279006C3E06401701D900647
:10213B00C8E0FCA3E0FDA3E0FEA3E0FFE47B0CFA08
:10214B00F9F81203F19006C81205279006C8E0F8BB
:10215B00A3E0F9A3E0FAA3E0FBC3E49BFFE49AFE40
:10216B00740199FDE498FC9006C81205279006C3EC
:10217B00E07008538EF3438E048003538EF3900666
:10218B00C8A3A3A3E0FF8FD79006C8E0FCA3E0FD94
:10219B00A3E0FEA3E0FF78081204B88FD6438E109D
:0121AB002211
:0C2CDF008F9BE59A540260FA539AFD2284
:062DA300539AFEAF9B22D3
:061CFC0090069812052776
:101D02009006A21205330000000090069CE04410E9
:101D1200F5ACE47F04FEFDFC900698E0F8A3E0F940
:101D2200A3E0FAA3E0FB120366A804A905AA06AB86
:101D32000790069EE0FCA3E0FDA3E0FEA3E0FF12F5
:101D420003F19006A212052790069DE06401701D22
:101D52009006A2E0FCA3E0FDA3E0FEA3E0FFE47B8B
:101D62000CFAF9F81203F19006A21205279006A2C6
:101D7200E0F8A3E0F9A3E0FAA3E0FBC3E49BFFE4ED
:101D82009AFE740199FDE498FC9006A21205279030
:101D9200069CE07032A3E07008538EF3438E0480F9
:101DA20003538EF39006A2A3A3A3E0FF8FD790065E
:101DB200A2E0FCA3E0FDA3E0FEA3E0FF780812048A
:101DC200B88FD6438E102290069DE0700853D1F84A
:101DD20043D102800353D1F89006A2A3A3A3E0FF4C
:101DE2008FD59006A2E0FCA3E0FDA3E0FEA3E0FFF6
:0A1DF20078081204B88FD443D1081A
:011DFC0022C4
:0C2CEB008FADE5AC540260FA53ACFD2242
:062DA90053ACFEAFAD22A9
:061DFD009006A612052766
:101E03009006B0120533000000009006AAE04410CB
:101E1300F584E47F04FEFDFC9006A6E0F8A3E0F958
:101E2300A3E0FAA3E0FB120366A804A905AA06AB84
:101E3300079006ACE0FCA3E0FDA3E0FEA3E0FF12E5
:101E430003F19006B01205279006ABE06401701D04
:101E53009006B0E0FCA3E0FDA3E0FEA3E0FFE47B7B
:101E63000CFAF9F81203F19006B01205279006B0A8
:101E7300E0F8A3E0F9A3E0FAA3E0FBC3E49BFFE4EB
:101E83009AFE740199FDE498FC9006B01205279020
:101E930006AAE07032A3E07008538EF3438E0480E9
:101EA30003538EF39006B0A3A3A3E0FF8FD790064E
:101EB300B0E0FCA3E0FDA3E0FEA3E0FF780812047A
:101EC300B88FD6438E10229006ABE0700853D18FA3
:101ED30043D120800353D18F9006B0A3A3A3E0FF87
:101EE3008FD39006B0E0FCA3E0FDA3E0FEA3E0FFE8
:0A1EF30078081204B88FD243D180A2
:011EFD0022C2
:0C2CF7008F85E584540260FA5384FD22AE
:062DAF005384FEAF8522F3
:10283D00AB07AA06538E7F438E80538FFE5389F0CC
:10284D00438901E4F58AF58C438810122D03C3EBFF
:09285D009FEA9E50F65388EF2219
:10288F00AB07AA06538E7F538FFE5389F0438901FE
:10289F00E4F58AF58C438810122D03C3EB9FEA9E53
:0628AF0050F65388EF22F1
:10286600AB07AA06538EBF438E40538FFD53890F85
:10287600438910E4F58BF58D438840122D0CC3EB8C
:092886009FEA9E50F65388BF2220
:1028B500AB07AA06538EBF538FFD53890F4389106B
:1028C500E4F58BF58D438840122D0CC3EB9FEA9EF2
:0628D50050F65388BF22FB
:102A5700AB07AA06538EF3438E04E4F5D7F5D643A6
:102A67008E10122D15C3EB9FEA9E50F6538EEF2260
:102B1000AB07AA06538EF3E4F5D7F5D6438E101211
:0D2B20002D15C3EB9FEA9E50F6538EEF2259
:102A7700AB07AA0653D1F843D102E4F5D5F5D44301
:102A8700D108122D1EC3EB9FEA9E50F653D1F722B1
:102B2D00AB07AA0653D1F8E4F5D5F5D443D1081275
:0D2B3D002D1EC3EB9FEA9E50F653D1F722E8
:102A9700AB07AA0653D18F43D120E4F5D3F5D24330
:102AA700D180122D27C3EB9FEA9E50F653D17F2288
:102B4A00AB07AA0653D18FE4F5D3F5D243D180124D
:0D2B5A002D27C3EB9FEA9E50F653D17F223A
:0D2CAE005391FE5392FE7FE87E030227B093
:102738007C08E4F9ECD39400748094804028E9255F
:10274800E0F9E590540160FA7F1E7E0012288FE5BB
:1027580090540164017004E94401F9E5905401645E
:082768000160F81C80CEAF01F6
:012770002246
:1021AC00E49006D8F0A3F04390015390FE7F507E4C
:1021BC004612288F4390017F1A7E0012288FE590DB
:1021CC005401640170037F01227F507E0012288F1E
:1021DC00E590540170037F02227F507E0012288FFD
:1021EC00E49006D8F09006D8E0D3940474809480E0
:1021FC005017122738E02428F582E43402F583EFD7
:10220C00F09006D8E004F080DC439001E49006D80E
:10221C00F09006D8E0FFC3940474809480501A7434
:10222C00282FF582E43402F583E0FF9006D9E02FE5
:10223C00F09006D8E004F080D890022CE0FF9006D5
:0A224C00D9E06F60037F03227F00DA
:012256002265
:101FF9005393F75394F75393F74394085393EF5339
:1020090094EF5393EF4394105393DF5394DF539317
:10201900DF4394205393BF5394BF5393BF439440DA
:1020290053937F53947F53937F43948012250612D1
:102039002B84E4FD7FAE122583E4FD7FD512258331
:10204900E4FD7F80122583E4FD7FA8122583E4FD4A
:102059007F3F122583E4FD7FD3122583E4FDFF1220
:102069002583E4FD7F40122583E4FD7F8D122583BE
:10207900E4FD7F14122583E4FD7F20122583E4FD0E
:102089007F02122583E4FD7FA1122583E4FD7FC829
:10209900122583E4FD7FDA122583E4FD7F121225E0
:1020A90083E4FD7F81122583E4FD7FCF122583E43C
:1020B900FD7FD9122583E4FD7FF1122583E4FD7F9D
:1020C900DB122583E4FD7F40122583E4FD7FA41202
:1020D9002583E4FD7FA6122583E4FD7FAF122583C6
:0920E900E4FDFF122AD5022DB519
:102B84004380805380DF7F3C7E001227B043802047
:0A2B940053807F7F3C7E000227B0D3
:10256A00A42400F582E5F03400F583E5822CF58297
:09257A00E43583F583E0FF7D01E7
:102583007E085380F7ED1470054380108003538059
:10259300EFEED3940074809480401AEF548060056A
:1025A30043804080035380BF43808053807FEF2567
:0825B300E0FF1E80DC438008FC
:0125BB0022FD
:102AD500AC07ED24B0FFE4FD122583EC540FFF1283
:0E2AE5002583EC54F0C4540F4410FF022583E7
:02268600AC079F
:10268800E4FBFAEAC3940874809480502CEA24B0DE
:10269800FFE4FD122583E4FF1225837F10122583B2
:1026A800E4FBEBC3948074809480500AAF047D01EE
:0926B8001225830B80EC0A80CA94
:0126C10022F6
:052DB500E4FF02268688
:102506009006D8120533000000009006D812053355
:1025160000000000E4FF7E04FDFC9006D8E0F8A36E
:10252600E0F9A3E0FAA3E0FBC31204A75035900636
:10253600D8A3A3E0FEA3E0242DF58274023EF58322
:10254600E4F09006D8E0FCA3E0FDA3E0FEA3E024BF
:1025560001FFE43EFEE43DFDE43CFC9006D8120596
:032566002780B11A
:01256900224F
:0426C200AE05A907B1
:1026C600E4FBEE6032E964017008EE2402FDE4FFEB
:1026D600800CE975F006A42444FFEE2402FD122ABC
:1026E600D5E4FBEBC3940674809480500A7D017F89
:0726F600FF1225830B80ECAD
:0126FD0022BA
:0C2490009006B4EFF09006B6EBF0AA0541
:10249C009006BB12053300000000E49006BFF0A3C9
:1024AC00F0EAF09006B7E0FF9006C0E0FDD39F5035
:1024BC00489006B4E0FF122AD5E09006BFF09006D3
:1024CC00B6E0FF9006BFE0C39F50269006BB1204F7
:1024DC00F29006B8E0FBA3E0FAA3E0F98F828E83BA
:1024EC00120339FF7D011225839006BFE004F080B2
:0924FC00CD9006C0E004F080AAB6
:0125050022B3
:1025BC00E4FAF9F81226049006E5EFF09006DFFE37
:0B25CC00E02406FFA3E0FDEE2430FB3E
:1025D700E4FCEB24E0FAEFD3947A74809480400310
:1025E700E4FF0D122AD5E4FCECC3940674809480B2
:0C25F700500A75F006EA12256A0C80EC10
:0126030022B4
:06240D007BFF7D027F3819
:102413009006D8EFF0A3EDF0A3EBF0A3EAF0A3E965
:01242300F0C8
:10242400E4A3F0FCA3F09006DAE0FBA3E0FAA3E057
:10243400F99006DEE0F582758300120339604C24BE
:10244400E09006DDF09006D8E0D3947A748094800E
:102454004006E4F0A3E004F09006D8E0FFA3E0FD1A
:10246400122AD5E4FCECC3940674809480500D9039
:1024740006DDE075F00612256A0C80E99006DEE0C0
:0B24840004F09006D8E02406F0809BD6
:01248F00222A
:0819F0009006D8EFF0A3EDF022
:1019F800E49006DEF09006DAE0FCA3A3E0FEEC3308
:101A08009006D8E0FFA3E0FD501E7B2D1225D7904D
:101A180006DAE0FCA3E0FDA3E0FEA3E0FF120483E6
:101A28009006DA12052780057B201225D7E47F630C
:101A3800FEFDFC9006DAE0F8A3E0F9A3E0FAA3E0E3
:101A4800FBD31204915003021AF4E47FE77E03FDEE
:101A5800FC9006DAE0F8A3A3A3E0D31204914003B4
:101A6800021AF4E47B64FAF9F89006DAE0FCA3E0E1
:101A7800FDA3E0FEA3E0FF1226049006DEEFF0903F
:101A880006D81225CBE47B64FAF9F89006DAE0FC74
:101A9800A3E0FDA3E0FEA3E0FF122604AC00AD0125
:101AA800AE02AF03E47B0AFAF9F81226049006DEC8
:101AB800EFF0FE9006D8E0240C1225CFE47B0AFA5A
:101AC800F9F89006DAE0FCA3E0FDA3E0FEA3E0FF4E
:101AD800122604AF039006DEEFF0FE9006D8E0244D
:101AE80012FFA3E0FDEE2430FB021BF1E47F09FEA8
:101AF800FDFC9006DAE0F8A3E0F9A3E0FAA3E0FB26
:101B0800D31204915003021B90E47F63FEFDFC9006
:101B180006DAE0F8A3A3A3E0D3120491506AE47BA9
:101B280064FAF9F89006DAE0FCA3E0FDA3E0FEA36E
:101B3800E0FF122604AC00AD01AE02AF03E47B0A5D
:101B4800FAF9F81226049006DEEFF0FE9006D81295
:101B580025CCE47B0AFAF9F89006DAE0FCA3E0FD6C
:101B6800A3E0FEA3E0FF122604AF039006DEEFF029
:101B7800FE9006D8E0240C1225CF9006D8E0241257
:101B8800FFA3E0FD7B2080619006DAE0FCEC3340A7
:101B98005BE47F09FEFDFC9006DAE0F8A3E0F9A318
:101BA800E0FAA3E0FBD31204915041E47B0AFAF96E
:101BB800F89006DAE0FCA3E0FDA3E0FEA3E0FF1244
:101BC8002604AF039006DEEFF0FE9006D81225CC6F
:101BD8009006D8E0240CFFA3E0FD7B201225D790C7
:0C1BE80006D8E02412FFA3E0FD1225D770
:011BF40022CE
:080F00009006DFEFF0A3EDF015
:100F0800E49006E5F09006E1E0FCA3A3E0FEEC33F4
:100F18009006DFE0FFA3E0FD501E7B2D1225D79041
:100F280006E1E0FCA3E0FDA3E0FEA3E0FF120483DA
:100F38009006E112052780057B201225D7E47F0F54
:100F48007E27FDFC9006E1E0F8A3E0F9A3E0FAA310
:100F5800E0FBD31204915003021053E47B107A276C
:100F6800F9F89006E1E0FCA3E0FDA3E0FEA3E0FFB2
:100F78001225C0E47B107A27F9F89006E1E0FCA37B
:100F8800E0FDA3E0FEA3E0FF122604AC00AD01AE35
:100F980002AF03E47BE87A03F9F81226049006E529
:100FA800EFF0FE9006DFE0240C1225CFE47BE87A10
:100FB80003F9F89006E1E0FCA3E0FDA3E0FEA3E05E
:100FC800FF122604AC00AD01AE02AF03E47B64FA65
:100FD800F9F81226049006E5EFF0FE9006DFE0240B
:100FE800121225CFE47B64FAF9F89006E1E0FCA33D
:100FF800E0FDA3E0FEA3E0FF122604AC00AD01AEC5
:1010080002AF03E47B0AFAF9F81226049006E5EF2A
:10101800F0FE9006DFE024181225CFE47B0AFAF9E7
:10102800F89006E1E0FCA3E0FDA3E0FEA3E0FF12D8
:101038002604AF039006E5EFF0FE9006DFE0241EDD
:10104800FFA3E0FDEE2430FB021323E47FE77E03D9
:10105800FDFC9006E1E0F8A3E0F9A3E0FAA3E0FBC9
:10106800D31204915003021158E47F0F7E27FDFC30
:101078009006E1E0F8A3A3A3E0D312049140030291
:101088001158E47B107A27F9F89006E1E0FCA3E018
:10109800FDA3E0FEA3E0FF122604AC00AD01AE0202
:1010A800AF03E47BE87A031225BEE47BE87A03F910
:1010B800F89006E1E0FCA3E0FDA3E0FEA3E0FF1248
:1010C8002604AC00AD01AE02AF03E47B64FAF9F884
:1010D8001226049006E5EFF0FE9006DFE0240C12DD
:1010E80025CFE47B64FAF9F89006E1E0FCA3E0FD83
:1010F800A3E0FEA3E0FF122604AC00AD01AE02AFF0
:1011080003E47B0AFAF9F81226049006E5EFF0FEEC
:101118009006DFE024121225CFE47B0AFAF9F89052
:1011280006E1E0FCA3E0FDA3E0FEA3E0FF12260435
:10113800AF039006E5EFF0FE9006DFE024181225D5
:10114800CF9006DFE0241EFFA3E0FD7B20021323DF
:10115800E47F63FEFDFC9006E1E0F8A3E0F9A3E07C
:10116800FAA3E0FBD3120491500302122EE47FE7A6
:101178007E03FDFC9006E1E0F8A3A3A3E0D31204EC
:1011880091400302122EE47BE87A03F9F89006E115
:10119800E0FCA3E0FDA3E0FEA3E0FF122604AC0000
:1011A800AD01AE02AF037B641225BCE47B64FAF99F
:1011B800F89006E1E0FCA3E0FDA3E0FEA3E0FF1247
:1011C8002604AC00AD01AE02AF03E47B0AFAF9F8DD
:1011D8001226049006E5EFF0FE9006DFE0240C12DC
:1011E80025CFE47B0AFAF9F89006E1E0FCA3E0FDDC
:1011F800A3E0FEA3E0FF122604AF039006E5EFF09C
:10120800FE9006DFE024121225CF9006DFE02418B6
:10121800FFA3E0FD7B201225D79006DFE0241EFF08
:10122800A3E0FD021323E47F09FEFDFC9006E1E044
:10123800F8A3E0F9A3E0FAA3E0FBD312049150036A
:101248000212D4E47F63FEFDFC9006E1E0F8A3A35C
:10125800A3E0D31204915074E47B64FAF9F8900681
:10126800E1E0FCA3E0FDA3E0FEA3E0FF122604AC4E
:1012780000AD01AE02AF037B0A1225BCE47B0AFA7B
:10128800F9F89006E1E0FCA3E0FDA3E0FEA3E0FF8F
:10129800122604AF039006E5EFF0FE9006DFE02487
:1012A8000C1225CF9006DFE02412FFA3E0FD7B207F
:1012B8001225D79006DFE02418FFA3E0FD1225D7FA
:1012C8009006DFE0241EFFA3E0FD804FE47B0AFACE
:1012D800F9F89006E1E0FCA3E0FDA3E0FEA3E0FF3F
:1012E800122604AF031225C39006DFE0240CFFA3E7
:1012F800E0FD7B201225D79006DFE02412FFA3E053
:10130800FD1225D79006DFE02418FFA3E0FD122583
:0E131800D79006DFE0241EFFA3E0FD1225D7CC
:0113260022A4
:081BF5009006E6EFF0A3EDF00D
:101BFD00E4F97B2E1225D7E47BE87A03F89006E80A
:101C0D00E0FCA3E0FDA3E0FEA3E0FF1203F1A907B2
:101C1D009006E6E02406FFA3E0FDE92430FB122543
:101C2D00D79006ECE0D39401748094805003021C8D
:101C3D00FBE47BE87A03F9F89006E8E0FCA3E0FD0D
:101C4D00A3E0FEA3E0FF1203F1AC00AD01AE02AFC5
:101C5D0003E47B64FAF9F81203F1A9079006E6E0B4
:101C6D00240CFFA3E0FDE92430FB1225D79006ECF0
:101C7D00E0D39402748094804074E47B64FAF9F8A4
:101C8D009006E8E0FCA3E0FDA3E0FEA3E0FF120355
:101C9D00F1AC00AD01AE02AF03E47B0AFAF9F81224
:101CAD0003F1A9079006E6E02412FFA3E0FDE92465
:101CBD0030FB1225D79006ECE0D39403748094800A
:101CCD00402CE47B0AFAF9F89006E8E0FCA3E0FD6D
:101CDD00A3E0FEA3E0FF1203F1AF03A9079006E610
:0E1CED00E02418FFA3E0FDE92430FB1225D708
:011CFB0022C6
:081580009006CCEFF0A3EDF0A2
:101588009006D3120533000000009006CEE0FCA3BD
:10159800E0FDA3E0FEA3E0FF1202B89006D3120517
:1015A800279006D3E0FCA3E0FDA3E0FEA3E0FF90B4
:1015B80006E11205279006CDE0FD9006CCE0FF126B
:1015C8000F009006D3E0FCA3E0FDA3E0FEA3E0FF3C
:1015D800EC12027AA804A905AA06AB079006CEE089
:1015E800FCA3E0FDA3E0FEA3E0FF1200067B007A67
:1015F80040791C78461200FB1202B89006D31205F7
:10160800279006D3E0FCA3E0FDA3E0FEA3E0FFECF7
:101618003350109006D3A3A3A3E01204839006D3FB
:101628001205277F007E3C7D1C7C469006CEE0F8A4
:10163800A3E0F9A3E0FAA3E0FB12020140247F80B3
:101648007E4F7DC37C479006CEE0F8A3E0F9A3E087
:10165800FAA3E0FB12020150099006CCE024240210
:10166800171F7F007EC07D797C449006CEE0F8A3EA
:10167800E0F9A3E0FAA3E0FB12020140237F007E19
:101688003C7D1C7C469006CEE0F8A3E0F9A3E0FA86
:10169800A3E0FB12020150089006CCE0241E8077DC
:1016A800E4FFFE7DC67C429006CEE0F8A3E0F9A3F5
:1016B800E0FAA3E0FB12020140237F007EC07D799F
:1016C8007C449006CEE0F8A3E0F9A3E0FAA3E0FB9F
:1016D80012020150089006CCE02418803AE4FFFE7C
:1016E8007D107C419006CEE0F8A3E0F9A3E0FAA3D0
:1016F800E0FB1202014049E4FFFE7DC67C429006F1
:10170800CEE0F8A3E0F9A3E0FAA3E0FB120201504F
:101718002F9006CCE02412FFC0079006D3E0FCA36C
:10172800E0FDA3E0FEA3E0FF9006E812052790067F
:10173800D2E09006ECF09006CDE0FDD007021BF554
:10174800E4FFFE7D107C419006CEE0F8A3E0F9A30B
:10175800E0FAA3E0FB12020150589006CCE0240CFA
:10176800FFC0079006D3E0FCA3E0FDA3E0FEA3E0E2
:10177800FF9006E81205279006D2E09006ECF0905C
:1017880006CDE0FDD007121BF5E4FFFEFDFC900638
:10179800CEE0F8A3E0F9A3E0FAA3E0FB120201907F
:1017A80006CCE0FFA3E0FD50047B2D80027B2012D5
:0217B80025D733
:0117BA00220C
:10225700900667FFA3A3A3E0FB900657A3A3A3E001
:0B226700C39B900661FDE0FAA3E0FBC2
:082272009006F6EAF0A3EBF080
:10227A00ED131313541FFE75F008A4FCC3ED9CFC68
:10228A0075F080EEA42FF582E435F0F583E582241B
:10229A002DF582E5833402F583E0FB9006F7E03002
:1022AA00E00FA8047401088002C333D8FC4BFB80FA
:1022BA0010AD04A8057401088002C333D8FCF45B8E
:1022CA00FB75F080EEA42FF582E435F0F583E58204
:1022DA00242DF582E5833402F583EBF0AD06122A4C
:0822EA00D5AF037D010225833D
:100AAF00E0FCA3E0FDA3E0FEA3E0FF9006351205F6
:100ABF002790067BE0FCA3E0FDA3E0FEA3E0FF9000
:100ACF000639120527900681E0FFA3E090063DCF7F
:100ADF00F0A3EFF090066FE0FCA3E0FDA3E0FEA310
:020AEF00E0FF26
:060AF10090062D120527FE
:100AF70090063F12053300000000900643120533AD
:100B07000000000090064712053300000000900621
:100B17004B1205330000000090064F12053300000A
:100B27000000900631E0F8A3E0F9A3E0FAA3E0FBA8
:100B3700900639E0FCA3E0FDA3E0FEA3E0C39BFF22
:100B4700EE9AFEED99FDEC98FC900643120527906E
:100B5700062DE0F8A3E0F9A3E0FAA3E0FB90063541
:100B6700E0FCA3E0FDA3E0FEA3E0C39BFFEE9AFE3B
:100B7700ED99FDEC98FC90063F120527900643E09F
:100B8700FCA3E0FDA3E0FEA3E0FFEC3350369006A4
:100B970043A3A3A3E01204839006431205279006FC
:100BA7004BE0FCA3E0FDA3E0FEA3E0FFEF24FFFF83
:100BB700EE34FFFEED34FFFDEC34FFFC90064B12E4
:100BC7000527800A90064B120533000000019006A6
:100BD7003FE0FCA3E0FDA3E0FEA3E0FFEC335036CB
:100BE70090063FA3A3A3E012048390063F120527B4
:100BF700900647E0FCA3E0FDA3E0FEA3E0FFEF249F
:100C0700FFFFEE34FFFEED34FFFDEC34FFFC9006F2
:100C170047120527800A9006471205330000000196
:100C270090063FE0FCA3E0FDA3E0FEA3E0FF780110
:100C37001204DF90063F120527900643E0FCA3E06D
:100C4700FDA3E0FEA3E0FF78011204DF9006431244
:100C5700052790062DA3A3A3E0FFA3A3A3A3E090DA
:100C6700063D12226C900643E0FCA3E0FDA3E0FEE4
:100C7700A3E0FF90063FE0F8A3E0F9A3E0FAA3E0C2
:100C8700FBD31204915003020DC790063FE0FCA36B
:100C9700E0FDA3E0FEA3E0FF78011204CBA804A9BE
:100CA70005AA06AB07A3E0FCA3E0FDA3E0FEA3E0D3
:100CB700C39BFFEE9AFEED99FDEC98FC90064F1250
:100CC7000527900635E0FCA3E0FDA3E0FEA3E0FFC7
:100CD70090062DE0F8A3E0F9A3E0FAA3E0FBC31226
:100CE70004917003020EFF90064FE0FCEC33405D69
:100CF700900631E0FCA3E0FDA3E0FEA3E0FF900631
:100D07004BE0F8A3E0F9A3E0FAA3E0FBEF2BFFEE3B
:100D17003AFEED39FDEC38FC9006311205279006B6
:100D27004FE0FCA3E0FDA3E0FEA3E0FF90063FE059
:100D3700F8A3E0F9A3E0FAA3E0FBC3EF9BFFEE9A69
:100D4700FEED99FDEC98FC90064F12052790062DB5
:100D5700E0FCA3E0FDA3E0FEA3E0FF900647E0F878
:100D6700A3E0F9A3E0FAA3E0FBEF2BFFEE3AFEEDD9
:100D770039FDEC38FC90062D12052790064FE0FC54
:100D8700A3E0FDA3E0FEA3E0FF900643E0F8A3E0A5
:100D9700F9A3E0FAA3E0FBEF2BFFEE3AFEED39FDF6
:100DA700EC38FC90064F12052790062DA3A3A3E06D
:100DB700FFA3A3A3A3E0FD90063D12226D020CC979
:100DC700900643E0FCA3E0FDA3E0FEA3E0FF78016B
:100DD7001204CBA804A905AA06AB0790063FE0FCBE
:100DE700A3E0FDA3E0FEA3E0C39BFFEE9AFEED990F
:100DF700FDEC98FC90064F120527900639E0FCA3FE
:100E0700E0FDA3E0FEA3E0FF900631E0F8A3E0F9E0
:100E1700A3E0FAA3E0FBC31204917003020EFF9054
:100E2700064FE0FCEC33405D90062DE0FCA3E0FDAF
:100E3700A3E0FEA3E0FF900647E0F8A3E0F9A3E0F4
:100E4700FAA3E0FBEF2BFFEE3AFEED39FDEC38FCA1
:100E570090062D12052790064FE0FCA3E0FDA3E0C6
:100E6700FEA3E0FF900643E0F8A3E0F9A3E0FAA3AE
:100E7700E0FBC3EF9BFFEE9AFEED99FDEC98FC902B
:100E8700064F120527900631E0FCA3E0FDA3E0FE24
:100E9700A3E0FF90064BE0F8A3E0F9A3E0FAA3E094
:100EA700FBEF2BFFEE3AFEED39FDEC38FC900631F7
:100EB70012052790064FE0FCA3E0FDA3E0FEA3E0A8
:100EC700FF90063FE0F8A3E0F9A3E0FAA3E0FBEF09
:100ED7002BFFEE3AFEED39FDEC38FC90064F12057C
:100EE7002790062DA3A3A3E0FFA3A3A3A3E0FD9050
:080EF700063D12226D020E01FE
:010EFF0022D0
:0613270090066F1205277D
:10132D00E4900685F0A3F0A3F0A3F0A3F090067F60
:10133D00E07004A3E06401600302144A900677E0B4
:10134D00FCA3E0FDA3E0FEA3E0FF90066FE0F8A391
:10135D00E0F9A3E0FAA3E0FBC3120491501090064C
:10136D006FA3A3A3E0900686F0900677800E9006FB
:10137D0077A3A3A3E0900686F090066FA3A3A3E046
:10138D00900687F090067BE0FCA3E0FDA3E0FEA3B2
:10139D00E0FF900673E0F8A3E0F9A3E0FAA3E0FB09
:1013AD00C31204915010900673A3A3A3E090068876
:1013BD00F090067B800E90067BA3A3A3E090068899
:1013CD00F0900673A3A3A3E0900689F0900688E041
:1013DD00900685F0900689E0FF900685E0D39F404A
:1013ED00030214FDA3E0FFE4FCFDFEC004C005C034
:1013FD0006C007900685E0FBFFE490063112052735
:10140D00900687E0FFE4FCFDFE900635120527AF40
:10141D0003E4FCFDFE900639120527900681E0FFDE
:10142D00A3E090063DCFF0A3EFF0D007D006D00596
:10143D00D004120AF1900685E004F08097900673AF
:10144D00E0FCA3E0FDA3E0FEA3E0FF900631120552
:10145D0027900677E0FCA3E0FDA3E0FEA3E0FF905C
:10146D000635120527900673120AC390067BE0FC21
:10147D00A3E0FDA3E0FEA3E0FF9006311205279047
:10148D000677120AAF900673E0FCA3E0FDA3E0FE21
:10149D00A3E0FF90063112052790066F120AAF9058
:1014AD000673E0FCA3E0FDA3E0FEA3E0FF90063190
:1014BD00120527900677E0FCA3E0FDA3E0FEA3E074
:1014CD00FF90063512052790067BE0FCA3E0FDA3F7
:1014DD00E0FEA3E0FF900639120527900681E0FF9C
:1014ED00A3E090063DCFF0A3EFF0900677120AE649
:1014FD00900683E07002A3E0607890066FA3A3A32B
:10150D00E0FFA3A3A3A3E0FD900681E0FEA3E0F41A
:10151D00FBEEF4FA12227290066FA3A3A3E0FF90E4
:10152D00067BA3A3A3E0FD900681E0FEA3E0F4FB00
:10153D00EEF4FA122272900677A3A3A3E0FF9006B1
:10154D0073A3A3A3E0FD900681E0FEA3E0F4FBEE00
:10155D00F4FA122272900677A3A3A3E0FFA3A3A32C
:10156D00A3E0FD900681E0FEA3E0F4FBEEF4FA1299
:02157D002272D8
:01157F002249
:060564009006531205276A
:10056A0090066312053300000000900667120533F7
:10057A000000000090066B12053300000000900690
:10058A005BE0FCA3E0FDA3E0FEA3E0FF9006671298
:10059A000527900667E0F8A3E0F9A3E0FAA3E0FBD9
:1005AA00C374019BFFE49AFEE499FDE498FCA3124C
:1005BA00052790065FE07004A3E06401900663607B
:1005CA0003020906E0F8A3E0F9A3E0FAA3E0FB902E
:1005DA000653E0FCA3E0FDA3E0FEA3E0C39BFFEE0D
:1005EA009AFEED99FDEC98FCC004C005C006C00750
:1005FA00900667E0FCA3E0FDA3E0FEA3E0FF9006FF
:10060A0057E0F8A3E0F9A3E0FAA3E02FFFEA3EFEE1
:10061A00E93DFDE83CFC900631120527900663E0AF
:10062A00FCA3E0FDA3E0FEA3E0FF900653E0F8A3DD
:10063A00E0F9A3E0FAA3E02FFFEA3EFEE93DFDE878
:10064A003CFC900635120527900667E0FCA3E0FD06
:10065A00A3E0FEA3E0FF900657E0F8A3E0F9A3E0C9
:10066A00FAA3E02FFFEA3EFEE93DFDE83CFC9006D6
:10067A0039120527900661E0FFA3E090063DCFF00E
:10068A00A3EFF0D007D006D005D004120AF19006E5
:10069A0063E0F8A3E0F9A3E0FAA3E0FB900653E0D5
:1006AA00FCA3E0FDA3E0FEA3E0C39BFFEE9AFEEDF0
:1006BA0099FDEC98FCC004C005C006C00790066707
:1006CA00E0F8A3E0F9A3E0FAA3E0FB900657E0FC08
:1006DA00A3E0FDA3E0FEA3E0C39BFFEE9AFEED9923
:1006EA00FDEC98FC900631120527900663E0FCA306
:1006FA00E0FDA3E0FEA3E0FF900653E0F8A3E0F9D3
:10070A00A3E0FAA3E02FFFEA3EFEE93DFDE83CFC48
:10071A00900635120527900667E0F8A3E0F9A3E0F2
:10072A00FAA3E0FB900657E0FCA3E0FDA3E0FEA3DA
:10073A00E0C39BFFEE9AFEED99FDEC98FC9006391A
:10074A00120527900661E0FFA3E090063DCFF0A3D3
:10075A00EFF0D007D006D005D004120AF190066750
:10076A00E0F8A3E0F9A3E0FAA3E0FB900653E0FC6B
:10077A00A3E0FDA3E0FEA3E0C39BFFEE9AFEED9982
:10078A00FDEC98FCC004C005C006C007900663E0F3
:10079A00FCA3E0FDA3E0FEA3E0FF900657E0F8A368
:1007AA00E0F9A3E0FAA3E02FFFEA3EFEE93DFDE807
:1007BA003CFC900631120527900667E0FCA3E0FD99
:1007CA00A3E0FEA3E0FF900653E0F8A3E0F9A3E05C
:1007DA00FAA3E02FFFEA3EFEE93DFDE83CFC900665
:1007EA0035120527900663E0FCA3E0FDA3E0FEA313
:1007FA00E0FF900657E0F8A3E0F9A3E0FAA3E02FA0
:10080A00FFEA3EFEE93DFDE83CFC90063912052769
:10081A00900661E0FFA3E090063DCFF0A3EFF0D091
:10082A0007D006D005D004120AF1900667E0F8A3B3
:10083A00E0F9A3E0FAA3E0FB900653E0FCA3E0FD95
:10084A00A3E0FEA3E0C39BFFEE9AFEED99FDEC98B0
:10085A00FCC004C005C006C007900663E0F8A3E028
:10086A00F9A3E0FAA3E0FB900657E0FCA3E0FDA39E
:10087A00E0FEA3E0C39BFFEE9AFEED99FDEC98FC27
:10088A00900631120527900667E0FCA3E0FDA3E07D
:10089A00FEA3E0FF900653E0F8A3E0F9A3E0FAA371
:1008AA00E02FFFEA3EFEE93DFDE83CFC90063512EA
:1008BA000527900663E0F8A3E0F9A3E0FAA3E0FBBA
:1008CA00900657E0FCA3E0FDA3E0FEA3E0C39BFF74
:1008DA00EE9AFEED99FDEC98FC90063912052790E8
:1008EA000661E0FFA3E090063DCFF0A3EFF0D0074A
:1008FA00D006D005D004120AF10209EAA3A3A3E0A4
:10090A00FB900653A3A3A3E02BFF900667A3A3A320
:10091A00E0FB900657A3A3A3E02B12226990066777
:10092A00A3A3A3E0FB900653A3A3A3E02BFF900687
:10093A0063A3A3A3E0FB900657A3A3A3E02B122271
:10094A0069900663A3A3A3E0FB900653A3A3A3E0C5
:10095A00C39BFF900667A3A3A3E0FB900657A3A33C
:10096A00A3E02B122269900667A3A3A3E0FB9006DB
:10097A0053A3A3A3E0C39BFF900663A3A3A3E0FB37
:10098A00900657A3A3A3E02B122269900667A3A39C
:10099A00A3E0FB900653A3A3A3E02B9006631222C5
:1009AA005A900663A3A3A3E0FB900653A3A3A3E074
:1009BA002B122257900663A3A3A3E0FB900653A32E
:1009CA00A3A3E0C39B122257900667A3A3A3E0FB4D
:1009DA00900653A3A3A3E0C39BFF90066312225B76
:1009EA0090066BE0FCA3E0FDA3E0FEA3E0FFEC337E
:1009FA0090066BE0F8A3E0F9A3E0FAA3E0FB501C31
:100A0A00C000C001C002C0039006631204F2E47B76
:100A1A0002FAF9F8120366EF2403803FC000C0010E
:100A2A00C002C00390066774FF1204F4C004C00534
:100A3A00C006C0079006631204F2D003D002D001A8
:100A4A00D000C3EF9BFFEE9AFEED99FDEC98FCE413
:100A5A007B02FAF9F8120366EF2405FFE43EFEE48E
:100A6A003DFDE43CFCD003D002D001D000EB2FFFC7
:100A7A00EA3EFEE93DFDE83CFC90066B1205279034
:100A8A000667E0FCA3E0FDA3E0FEA3E0FF90066397
:100A9A00E0F8A3E0F9A3E0FAA3E0FBD31204915033
:040AAA00030205BC82
:010AAE002225
:1022F200E49006D7F01228107BFF7A2B7967E4FD71
:102302007F181224137BFF7A2B79727D047F1812B7
:1023120024131221AC9006D7EFF024FE600714605C
:1023220013240270257A2B797D12240D7BFF7A2BE0
:10233200797D800D7A2B798112240D7BFF7A2B799E
:10234200817D067F38122413802C90022AE0FFE45C
:10235200FCFDFE9006DA1205277D027F371219F086
:10236200900228E0FFE4FCFDFE9006DA1205277DCC
:0F237200067F371219F07FE87E031227B08093A1
:1028100043BA80800090FE027480F090FE02E05483
:102820000160F890FE017402F090FE00E4F0E0F028
:0D283000E054F7F053BA7F122CAE021FF9EE
:10000300020324E86480F8E933E83360110460F004
:10001300ED33EC337009E8FCE9FDEAFEEBFF220463
:1000230060DED3EB9FEA9EE99DE8C2E78CF0C2F75E
:1000330095F0400CE8CCF8E9CDF9EACEFAEBCFFB2A
:100043001202EF85D0F05804700320D5B3E8047092
:10005300075002B2D502032E92D5EC0460F7E4CC2C
:10006300C0E0C398F8603B94186008400DD0E0FBF3
:10007300020306E4FBFAC9FC8028E830E406E4C97D
:10008300FBE4CAFCE830E305E4C9CACBFCE8540747
:100093006010F8C3E913F9EA13FAEB13FBEC13FC52
:1000A300D8F130F52FC3E49CFCEF9BFFEE9AFEEDF5
:1000B30099FDD0E0FBEF4E4D4C701222DB0302039F
:1000C3002BEC2CFCEF33FFEE33FEED33FDED30E78D
:1000D300EB020306EF2BFFEE3AFEED39FDD0E0FB1A
:1000E30050130BBB000302032EED13FDEE13FEEFC3
:0800F30013FFEC13FC020306ED
:1000FB00EC4D6011E8497017ED33EC3304600DE4FF
:10010B00FCFFFEFD22E933E8330470F802032412EE
:10011B0002EF58046009E4CC2481500628500902F0
:10012B00032E28400302032BC0E0EB4A7044B98036
:10013B0006D0E0FB02031AEF4E701CBD8008EBFFEC
:10014B00EAFEE9FD80EBE98DF0A4FEE5F00201E4A7
:10015B00E9CDF9EAFEEBFFEF89F0A4FCE5F0CE89DF
:10016B00F0A42EFFE435F0CD89F0A42DFEE435F09C
:10017B008067EF4E7005BD80D780C3EF8BF0A4ACCA
:10018B00F0EE8BF0A42CFCE435F0F8EF8AF0A42C05
:10019B00E5F038FCE433CB8DF0A42CFCE5F03BF818
:1001AB00EE8AF0A42CFCE5F038F8E433CF89F0A408
:1001BB002CFCE5F038CF3400CE89F0A42FFFE5F00E
:1001CB003EFEE433C98DF0A42EFEE5F039CD8AF066
:1001DB00A42FFFE5F03EFEE43DFD33D0E0FB5007DE
:1001EB000BBB000F02032EEC2CFCEF33FFEE33FEA8
:0601FB00ED33FD020306D6
:1002010074F8CC6480CCC86480C8F58204604FC3A4
:10021100EB9FF5F0EA9E42F0E99D42F0E89C45F043
:10022100603C501DE5825FFFE582D313CB5BCBF4CD
:100231002B5582FB50280ABA002409B900200880F6
:100241001DE5825BFBE582D313CF5FCFF4C3132F90
:100251005582FF50090EBE00050DBD00010CC3EB18
:100261009FF5F0EA9E42F0E99D42F0E89C45F0607E
:0902710007CC4820E701B3EC22A0
:10027A0075F020800E75F010800575F0087D007EFF
:10028A00007F003392D530D503120483EC3340103B
:10029A00EF33FFEE33FEED33FDEC33FCD5F0ED2208
:0E02AA00E5F0247EA2D513CC92E7CDCEFF2244
:1002B800EDD2E7CD33EC3392D524814006E4FFFE3E
:1002C800FDFC22FCE4CFCECDCC24E0501174FF809D
:1002D800EDC3CC13CCCD13CDCE13CECF13CF04703A
:0702E800F030D5DE020483B3
:1002EF00E9D2E7C933E833F892D5EDD2E7CD33EC55
:0702FF0033FC5002B2D522CE
:10030600EC30E7100FBF000C0EBE00080DBD000458
:100316000BEB6014A2D5EB13FCED92E7FD2274FF04
:10032600FCFDFEFF22E480F8A2D574FF13FC7D805D
:03033600E480EF71
:10238D000222F2E493A3F8E493A34003F68001F252
:10239D0008DFF48029E493A3F85407240CC8C33351
:1023AD00C4540F4420C8834004F456800146F6DF20
:1023BD00E4800B01020408102040809017BBE47EDE
:1023CD00019360BCA3FF543F30E509541FFEE49315
:1023DD00A360010ECF54C025E060A840B8E493A3DC
:1023ED00FAE493A3F8E493A3C8C582C8CAC583CA07
:1023FD00F0A3C8C582C8CAC583CADFE9DEE780BEBF
:0119EF0000F7
:10033900BB010CE58229F582E5833AF583E0225079
:1003490006E92582F8E622BBFE06E92582F8E222C3
:0D035900E58229F582E5833AF583E49322DD
:10036600E88FF0A4CC8BF0A42CFCE98EF0A42CFC36
:100376008AF0EDA42CFCEA8EF0A4CDA8F08BF0A4B4
:100386002DCC3825F0FDE98FF0A42CCD35F0FCEB13
:100396008EF0A4FEA9F0EB8FF0A4CFC5F02ECD39D8
:0F03A600FEE43CFCEAA42DCE35F0FDE43CFC2245
:1003B50075F008758200EF2FFFEE33FECD33CDCCFF
:1003C50033CCC58233C5829BED9AEC99E582984082
:1003D5000CF582EE9BFEED9AFDEC99FC0FD5F0D65F
:1003E500E4CEFBE4CDFAE4CCF9A88222B800C1B989
:1003F5000059BA002DEC8BF084CFCECDFCE5F0CBC7
:10040500F97818EF2FFFEE33FEED33FDEC33FCEBFF
:1004150033FB10D703994004EB99FB0FD8E5E4F9BA
:10042500FA227818EF2FFFEE33FEED33FDEC33FCA7
:10043500C933C910D7059BE99A4007EC9BFCE99A9B
:10044500F90FD8E0E4C9FAE4CCFB2275F010EF2FE0
:10045500FFEE33FEED33FDCC33CCC833C810D707E0
:100465009BEC9AE899400AED9BFDEC9AFCE899F81B
:0E0475000FD5F0DAE4CDFBE4CCFAE4C8F922AE
:10260400C2D5E830E70FB2D5E4C39BFBE49AFAE401
:1026140099F9E498F8EC30E717B2D512263A120388
:10262400F1E4C39BFBE49AFAE499F9E498F8800393
:102634001203F130D50DE4C39FFFE49EFEE49DFD3B
:04264400E49CFC22F4
:0E048300C3E49FFFE49EFEE49DFDE49CFC228A
:10049100EB9FF5F0EA9E42F0E99D42F0EC6480C8E2
:0604A10064809845F02282
:1004A700EB9FF5F0EA9E42F0E99D42F0E89C45F0AB
:0104B7002222
:1004B800E8600FECC313FCED13FDEE13FEEF13FF22
:0304C800D8F12246
:1004CB00E86010ECA2E713FCED13FDEE13FEEF1347
:0404DB00FFD8F02234
:1004DF00E8600FEFC333FFEE33FEED33FDEC33FC7B
:0304EF00D8F1221F
:1004F2007401FF3395E0FEFDFCA3A3A3E0CF2FF030
:10050200E582158270021583E0CE3EF0E582158207
:1005120070021583E0CD3DF0E582158270021583ED
:05052200E0CC3CF022DA
:0C052700ECF0A3EDF0A3EEF0A3EFF02247
:10053300A8828583F0D083D08212054A12054A121D
:10054300054A12054AE473E493A3C583C5F0C58342
:10055300C8C582C8F0A3C583C5F0C583C8C582C812
:010563002275
:00000001FF
