:03000000020A0CE5
:0C0A0C00787FE4F6D8FD758107020A53DC
:0D10F6004A00413F065B4F666D7D077F6F2E
:0E0D8A007F047E00120D9843C0027F047E009D
:100D9800AD07AC06E412020612023FD3EF9400EE50
:0D0DA8009400400800EF1F70F21E80EF2243
:080CC100E034FFF07F017E002A
:100CC900900034EEF0A3EFF0D3900035E09400905B
:100CD9000034E094004015A3E024FFF0900034E0D4
:0D0CE90034FFF07FE87E03120D9880DC22BE
:08116000AF8CEFFEAD8AEDFF3C
:011168002264
:08116900AF8DEFFEAD8BEDFF31
:01117100225B
:08117200AFD6EFFEADD7EDFF93
:01117A002252
:08117B00AFD4EFFEADD5EDFF8E
:011183002249
:08118400AFD2EFFEADD3EDFF89
:01118C002240
:100D2A00E490004EF0A3F053BCF0EF42BC120CC5A5
:100D3A0043BC40E5BC30E5FB53BCDFAFBDEFFFADC4
:100D4A00BEED90004ECFF0A3EFF090004EE0FEA370
:020D5A00E0FFB8
:010D5C002274
:100E050075C78375C501EFF5C4EEF5C375C65A758B
:100E1500C6A500ADC2E4F5C7F5C5F5C675C380F531
:030E2500C4AF0552
:010E280022A7
:100E290075C78375C502EFF5C4EEF5C3AF058FC26B
:100E390075C65A75C6A500E4F5C7F5C5F5C675C3E7
:040E490080F5C4224A
:100F610075C78375C503EFF5C4EEF5C375C65A752C
:100F7100C6A500E4F5C7F5C5F5C675C380F5C4225D
:08118D00AFF9EFFEADE9EDFF43
:011195002237
:08119600AFFAEFFEADEAEDFF38
:01119E00222E
:08119F00AFFBEFFEADEBEDFF2D
:0111A7002225
:0811A800AFFCEFFEADECEDFF22
:0111B000221C
:0811B100AFFDEFFEADEDEDFF17
:0111B9002213
:100F9F00AD0753F2FDED548025E0FFEF42F2ED5423
:040FAF003FF5FA22EE
:0E10BE0053F2FEEF548042F2EF543FF5EA2267
:10101500AD0753F2FDE425E0FFEF42F2ED547FF515
:02102500FA22AD
:0911BA0053F2FEEF547FF5EA2226
:10106E00AD0753F2FDE425E0FFEF42F2EDF5FA2273
:0711DE0053F2FEEFF5EA22D7
:100EDD00AD07AC0653F2CDEC5403C4F854F0C8E49E
:100EED00C4540F48FBEC5404C3134B42F2EDF5FA16
:010EFD0022D2
:100E4D00AD07AC0653F2F2EC5403FEE47806CEC3C4
:100E5D0013CE13D8F9FBEC54041313543F4B42F249
:040E6D00EDF5EA2293
:100FB300AD0753F3FDED548025E0FFEF42F3ED540D
:040FC3003FF5FB22D9
:0E10CC0053F3FEEF548042F3EF543FF5EB2256
:10102700AD0753F3FDE425E0FFEF42F3ED547FF501
:02103700FB229A
:0911C30053F3FEEF547FF5EB221B
:10107E00AD0753F3FDE425E0FFEF42F3EDF5FB2260
:0711E50053F3FEEFF5EB22CE
:100EFE00AD07AC0653F3CDEC5403C4F854F0C8E47C
:100F0E00C4540F48FBEC5404C3134B42F3EDF5FBF2
:010F1E0022B0
:100E7100AD07AC0653F3F2EC5403FEE47806CEC39F
:100E810013CE13D8F9FBEC54041313543F4B42F324
:040E9100EDF5EB226E
:100FC700AD0753F4FDED548025E0FFEF42F4ED54F7
:040FD7003FF5FC22C4
:0E10DA0053F4FEEF548042F4EF543FF5EC2245
:10103900AD0753F4FDE425E0FFEF42F4ED547FF5ED
:02104900FC2287
:0911CC0053F4FEEF547FF5EC2210
:10108E00AD0753F4FDE425E0FFEF42F4EDF5FC224D
:0711EC0053F4FEEFF5EC22C5
:100F1F00AD07AC0653F4CDEC5403C4F854F0C8E459
:100F2F00C4540F48FBEC5404C3134B42F4EDF5FCCF
:010F3F00228F
:100E9500AD07AC0653F4F2EC5403FEE47806CEC37A
:100EA50013CE13D8F9FBEC54041313543F4B42F4FF
:040EB500EDF5EC2249
:100FDB00AD0753F5FDED548025E0FFEF42F5ED54E1
:040FEB003FF5FD22AF
:0E10E80053F5FEEF548042F5EF543FF5ED2234
:10104B00AD0753F5FDE425E0FFEF42F5ED547FF5D9
:02105B00FD2274
:0911D50053F5FEEF547FF5ED2205
:10109E00AD0753F5FDE425E0FFEF42F5EDF5FD223A
:0711F30053F5FEEFF5ED22BC
:100F4000AD07AC0653F5CDEC5403C4F854F0C8E437
:100F5000C4540F48FBEC5404C3134B42F5EDF5FDAC
:010F6000226E
:100EB900AD07AC0653F5F2EC5403FEE47806CEC355
:100EC90013CE13D8F9FBEC54041313543F4B42F5DA
:040ED900EDF5ED2224
:040C500090FE81F0A1
:100C54009000507403F0A374E8F090FE82E05440D6
:100C6400701CD3900051E09400900050E094004038
:100C74000DA3E024FFF0900050120CC180DC90FE24
:050C840082E054BFF006
:010C89002248
:0C11040043BA807401120C5053BA7F22D1
:0C11100043BA807406120C5053BA7F22C0
:100F810043BA8090FE86EFF090FE817402F0120C5D
:0E0F91005490FE817403F0120C5453BA7F2268
:050C8A00900052EFF0A4
:100C8F00E4A3F043BA8090FE817404F0120C5490E8
:100C9F00FE87E0900053F0900052E0F490FE82F057
:100CAF0090FE817405F0120C5453BA7F900053E0FC
:010CBF00FF35
:010CC0002211
:100C1200E490004BF0A304F0A3742CF08FCFE5CD49
:100C220020E71CD390004DE0940090004CE094002B
:100C3200400DA3E024FFF090004C120CC180DF4372
:0D0C4200CD8043CD4090004BE5CFF0E0FFAA
:010C4F002282
:06079900900000120414A0
:10079F0090000A12042000000000759850E47F04B6
:1007AF00FEFDFC900000E0F8A3E0F9A3E0FAA3E05F
:1007BF00FB1202C0A804A905AA06AB07900006E029
:1007CF00FCA3E0FDA3E0FEA3E0FF12034B90000AA1
:1007DF00120414900005E06401701D90000AE0FC03
:1007EF00A3E0FDA3E0FEA3E0FFE47B0CFAF9F8120F
:1007FF00034B90000A12041490000AE0F8A3E0F9EA
:10080F00A3E0FAA3E0FBC3E49BFFE49AFE74019913
:10081F00FDE498FC90000A120414900004E070327A
:10082F00A3E07008538EF3438E048003538EF3902E
:10083F00000AA3A3A3E0FF8FD790000AE0FCA3E078
:10084F00FDA3E0FEA3E0FF78081204018FD6438ECC
:10085F001022900005E0538EBF438E40538FFD53FF
:10086F00890F90000AA3A3A3E0FF8F8B90000AE0EB
:10087F00FCA3E0FDA3E0FEA3E0FF78081204018FC4
:04088F008D438840CD
:010893002242
:0C111C008F99E598540260FA5398FD2268
:0611FA005398FEAF99229C
:09095200900038EDF0AB07AA0695
:10095B0090003D12042000000000759A10AE02EBCF
:10096B007802C333CE33CED8F9FBAA06E4F9F8905C
:10097B000039E0FCA3E0FDA3E0FEA3E0FF12034B74
:10098B0090003D120414900038E06401701D90003B
:10099B003DE0FCA3E0FDA3E0FEA3E0FFE47B0CFA4B
:1009AB00F9F812034B90003D12041490003DE0F84F
:1009BB00A3E0F9A3E0FAA3E0FBC3E49BFFE49AFEF8
:1009CB00740199FDE498FC90003D120414900038DA
:1009DB00E07008538EF3438E048003538EF3900024
:1009EB003DA3A3A3E0FF8FD790003DE0FCA3E0FD68
:1009FB00A3E0FEA3E0FF78081204018FD6438E100C
:010A0B0022C8
:0C1128008F9BE59A540260FA539AFD2256
:06120000539AFEAF9B2291
:0605970090000E12041496
:10059D0090001812042000000000900012E044109A
:1005AD00F5ACE47F04FEFDFC90000EE0F8A3E0F94D
:1005BD00A3E0FAA3E0FB1202C0A804A905AA06ABAA
:1005CD0007900014E0FCA3E0FDA3E0FEA3E0FF1202
:1005DD00034B900018120414900013E06401701D79
:1005ED00900018E0FCA3E0FDA3E0FEA3E0FFE47B98
:1005FD000CFAF9F812034B9000181204149000181D
:10060D00E0F8A3E0F9A3E0FAA3E0FBC3E49BFFE469
:10061D009AFE740199FDE498FC9000181204149050
:10062D000012E07032A3E07008538EF3438E048005
:10063D0003538EF3900018A3A3A3E0FF8FD7900070
:10064D0018E0FCA3E0FDA3E0FEA3E0FF7808120490
:10065D00018FD6438E1022900013E0700853D1F80D
:10066D0043D102800353D1F8900018A3A3A3E0FF58
:10067D008FD5900018E0FCA3E0FDA3E0FEA3E0FF02
:0A068D0078081204018FD443D1084D
:010697002240
:0C1134008FADE5AC540260FA53ACFD2214
:0612060053ACFEAFAD2267
:0606980090001C12041486
:10069E0090002612042000000000900020E044107C
:1006AE00F584E47F04FEFDFC90001CE0F8A3E0F965
:1006BE00A3E0FAA3E0FB1202C0A804A905AA06ABA8
:1006CE0007900022E0FCA3E0FDA3E0FEA3E0FF12F2
:1006DE00034B900026120414900021E06401701D5B
:1006EE00900026E0FCA3E0FDA3E0FEA3E0FFE47B88
:1006FE000CFAF9F812034B900026120414900026FF
:10070E00E0F8A3E0F9A3E0FAA3E0FBC3E49BFFE467
:10071E009AFE740199FDE498FC9000261204149040
:10072E000020E07032A3E07008538EF3438E0480F5
:10073E0003538EF3900026A3A3A3E0FF8FD7900060
:10074E0026E0FCA3E0FDA3E0FEA3E0FF7808120480
:10075E00018FD6438E1022900021E0700853D18F66
:10076E0043D120800353D18F900026A3A3A3E0FF93
:10077E008FD3900026E0FCA3E0FDA3E0FEA3E0FFF4
:0A078E0078081204018FD243D180D5
:01079800223E
:0C1140008F85E584540260FA5384FD2280
:06120C005384FEAF8522B1
:100CF600E4900034F053B1FE53B2FE53B0FE7FE0F1
:100D06007E01120D9843B0017F3C7E00120D98E5DE
:100D1600B05401900034F07FE07E01120D989000EF
:030D260034E0FFB7
:010D290022A7
:10105D0053B0FEEF600A7F687E00120D9843B00119
:01106D002260
:100FEF0053B0FE43B0017F0F7E00120D98E5B05451
:030FFF0001FF22CD
:050A9800900034EFF0B6
:100A9D00E4A3F0900035E0FFC39408748094805077
:100AAD00407E007401A807088005C333CE33CED82D
:100ABD00F9FF900034E0FDEF5D601053B0FE004390
:100ACD00B0017F3C7E00120D98800E53B0FE7F3C2E
:100ADD007E00120D9843B00100900035E004F080C7
:010AED00B256
:010AEE0022E5
:100B4400E4900034F0A3F0900034E0FFC394087400
:100B5400809480502E53B0FE0043B001E5B030E0E5
:100B640013A3E0FEA8077401088002C333D8FC4E27
:100B7400900035F07F3C7E00120D98900034E00424
:080B8400F080C4900035E0FF91
:010B8C002246
:0A114C00120CF67F647E00020CC94D
:10045100E490002EF0A3F0A312042000000000128B
:100461000CF67FCC120A987F44120A98E470287423
:100471000C24F7601B1460121460091470197FEECC
:100481007E0280107F777E01800A7FBC7E0080041F
:100491007F5E7E00120CC9120CF67FCC120A987F87
:1004A100BE120A98120B4490002FEFF0120B4490E9
:1004B100002EEFF0FCE412020B90003012041490B5
:1004C1000030E0FCA3E0FDA3E0FEA3E0FFE4FBFAC3
:1004D100798078431200FB900030120414900030B0
:1004E100E0F8A3E0F9A3E0FAA3E0FBC000C001C07B
:1004F10002C00390002FE0FCE412020BD003D002F3
:10050100D001D00012000A900030120414E470707F
:10051100740C24F7604D14603314601A14706190E8
:100521000030E0FCA3E0FDA3E0FEA3E0FFE4FBFA62
:100531007980783D8041900030E0FCA3E0FDA3E0AC
:10054100FEA3E0FFE4FBFAF9783E802B900030E057
:10055100FCA3E0FDA3E0FEA3E0FFE4FBFA798078D1
:100561003E8014900030E0FCA3E0FDA3E0FEA3E098
:10057100FFE4FBFAF9783F1200FB900030120414FB
:100581007F287E00120CC9900030E0FCA3E0FDA39F
:05059100E0FEA3E0FF05
:010596002242
:100DDF0053B3FD53B4FD53B3FD43B40253B3FB53AD
:100DEF00B4FB53B3FB43B40453C0FB53C0FD7F8A22
:060DFF00121002020DB506
:0A11560043C004120D9153C0FB22A8
:1010AE0053C0FD120D9453C0FB120D8A43C004228F
:050AEF00900032EFF061
:100AF400A37408F0E4A3F053C0FD120D94900032E7
:100B0400E030E00543C004800353C0FB120D919014
:100B14000032E0C313F0A3E014F0E070DA53C0FD38
:100B2400120D94E5C05404900034F0E0600353C007
:0F0B3400FB120D8A53C0FD120D94900034E0FFA8
:010B4300228F
:10100200900031EFF0121156900031E0FF120AEF1A
:031012000210AE1B
:100DB50090002E7403F090002EE0FFFD3395E0FCCB
:100DC500D3ED94FFEC6480947F400EE4FBFD120BA1
:090DD500D190002EE014F080DD45
:010DDE0022F2
:100BD100900030EDF090002FEFF064017014EB14F1
:100BE1007009900030E04480F08007900030E054BC
:100BF1007FF07F4412100212115690002FE054032F
:100C010044C0FF120AEF900030E0FF120AEF021019
:010C1100AE34
:1008940090002A12042000000000120D5D12045181
:1008A40012023F90002A120414E47FE77E03FDFC49
:1008B40090002AE0F8A3E0F9A3E0FAA3E0FBD31246
:1008C40003EB401B90002AE0FCA3A3E0FEEC3340C2
:1008D4000EE4FB7D40FF120BD1E4FB7D40804EE42F
:1008E4007B0AFAF9F890002AE0FCA3E0FDA3E0FEFD
:1008F400A3E0FF120B8D74412FF58274003EF58343
:10090400E0FDE4FBFF120BD1E47B0AFAF9F8900056
:100914002AE0FCA3E0FDA3E0FEA3E0FF120B8D742C
:10092400412BF58274003AF583E0FDE4FB7F01126C
:100934000BD1E4FB7D637F02120BD1E4FB7D397F95
:0E09440003120BD17F587E02120CC90208A1CB
:100D5D0043BA80800090FE027480F090FE02E05451
:100D6D000160F890FE017402F090FE00E4F0E0F0F6
:0D0D7D00E054F7F053BA7F120DDF02114C65
:100003000202ABE86480F8E933E83360110460F07E
:10001300ED33EC337009E8FCE9FDEAFEEBFF220463
:1000230060DED3EB9FEA9EE99DE8C2E78CF0C2F75E
:1000330095F0400CE8CCF8E9CDF9EACEFAEBCFFB2A
:1000430012027685D0F05804700320D5B3E804700B
:10005300075002B2D50202B592D5EC0460F7E4CCA6
:10006300C0E0C398F8603B94186008400DD0E0FBF3
:1000730002028DE4FBFAC9FC8028E830E406E4C9F7
:10008300FBE4CAFCE830E305E4C9CACBFCE8540747
:100093006010F8C3E913F9EA13FAEB13FBEC13FC52
:1000A300D8F130F52FC3E49CFCEF9BFFEE9AFEEDF5
:1000B30099FDD0E0FBEF4E4D4C701222DB030202A0
:1000C300B2EC2CFCEF33FFEE33FEED33FDED30E706
:1000D300EB02028DEF2BFFEE3AFEED39FDD0E0FB94
:1000E30050130BBB00030202B5ED13FDEE13FEEF3D
:0800F30013FFEC13FC02028D67
:1000FB00EC4D6011E8497017ED33EC3304600DE4FF
:10010B00FCFFFEFD22E933E8330470F80202AB1268
:10011B00027658046009E4CC248150062850090269
:10012B0002B52840030202B2C0E0EB4A7044B9802A
:10013B0006D0E0FB0202A1EF4E701CBD8008EBFF66
:10014B00EAFEE9FD80EBE98DF0A4FEE5F00201E4A7
:10015B00E9CDF9EAFEEBFFEF89F0A4FCE5F0CE89DF
:10016B00F0A42EFFE435F0CD89F0A42DFEE435F09C
:10017B008067EF4E7005BD80D780C3EF8BF0A4ACCA
:10018B00F0EE8BF0A42CFCE435F0F8EF8AF0A42C05
:10019B00E5F038FCE433CB8DF0A42CFCE5F03BF818
:1001AB00EE8AF0A42CFCE5F038F8E433CF89F0A408
:1001BB002CFCE5F038CF3400CE89F0A42FFFE5F00E
:1001CB003EFEE433C98DF0A42EFEE5F039CD8AF066
:1001DB00A42FFFE5F03EFEE43DFD33D0E0FB5007DE
:1001EB000BBB000F0202B5EC2CFCEF33FFEE33FE22
:0601FB00ED33FD02028D50
:1002010075F020800E75F010800575F0087D007E78
:10021100007F003392D530D5031203DDEC3340105B
:10022100EF33FFEE33FEED33FDEC33FCD5F0ED2281
:0E023100E5F0247EA2D513CC92E7CDCEFF22BD
:10023F00EDD2E7CD33EC3392D524814006E4FFFEB7
:10024F00FDFC22FCE4CFCECDCC24E0501174FF8016
:10025F00EDC3CC13CCCD13CDCE13CECF13CF0470B3
:07026F00F030D5DE0203DDD3
:10027600E9D2E7C933E833F892D5EDD2E7CD33ECCE
:0702860033FC5002B2D52247
:10028D00EC30E7100FBF000C0EBE00080DBD0004D2
:10029D000BEB6014A2D5EB13FCED92E7FD2274FF7E
:1002AD00FCFDFEFF22E480F8A2D574FF13FC7D80D7
:0302BD00E480EFEB
:100A1800020894E493A3F8E493A34003F68001F258
:100A280008DFF48029E493A3F85407240CC8C333DF
:100A3800C4540F4420C8834004F456800146F6DFAE
:100A4800E4800B01020408102040809010F6E47E38
:100A5800019360BCA3FF543F30E509541FFEE493A3
:100A6800A360010ECF54C025E060A840B8E493A36A
:100A7800FAE493A3F8E493A3C8C582C8CAC583CA95
:100A8800F0A3C8C582C8CAC583CADFE9DEE780BE4D
:0111030000EB
:1002C000E88FF0A4CC8BF0A42CFCE98EF0A42CFCDD
:1002D0008AF0EDA42CFCEA8EF0A4CDA8F08BF0A45B
:1002E0002DCC3825F0FDE98FF0A42CCD35F0FCEBBA
:1002F0008EF0A4FEA9F0EB8FF0A4CFC5F02ECD397F
:0F030000FEE43CFCEAA42DCE35F0FDE43CFC22EB
:10030F0075F008758200EF2FFFEE33FECD33CDCCA5
:10031F0033CCC58233C5829BED9AEC99E582984028
:10032F000CF582EE9BFEED9AFDEC99FC0FD5F0D605
:10033F00E4CEFBE4CDFAE4CCF9A88222B800C1B92F
:10034F000059BA002DEC8BF084CFCECDFCE5F0CB6D
:10035F00F97818EF2FFFEE33FEED33FDEC33FCEBA6
:10036F0033FB10D703994004EB99FB0FD8E5E4F961
:10037F00FA227818EF2FFFEE33FEED33FDEC33FC4E
:10038F00C933C910D7059BE99A4007EC9BFCE99A42
:10039F00F90FD8E0E4C9FAE4CCFB2275F010EF2F87
:1003AF00FFEE33FEED33FDCC33CCC833C810D70787
:1003BF009BEC9AE899400AED9BFDEC9AFCE899F8C2
:0E03CF000FD5F0DAE4CDFBE4CCFAE4C8F92255
:100B8D00C2D5E830E70FB2D5E4C39BFBE49AFAE493
:100B9D0099F9E498F8EC30E717B2D5120BC31203AC
:100BAD004BE4C39BFBE49AFAE499F9E498F88003CB
:100BBD0012034B30D50DE4C39FFFE49EFEE49DFD73
:040BCD00E49CFC2286
:0E03DD00C3E49FFFE49EFEE49DFDE49CFC2231
:1003EB00EB9FF5F0EA9E42F0E99D42F0EC6480C889
:0603FB0064809845F02229
:10040100E8600FECC313FCED13FDEE13FEEF13FFD9
:03041100D8F122FD
:0C041400ECF0A3EDF0A3EEF0A3EFF0225B
:10042000A8828583F0D083D0821204371204371259
:100430000437120437E473E493A3C583C5F0C5837E
:10044000C8C582C8F0A3C583C5F0C583C8C582C826
:010450002289
:00000001FF
