:03000000021B0BD5
:0C1B0B00787FE4F6D8FD7581070211D840
:10172500522E48202F20253A0054656D702F2043F6
:101735003A002D2D2E2D0000060909060000002077
:1017450020202000202020202020002E20202020C6
:0517550000000000008F
:10197600AD07AC06E41202901202C9D3EF9400EE52
:0D1986009400400800EF1F70F21E80EF2259
:10178D00900025EEF0A3EFF0D3900026E0940090AA
:10179D000025E094004015A3E024FFF0900025E023
:0D17AD0034FFF07FE87E0312197680DC2205
:081B2F00AF8CEFFEAD8AEDFF63
:011B3700228B
:081B3800AF8DEFFEAD8BEDFF58
:011B40002282
:081B4100AFD6EFFEADD7EDFFBA
:011B49002279
:081B4A00AFD4EFFEADD5EDFFB5
:011B52002270
:081B5300AFD2EFFEADD3EDFFB0
:011B5B002267
:1016B700E4900065F0A3F053BCF0EF42BC7F017EDD
:1016C7000012178D43BC40E5BC30E5FB53BCDFAFD0
:1016D700BDEFFFADBEED900065CFF0A3EFF090003A
:0616E70065E0FEA3E0FF38
:0116ED0022DA
:1017BA0075C78375C501EFF5C4EEF5C375C65A75CD
:1017CA00C6A500ADC2E4F5C7F5C5F5C675C380F573
:0317DA00C4AF0594
:0117DD0022E9
:1017DE0075C78375C502EFF5C4EEF5C3AF058FC2AD
:1017EE0075C65A75C6A500E4F5C7F5C5F5C675C329
:0417FE0080F5C4228C
:1019380075C78375C503EFF5C4EEF5C375C65A754B
:10194800C6A500E4F5C7F5C5F5C675C380F5C4227C
:081B5C00AFF9EFFEADE9EDFF6A
:011B6400225E
:081B6500AFFAEFFEADEAEDFF5F
:011B6D002255
:081B6E00AFFBEFFEADEBEDFF54
:011B7600224C
:081B7700AFFCEFFEADECEDFF49
:011B7F002243
:081B8000AFFDEFFEADEDEDFF3E
:011B8800223A
:10199300AD0753F2FDED548025E0FFEF42F2ED5425
:0419A3003FF5FA22F0
:0E1AC50053F2FEEF548042F2EF543FF5EA2256
:1019F700AD0753F2FDE425E0FFEF42F2ED547FF52A
:021A0700FA22C1
:091B890053F2FEEF547FF5EA224D
:101A8500AD0753F2FDE425E0FFEF42F2EDF5FA2252
:071BAD0053F2FEEFF5EA22FE
:1018B400AD07AC0653F2CDEC5403C4F854F0C8E4BD
:1018C400C4540F48FBEC5404C3134B42F2EDF5FA35
:0118D40022F1
:10180200AD07AC0653F2F2EC5403FEE47806CEC305
:1018120013CE13D8F9FBEC54041313543F4B42F28A
:04182200EDF5EA22D4
:1019A700AD0753F3FDED548025E0FFEF42F3ED540F
:0419B7003FF5FB22DB
:0E1AD30053F3FEEF548042F3EF543FF5EB2245
:101A0900AD0753F3FDE425E0FFEF42F3ED547FF515
:021A1900FB22AE
:091B920053F3FEEF547FF5EB2242
:101A9500AD0753F3FDE425E0FFEF42F3EDF5FB223F
:071BB40053F3FEEFF5EB22F5
:1018D500AD07AC0653F3CDEC5403C4F854F0C8E49B
:1018E500C4540F48FBEC5404C3134B42F3EDF5FB12
:0118F50022D0
:10182600AD07AC0653F3F2EC5403FEE47806CEC3E0
:1018360013CE13D8F9FBEC54041313543F4B42F365
:04184600EDF5EB22AF
:1019BB00AD0753F4FDED548025E0FFEF42F4ED54F9
:0419CB003FF5FC22C6
:0E1AE10053F4FEEF548042F4EF543FF5EC2234
:101A1B00AD0753F4FDE425E0FFEF42F4ED547FF501
:021A2B00FC229B
:091B9B0053F4FEEF547FF5EC2237
:101AA500AD0753F4FDE425E0FFEF42F4EDF5FC222C
:071BBB0053F4FEEFF5EC22EC
:1018F600AD07AC0653F4CDEC5403C4F854F0C8E479
:10190600C4540F48FBEC5404C3134B42F4EDF5FCEE
:0119160022AE
:10184A00AD07AC0653F4F2EC5403FEE47806CEC3BB
:10185A0013CE13D8F9FBEC54041313543F4B42F440
:04186A00EDF5EC228A
:1019CF00AD0753F5FDED548025E0FFEF42F5ED54E3
:0419DF003FF5FD22B1
:0E1AEF0053F5FEEF548042F5EF543FF5ED2223
:101A2D00AD0753F5FDE425E0FFEF42F5ED547FF5ED
:021A3D00FD2288
:091BA40053F5FEEF547FF5ED222C
:101AB500AD0753F5FDE425E0FFEF42F5EDF5FD2219
:071BC20053F5FEEFF5ED22E3
:10191700AD07AC0653F5CDEC5403C4F854F0C8E456
:10192700C4540F48FBEC5404C3134B42F5EDF5FDCB
:01193700228D
:10186E00AD07AC0653F5F2EC5403FEE47806CEC396
:10187E0013CE13D8F9FBEC54041313543F4B42F51B
:04188E00EDF5ED2265
:0415BD0090FE81F02B
:1015C1009000197403F0A374E8F090FE82E0544097
:1015D1007024D390001AE09400900019E094004028
:1015E10015A3E024FFF0900019E034FFF07F017EA5
:0D15F1000012178D80D490FE82E054BFF0F0
:0115FE0022CA
:0C1B170075BA8074011215BDE4F5BA2205
:0C1B230075BA8074061215BDE4F5BA22F4
:1019580075BA8090FE86EFF090FE817402F0121541
:0E196800C190FE817403F01215C1E4F5BA229D
:0516EE00900017EFF071
:1016F300E4A3F075BA8090FE817404F01215C190D2
:10170300FE87E0900018F0900017E0F490FE82F05E
:1017130090FE817405F01215C1E4F5BA900018E04B
:01172300FFC6
:0117240022A2
:101A6300E4FE8FCFE5CD30E7FBAECF75CD80AF067B
:011A73002250
:060FE400900027120640F8
:100FEA0090003112064C00000000759850E47F040E
:100FFA00FEFDFC900027E0F8A3E0F9A3E0FAA3E0E5
:10100A00FB1204D2A804A905AA06AB0790002DE09A
:10101A00FCA3E0FDA3E0FEA3E0FF12055D90003112
:10102A0012064090002CE06401701D900031E0FC33
:10103A00A3E0FDA3E0FEA3E0FFE47B0CFAF9F812BB
:10104A00055D900031120640900031E0F8A3E0F906
:10105A00A3E0FAA3E0FBC3E49BFFE49AFE740199C0
:10106A00FDE498FC90003112064090002BE07032AB
:10107A00A3E07008538EF3438E048003538EF390DB
:10108A000031A3A3A3E0FF8FD7900031E0FCA3E0D7
:10109A00FDA3E0FEA3E0FF78081206138FD6438E65
:1010AA00102290002CE0538EBF438E40538FFD5385
:1010BA00890F900031A3A3A3E0FF8F8B900031E04A
:1010CA00FCA3E0FDA3E0FEA3E0FF78081206138F5D
:0410DA008D4388407A
:0110DE0022EF
:031BCE008F9922CA
:031BD100AF9922A7
:09129C00900053EDF0AB07AA0627
:1012A50090005812064C00000000759A10AE02EB33
:1012B5007802C333CE33CED8F9FBAA06E4F9F89009
:1012C5000054E0FCA3E0FDA3E0FEA3E0FF12055DF2
:1012D500900058120640900053E06401701D900084
:1012E50058E0FCA3E0FDA3E0FEA3E0FFE47B0CFADD
:1012F500F9F812055D900058120640900058E0F884
:10130500A3E0F9A3E0FAA3E0FBC3E49BFFE49AFEA4
:10131500740199FDE498FC90005812064090005322
:10132500E07008538EF3438E048003538EF39000D0
:1013350058A3A3A3E0FF8FD7900058E0FCA3E0FDDE
:10134500A3E0FEA3E0FF78081206138FD6438E10A4
:011355002275
:031BD4008F9B22C2
:031BD700AF9B229F
:060DE200900035120640EE
:100DE80090003F12064C00000000900039E04410CB
:100DF800F5ACE47F04FEFDFC900035E0F8A3E0F9D3
:100E0800A3E0FAA3E0FB1204D2A804A905AA06AB42
:100E18000790003BE0FCA3E0FDA3E0FEA3E0FF1287
:100E2800055D90003F12064090003AE06401701D95
:100E380090003FE0FCA3E0FDA3E0FEA3E0FFE47B1D
:100E48000CFAF9F812055D90003F12064090003F39
:100E5800E0F8A3E0F9A3E0FAA3E0FBC3E49BFFE416
:100E68009AFE740199FDE498FC90003F12064090A8
:100E78000039E07032A3E07008538EF3438E04808B
:100E880003538EF390003FA3A3A3E0FF8FD79000F6
:100E98003FE0FCA3E0FDA3E0FEA3E0FF7808120614
:100EA800138FD6438E102290003AE0700853D1F881
:100EB80043D102800353D1F890003FA3A3A3E0FFDE
:100EC8008FD590003FE0FCA3E0FDA3E0FEA3E0FF88
:0A0ED80078081206138FD443D108E6
:010EE20022ED
:031BDA008FAD22AA
:031BDD00AFAD2287
:060EE300900043120640DE
:100EE90090004D12064C00000000900047E04410AD
:100EF900F584E47F04FEFDFC900043E0F8A3E0F9EB
:100F0900A3E0FAA3E0FB1204D2A804A905AA06AB40
:100F190007900049E0FCA3E0FDA3E0FEA3E0FF1277
:100F2900055D90004D120640900048E06401701D77
:100F390090004DE0FCA3E0FDA3E0FEA3E0FFE47B0D
:100F49000CFAF9F812055D90004D12064090004D1B
:100F5900E0F8A3E0F9A3E0FAA3E0FBC3E49BFFE414
:100F69009AFE740199FDE498FC90004D1206409098
:100F79000047E07032A3E07008538EF3438E04807B
:100F890003538EF390004DA3A3A3E0FF8FD79000E6
:100F99004DE0FCA3E0FDA3E0FEA3E0FF7808120604
:100FA900138FD6438E1022900048E0700853D18FDA
:100FB90043D120800353D18F90004DA3A3A3E0FF19
:100FC9008FD390004DE0FCA3E0FDA3E0FEA3E0FF7A
:0A0FD90078081206138FD243D1806E
:010FE30022EB
:031BE0008F8522CC
:031BE300AF8522A9
:101400007F0A7E0012178D53B1DF53B2DF53B1DF75
:1014100043B22053B1BF53B2BF53B1BF43B24053E5
:10142000B17F53B27F53B17F43B2805393EF539454
:10143000EF5393EF4394105393DF5394DF5393DFB1
:101440004394205393BF5394BF5393BF439440534B
:10145000937F53947F53937F43948053B0BF53B093
:10146000DF7F0A7E0012178D1219E3E4FD7F33122D
:101470001A74E4FD7F32121A74E4FD7F28121A7484
:10148000E4FD7F0C121A74E4FD7F01121A74E4FD6E
:051490007F06021A7442
:101A7400ED600814700843B020800353B0DF0213F4
:011A8400560B
:05135600900024EFF0FF
:10135B00EF5480C413131354011470054380808021
:10136B000353807F900024E0FF5440C413135403B5
:10137B0014700543804080035380BFEF5420C41387
:10138B00540714700543802080035380DF900024A2
:10139B00E05410FFC4540FFE1470054380108003FB
:1013AB005380EF1219E3900024E0FF54081313133A
:1013BB00541F147005438080800353807FEF5404C7
:1013CB001313543F14700543804080035380BF9028
:1013DB000024E0FF5402C3131470054380208003E4
:1013EB005380DFEF5401FE147005438010800353CC
:0513FB0080EF0219E380
:06167C007BFF7A177937AD
:10168200900021EBF0A3EAF0A3E9F0900021E0FB47
:10169200A3E475F0011204BCA9F0FA120440FF7D24
:1016A20001121A74900021E0FBA3E0FAA3E0F91200
:0516B200044070D72286
:051BC9007D01021A7409
:0E1AFD00E4FD7F01121A74E4FD7F02021A74E8
:08189200900009E0FFA3E0FD56
:10189A00900021EFF0ED7005E04480800690002171
:0A18AA00E044C0FFE4FD121A7422AE
:1019E30043B0807F027E0012178D53B07F7F027E4B
:0419F3000002178D4A
:10152800E4900009F0780A7C007D017BFF7A177946
:101538003CFE7F0812041AE4FD7F40121A74E490FE
:101548000009F0900009E0FFC3940874809480506B
:1015580019740A2FF582E43400F583E0FF7D011247
:101568001A74900009E004F080D9E4FD7F80021A23
:0115780074FE
:101A3F00900009EBF012189A900009E0FF7D010267
:021A4F001A7407
:0E0C9B0090005CEFF0A3EDF0A3EAF0A3EBF005
:100CA90078607C007D017BFF7A1779447E007F059F
:100CB90012041A90005EE0FEA3E0FFC3EE64809484
:100CC900805013A3742DF0C3E49FFFE49E90005E4F
:100CD900F0A3EFF080069000607420F090005EE0D1
:100CE900FEA3E0FFD39463EE648094804057D3EF72
:100CF90094E7EE64809483504C90005EE0FAA3E0A0
:100D0900FB7C007D64120486EF2430900061F07C46
:100D1900007D64AF03AE021204867E007F0ACFCD48
:100D2900CFCECCCE120486EF2430A3F090005EE043
:100D3900FEA3E0FF7C007D0A120486ED24309000BA
:100D490063F0020DD390005EE0FEA3E0FFD39409A7
:100D5900EE648094804044D3EF9463EE6480948081
:100D6900503990005EE0FAA3E0FB7C007D64120438
:100D7900867E007F0ACFCDCFCECCCE120486EF245B
:100D890030900061F07C007D0AAF03AE0212048648
:100D9900ED2430A3F0A37420F0802F90005EE0FED4
:100DA900A3E0FFC3EE64809480401FD3EF9409EE63
:100DB9006480948050147C007D0A120486ED2430EE
:100DC900900061F0A37420F0A3F090005C121895D4
:090DD9007B017A007960021682A8
:0806EA00900014EFF0A3EDF005
:1006F200781A7C007D017BFF7A1779497E007F079B
:1007020012041A900016E0FCA3E0FDA3E0FEA3E0B1
:10071200FFEC335016A3742DF0900016A3A3A3E0B0
:100722001205EF900016120640800690001A7420FF
:10073200F0E47F0F7E27FDFC900016E0F8A3E0F9BD
:10074200A3E0FAA3E0FBD31205FD5003020821E463
:100752007B107A27F9F8900016E0FCA3E0FDA3E0F5
:10076200FEA3E0FF121579EF243090001BF0E47B2A
:10077200107A27F9F8900016E0FCA3E0FDA3E0FE52
:10078200A3E0FF121579AC00AD01AE02AF03E47B2A
:10079200E87A03F9F8121579EF243090001CF0E49E
:1007A2007BE87A03F9F8900016E0FCA3E0FDA3E0F1
:1007B200FEA3E0FF121579AC00AD01AE02AF03E477
:1007C2007B64FAF9F8121579EF243090001DF0E4F9
:1007D2007B64FAF9F8900016E0FCA3E0FDA3E0FECA
:1007E200A3E0FF121579AC00AD01AE02AF03E47BCA
:1007F2000AFAF9F8121579EF243090001EF0E47B22
:100802000AFAF9F8900016E0FCA3E0FDA3E0FEA3CB
:10081200E0FF121579EB243090001FF0020A71E418
:100822007FE77E03FDFC900016E0F8A3E0F9A3E069
:10083200FAA3E0FBD31205FD500302090DE47F0F7A
:100842007E27FDFC900016E0F8A3A3A3E0D31205D7
:10085200FD400302090DE47B107A27F9F890001697
:10086200E0FCA3E0FDA3E0FEA3E0FF121579AC00DB
:10087200AD01AE02AF03E47BE87A03F9F812157911
:10088200EF243090001BF0E47BE87A03F9F8900043
:1008920016E0FCA3E0FDA3E0FEA3E0FF121579AC95
:1008A20000AD01AE02AF03E47B64FAF9F8121579E8
:1008B200EF243090001CF0E47B64FAF9F890001603
:1008C200E0FCA3E0FDA3E0FEA3E0FF121579AC007B
:1008D200AD01AE02AF03E47B0AFAF9F8121579EF23
:1008E200243090001DF0E47B0AFAF9F8900016E03B
:1008F200FCA3E0FDA3E0FEA3E0FF121579EB243098
:1009020090001EF0A37420F0020A71E47F63FEFDE2
:10091200FC900016E0F8A3E0F9A3E0FAA3E0FBD311
:100922001205FD50030209C6E47FE77E03FDFC9039
:100932000016E0F8A3A3A3E0D31205FD40030209C9
:10094200C6E47BE87A03F9F8900016E0FCA3E0FD28
:10095200A3E0FEA3E0FF121579AC00AD01AE02AF39
:1009620003E47B64FAF9F8121579EF243090001B46
:10097200F0E47B64FAF9F8900016E0FCA3E0FDA332
:10098200E0FEA3E0FF121579AC00AD01AE02AF03A9
:10099200E47B0AFAF9F8121579EF243090001CF082
:1009A200E47B0AFAF9F8900016E0FCA3E0FDA3E06C
:1009B200FEA3E0FF121579EB243090001DF0A37422
:1009C20020020A6EE47F09FEFDFC900016E0F8A307
:1009D200E0F9A3E0FAA3E0FBD31205FD4069E47F4E
:1009E20063FEFDFC900016E0F8A3A3A3E0D312057A
:1009F200FD5054E47B64FAF9F8900016E0FCA3E0A1
:100A0200FDA3E0FEA3E0FF121579AC00AD01AE023A
:100A1200AF03E47B0AFAF9F8121579EF243090005B
:100A22001BF0E47B0AFAF9F8900016E0FCA3E0FD63
:100A3200A3E0FEA3E0FF121579EB243090001CF036
:100A4200A37420F0A38025E47B0AFAF9F89000163B
:100A5200E0FCA3E0FDA3E0FEA3E0FF121579EB2486
:100A62003090001BF0A37420F0A3F0A3F0A3F09049
:0E0A720000141218957B017A00791A02168280
:0E149500900014EFF0A3EDF0A3EAF0A3EBF04B
:1014A30078197C007D017BFF7A1779507E007F05D8
:1014B30012041A900016E0FEA3E0FF7C007D641284
:1014C3000486EF243090001AF0900018E0FB7A00B5
:1014D300D3940174809480403D900016E0FEA3E015
:1014E300FF7C007D0A1204867C007D0A120486EDCF
:1014F300243090001BF0D3EB940174809480401649
:10150300900016E0FEA3E0FF7C007D0A120486ED46
:10151300243090001CF09000141218957B017A007F
:05152300791902168297
:080A8000900009EFF0A3EDF076
:100A880090001012064C0000000090000BE0FCA340
:100A9800E0FDA3E0FEA3E0FF1202C99000101206D9
:100AA80040900010E0FCA3E0FDA3E0FEA3E0FF906F
:100AB800001612064090000AE0FD900009E0FF12BF
:100AC80006EA900010E0FCA3E0FDA3E0FEA3E0FF2F
:100AD800EC12028BA804A905AA06AB0790000BE04C
:100AE800FCA3E0FDA3E0FEA3E0FF120006E4FBFA8E
:100AF800797A78441200FB1202C99000101206405D
:100B0800900010E0FCA3E0FDA3E0FEA3E0FFEC33BF
:100B18005010900010A3A3A3E01205EF900010124C
:100B28000640E4FFFEFDFC90000BE0F8A3E0F9A30B
:100B3800E0FAA3E0FB120201501E90000BE0FCA3B8
:100B4800E0FDA3E0FEA3E0FF12027A90000B12067C
:100B5800401218927F2D80051218927F20121BC90F
:100B68007F007E407D1C7C4690000BE0F8A3E0F9F6
:100B7800A3E0FAA3E0FB12020140247F007E507D2F
:100B8800C37C4790000BE0F8A3E0F9A3E0FAA3E0E8
:100B9800FB1202015009900009E02406020C7DE4D2
:100BA800FFFE7D7A7C4490000BE0F8A3E0F9A3E017
:100BB800FAA3E0FB12020140247F007E407D1C7CEA
:100BC8004690000BE0F8A3E0F9A3E0FAA3E0FB12DB
:100BD80002015009900009E02405020C7DE4FFFEA3
:100BE8007DC87C4290000BE0F8A3E0F9A3E0FAA3EB
:100BF800E0FB1202014022E4FFFE7D7A7C44900073
:100C08000BE0F8A3E0F9A3E0FAA3E0FB120201501D
:100C180008900009E02404805CE4FFFE7D207C410C
:100C280090000BE0F8A3E0F9A3E0FAA3E0FB1202BE
:100C3800014022E4FFFE7DC87C4290000BE0F8A34F
:100C4800E0F9A3E0FAA3E0FB1202015008900009C2
:100C5800E024038020E4FFFE7D207C4190000BE02F
:100C6800F8A3E0F9A3E0FAA3E0FB120201502390F5
:100C78000009E02402FF900010A3A3E0FEA3E0FB1C
:100C8800AA0690000FE0900018F090000AE0FD120C
:020C98001495B1
:010C9A002237
:101A510075BA8090FE8074FFF0E4F5BA7F64FE02EF
:021A6100178DDF
:0B163E00900015EBF0A3EAF0A3E9F028
:101649007F03E4FEEFFD3395E0FCD3ED94FFEC64FA
:1016590080947F401B900015E0FBA3E0FAA3E0F91A
:10166900EF3395E08D82F5831204592EFE1F80D445
:02167900AF06BA
:01167B00224C
:05175A00900015EFF006
:10175F00E4A3F0121B177FB8121958900015E0FF81
:10176F00121958121B177FB9121958E4FF1216EEEF
:0D177F00900016EFF0121B23900016E0FF03
:01178C00223A
:0B10DF00900009EBF0A3EAF0A3E9F099
:1010EA0090000F7405F078107C007D017BFF7A1761
:1010FA0079557E00FF12041A90000FE0FFFD339528
:10110A00E0FCD3ED9400EC64809480402C74059F3D
:10111A00FF12175A90000FE0FD3395E0FCC37405E7
:10112A009DFDE49CFC74102DF58274003CF583EF60
:10113A00F090000FE014F080BF7B017A0079101262
:10114A00163E900014E06F60030211D5900011E082
:10115A00FCE41202957BCD7ACC79CC783D1200FB67
:10116A00C004C005C006C007900010E0FCE41202EB
:10117A0095D003D002D001D00012000A900009E0F5
:10118A00FBA3E0FAA3E0F9120626900013E0FCE4C0
:10119A001202957BCD7ACC79CC783D1200FBC00443
:1011AA00C005C006C007900012E0FCE4120295D008
:1011BA0003D002D001D00012000A90000CE0FBA379
:0D11CA00E0FAA3E0F91206267F00227F0163
:0111D70022F5
:1011D800E4900000F0A312064C0000000090000507
:1011E80012064C000000001215FFE4FDFF12189AC9
:1011F8007BFF7A1779251216827D01E4FF12189A6F
:101208007BFF7A17792E121682E4FB7D017F051287
:101218001A3F90000C7401F0A37400F0A37401F05D
:101228007B017A0079051210DF900000EFF070431F
:10123800900005E0FCA3E0FDA3E0FEA3E0FF900022
:101248000B12064090000F7401F0E4FD7F0B120AA8
:1012580080900001E0FCA3E0FDA3E0FEA3E0FF9086
:10126800000B12064090000F7401F0FD7F0B120A6C
:10127800808014E4FD7F0C12189A12167C7D017F81
:101288000C12189A12167C63C8207F907E011217E0
:041298008D02121A97
:1015FF0075BA80800090FE027480F090FE02E05475
:10160F000160F890FE017402F090FE00E4F0E0F04B
:10161F00E054F7F0E4F5BA53C9DF53CADF43C920EA
:0F162F0043CA20121400121AFD121528021A5174
:10000300020335E86480F8E933E83360110460F0F3
:10001300ED33EC337009E8FCE9FDEAFEEBFF220463
:1000230060DED3EB9FEA9EE99DE8C2E78CF0C2F75E
:1000330095F0400CE8CCF8E9CDF9EACEFAEBCFFB2A
:1000430012030085D0F05804700320D5B3E8047080
:10005300075002B2D502033F92D5EC0460F7E4CC1B
:10006300C0E0C398F8603B94186008400DD0E0FBF3
:10007300020317E4FBFAC9FC8028E830E406E4C96C
:10008300FBE4CAFCE830E305E4C9CACBFCE8540747
:100093006010F8C3E913F9EA13FAEB13FBEC13FC52
:1000A300D8F130F52FC3E49CFCEF9BFFEE9AFEEDF5
:1000B30099FDD0E0FBEF4E4D4C701222DB0302039F
:1000C3003CEC2CFCEF33FFEE33FEED33FDED30E77C
:1000D300EB020317EF2BFFEE3AFEED39FDD0E0FB09
:1000E30050130BBB000302033FED13FDEE13FEEFB2
:0800F30013FFEC13FC020317DC
:1000FB00EC4D6011E8497017ED33EC3304600DE4FF
:10010B00FCFFFEFD22E933E8330470F802033512DD
:10011B00030058046009E4CC2481500628500902DE
:10012B00033F28400302033CC0E0EB4A7044B98014
:10013B0006D0E0FB02032BEF4E701CBD8008EBFFDB
:10014B00EAFEE9FD80EBE98DF0A4FEE5F00201E4A7
:10015B00E9CDF9EAFEEBFFEF89F0A4FCE5F0CE89DF
:10016B00F0A42EFFE435F0CD89F0A42DFEE435F09C
:10017B008067EF4E7005BD80D780C3EF8BF0A4ACCA
:10018B00F0EE8BF0A42CFCE435F0F8EF8AF0A42C05
:10019B00E5F038FCE433CB8DF0A42CFCE5F03BF818
:1001AB00EE8AF0A42CFCE5F038F8E433CF89F0A408
:1001BB002CFCE5F038CF3400CE89F0A42FFFE5F00E
:1001CB003EFEE433C98DF0A42EFEE5F039CD8AF066
:1001DB00A42FFFE5F03EFEE43DFD33D0E0FB5007DE
:1001EB000BBB000F02033FEC2CFCEF33FFEE33FE97
:0601FB00ED33FD020317C5
:1002010074F8CC6480CCC86480C8F58204604FC3A4
:10021100EB9FF5F0EA9E42F0E99D42F0E89C45F043
:10022100603C501DE5825FFFE582D313CB5BCBF4CD
:100231002B5582FB50280ABA002409B900200880F6
:100241001DE5825BFBE582D313CF5FCFF4C3132F90
:100251005582FF50090EBE00050DBD00010CC3EB18
:100261009FF5F0EA9E42F0E99D42F0E89C45F0607E
:0902710007CC4820E701B3EC22A0
:10027A00ED33EC33600A047003BD8004ECB2E7FC92
:01028A002251
:10028B0075F020800E75F010800575F0087D007EEE
:10029B00007F003392D530D5031205EFEC334010BD
:1002AB00EF33FFEE33FEED33FDEC33FCD5F0ED22F7
:0E02BB00E5F0247EA2D513CC92E7CDCEFF2233
:1002C900EDD2E7CD33EC3392D524814006E4FFFE2D
:1002D900FDFC22FCE4CFCECDCC24E0501174FF808C
:1002E900EDC3CC13CCCD13CDCE13CECF13CF047029
:0702F900F030D5DE0205EF35
:10030000E9D2E7C933E833F892D5EDD2E7CD33EC43
:0703100033FC5002B2D522BC
:10031700EC30E7100FBF000C0EBE00080DBD000447
:100327000BEB6014A2D5EB13FCED92E7FD2274FFF3
:10033700FCFDFEFF22E480F8A2D574FF13FC7D804C
:03034700E480EF60
:10034A00E709F608DFFA8046E709F208DFFA803E95
:10035A0088828C83E709F0A3DFFA8032E309F60882
:10036A00DFFA8078E309F208DFFA807088828C83EA
:10037A00E309F0A3DFFA806489828A83E0A3F6089E
:10038A00DFFA805889828A83E0A3F208DFFA804C78
:10039A0080D280FA80C680D4806980F2803380104F
:1003AA0080A680EA809A80A880DA80E280CA8033B8
:1003BA0089828A83ECFAE493A3C8C582C8CCC58330
:1003CA00CCF0A3C8C582C8CCC583CCDFE9DEE78000
:1003DA000D89828A83E493A3F608DFF9ECFAA9F07F
:1003EA00EDFB2289828A83ECFAE0A3C8C582C8CCD5
:1003FA00C583CCF0A3C8C582C8CCC583CCDFEADEEE
:10040A00E880DB89828A83E493A3F208DFF980CC4F
:10041A0088F0EF60010E4E60C388F0ED2402B40448
:10042A000050B9F582EB2402B4040050AF232345EF
:06043A00822390039A7377
:10044000BB010689828A83E0225002E722BBFE02BA
:09045000E32289828A83E49322ED
:10045900BB010CE58229F582E5833AF583E0225058
:1004690006E92582F8E622BBFE06E92582F8E222A2
:0D047900E58229F582E5833AF583E49322BC
:10048600C2D5EC30E709B2D5E4C39DFDE49CFCEE91
:1004960030E715B2D5E4C39FFFE49EFE12067DC386
:1004A600E49DFDE49CFC800312067D30D507C3E481
:0604B6009FFFE49EFE2200
:1004BC00A3F8E0C5F025F0F0E582158270021583F3
:0604CC00E0C838F0E82250
:1004D200E88FF0A4CC8BF0A42CFCE98EF0A42CFCC9
:1004E2008AF0EDA42CFCEA8EF0A4CDA8F08BF0A447
:1004F2002DCC3825F0FDE98FF0A42CCD35F0FCEBA6
:100502008EF0A4FEA9F0EB8FF0A4CFC5F02ECD396A
:0F051200FEE43CFCEAA42DCE35F0FDE43CFC22D7
:1005210075F008758200EF2FFFEE33FECD33CDCC91
:1005310033CCC58233C5829BED9AEC99E582984014
:100541000CF582EE9BFEED9AFDEC99FC0FD5F0D6F1
:10055100E4CEFBE4CDFAE4CCF9A88222B800C1B91B
:100561000059BA002DEC8BF084CFCECDFCE5F0CB59
:10057100F97818EF2FFFEE33FEED33FDEC33FCEB92
:1005810033FB10D703994004EB99FB0FD8E5E4F94D
:10059100FA227818EF2FFFEE33FEED33FDEC33FC3A
:1005A100C933C910D7059BE99A4007EC9BFCE99A2E
:1005B100F90FD8E0E4C9FAE4CCFB2275F010EF2F73
:1005C100FFEE33FEED33FDCC33CCC833C810D70773
:1005D1009BEC9AE899400AED9BFDEC9AFCE899F8AE
:0E05E1000FD5F0DAE4CDFBE4CCFAE4C8F92241
:10157900C2D5E830E70FB2D5E4C39BFBE49AFAE49D
:1015890099F9E498F8EC30E717B2D51215AF1205BE
:101599005DE4C39BFBE49AFAE499F9E498F88003C3
:1015A90012055D30D50DE4C39FFFE49EFEE49DFD69
:0415B900E49CFC2290
:0E05EF00C3E49FFFE49EFEE49DFDE49CFC221D
:1005FD00EB9FF5F0EA9E42F0E99D42F0EC6480C875
:06060D0064809845F02214
:10061300E8600FECC313FCED13FDEE13FEEF13FFC5
:03062300D8F122E9
:10062600BB010789828A830206405005E9F8020663
:0A063600D2BBFE05E9F80206DE2241
:0C064000ECF0A3EDF0A3EEF0A3EFF0222D
:10064C00A8828583F0D083D08212066312066312CF
:10065C000663120663E473E493A3C583C5F0C583F4
:10066C00C8C582C8F0A3C583C5F0C583C8C582C8F8
:01067C00225B
:10067D00BC000BBE0029EF8DF084FFADF022E4CC61
:10068D00F875F008EF2FFFEE33FEEC33FCEE9DEC2A
:10069D00984005FCEE9DFE0FD5F0E9E4CEFD22ED70
:1006AD00F8F5F0EE8420D21CFEADF075F008EF2FBA
:1006BD00FFED33FD4007985006D5F0F222C398FDAB
:0506CD000FD5F0EA2248
:0C06D200ECF608EDF608EEF608EFF62254
:0C06DE00ECF208EDF208EEF208EFF22258
:00000001FF
