:03000000020932C0
:0C093200787FE4F6D8FD75810702097992
:100CFB00545844733A2000545844333A2000525805
:100D0B0044733A2000525844333A20003031323386
:100D1B0034353637383921402324255E262A2829B5
:100CCA0041004C0041004B004100450041004400F6
:100CDA0041004E0041004D004100420041004100E8
:100CEA00410047004100460041004A0041004900D6
:0E0D5A007F147E00120D684390027F147E000D
:100D6800AD07AC06E412006B1200A4D3EF9400EEBA
:0D0D78009400400800EF1F70F21E80EF2273
:080BFE00E034FFF07F017E00EE
:100C060090001CEEF0A3EFF0D390001DE09400904E
:100C1600001CE094004015A3E024FFF090001CE0C7
:0D0C260034FFF07FE87E03120D6880DC22B1
:08130E00AF8CEFFEAD8AEDFF8C
:0113160022B4
:08131700AF8DEFFEAD8BEDFF81
:01131F0022AB
:08132000AFD6EFFEADD7EDFFE3
:0113280022A2
:08132900AFD4EFFEADD5EDFFDE
:011331002299
:08133200AFD2EFFEADD3EDFFD9
:01133A002290
:100C3300E4900060F0A3F053BCF0EF42BC120C024E
:100C430043BC40E5BC30E5FB53BCDFAFBDEFFFADBC
:100C5300BEED900060CFF0A3EFF0900060E0FEA344
:020C6300E0FFB0
:010C6500226C
:100E960075C78375C501EFF5C4EEF5C375C65A75FA
:100EA600C6A500ADC2E4F5C7F5C5F5C675C380F5A0
:030EB600C4AF05C1
:010EB9002216
:100EBA0075C78375C502EFF5C4EEF5C3AF058FC2DA
:100ECA0075C65A75C6A500E4F5C7F5C5F5C675C356
:040EDA0080F5C422B9
:1010360075C78375C503EFF5C4EEF5C375C65A7556
:10104600C6A500E4F5C7F5C5F5C675C380F5C42287
:08133B00AFF9EFFEADE9EDFF93
:011343002287
:08134400AFFAEFFEADEAEDFF88
:01134C00227E
:08134D00AFFBEFFEADEBEDFF7D
:011355002275
:08135600AFFCEFFEADECEDFF72
:01135E00226C
:08135F00AFFDEFFEADEDEDFF67
:011367002263
:10119E00AD0753F2FDED548025E0FFEF42F2ED5422
:0411AE003FF5FA22ED
:0E12760053F2FEEF548042F2EF543FF5EA22AD
:1011EE00AD0753F2FDE425E0FFEF42F2ED547FF53B
:0211FE00FA22D3
:0913680053F2FEEF547FF5EA2276
:10123600AD0753F2FDE425E0FFEF42F2EDF5FA22A9
:07138C0053F2FEEFF5EA2227
:100FB200AD07AC0653F2CDEC5403C4F854F0C8E4C8
:100FC200C4540F48FBEC5404C3134B42F2EDF5FA40
:010FD20022FC
:100EDE00AD07AC0653F2F2EC5403FEE47806CEC333
:100EEE0013CE13D8F9FBEC54041313543F4B42F2B8
:040EFE00EDF5EA2202
:1011B200AD0753F3FDED548025E0FFEF42F3ED540C
:0411C2003FF5FB22D8
:0E12840053F3FEEF548042F3EF543FF5EB229C
:10120000AD0753F3FDE425E0FFEF42F3ED547FF526
:02121000FB22BF
:0913710053F3FEEF547FF5EB226B
:10124600AD0753F3FDE425E0FFEF42F3EDF5FB2296
:0713930053F3FEEFF5EB221E
:100FD300AD07AC0653F3CDEC5403C4F854F0C8E4A6
:100FE300C4540F48FBEC5404C3134B42F3EDF5FB1D
:010FF30022DB
:100F0200AD07AC0653F3F2EC5403FEE47806CEC30D
:100F120013CE13D8F9FBEC54041313543F4B42F392
:040F2200EDF5EB22DC
:1011C600AD0753F4FDED548025E0FFEF42F4ED54F6
:0411D6003FF5FC22C3
:0E12920053F4FEEF548042F4EF543FF5EC228B
:10121200AD0753F4FDE425E0FFEF42F4ED547FF512
:02122200FC22AC
:09137A0053F4FEEF547FF5EC2260
:10125600AD0753F4FDE425E0FFEF42F4EDF5FC2283
:07139A0053F4FEEFF5EC2215
:100FF400AD07AC0653F4CDEC5403C4F854F0C8E484
:10100400C4540F48FBEC5404C3134B42F4EDF5FCF9
:0110140022B9
:100F2600AD07AC0653F4F2EC5403FEE47806CEC3E8
:100F360013CE13D8F9FBEC54041313543F4B42F46D
:040F4600EDF5EC22B7
:1011DA00AD0753F5FDED548025E0FFEF42F5ED54E0
:0411EA003FF5FD22AE
:0E12A00053F5FEEF548042F5EF543FF5ED227A
:10122400AD0753F5FDE425E0FFEF42F5ED547FF5FE
:02123400FD2299
:0913830053F5FEEF547FF5ED2255
:10126600AD0753F5FDE425E0FFEF42F5EDF5FD2270
:0713A10053F5FEEFF5ED220C
:10101500AD07AC0653F5CDEC5403C4F854F0C8E461
:10102500C4540F48FBEC5404C3134B42F5EDF5FDD6
:011035002298
:100F4A00AD07AC0653F5F2EC5403FEE47806CEC3C3
:100F5A0013CE13D8F9FBEC54041313543F4B42F548
:040F6A00EDF5ED2292
:040B8D0090FE81F065
:100B91009000627403F0A374E8F090FE82E0544088
:100BA100701CD3900063E09400900062E0940040D8
:100BB1000DA3E024FFF0900062120BFE80DC90FE9A
:050BC10082E054BFF0CA
:010BC600220C
:0C12BC0043BA807401120B8D53BA7F22DC
:0C12C80043BA807406120B8D53BA7F22CB
:1010F60043BA8090FE86EFF090FE817402F0120BE8
:0E1106009190FE817403F0120B9153BA7F2278
:050BC700900064EFF056
:100BCC00E4A3F043BA8090FE817404F0120B919070
:100BDC00FE87E0900065F0900064E0F490FE82F0F7
:100BEC0090FE817405F0120B9153BA7F900065E072
:010BFC00FFF9
:010BFD0022D5
:100B4F00E490005AF0A304F0A3742CF08FCFE5CDFE
:100B5F0020E71CD390005CE0940090005BE09400D1
:100B6F00400DA3E024FFF090005B120BFE80DF43EB
:0D0B7F00CD8043CD4090005AE5CFF0E0FF5F
:010B8C002246
:0606C80090002512033E24
:1006CE0090002F12034A00000000759850E47F043A
:1006DE00FEFDFC900025E0F8A3E0F9A3E0FAA3E00C
:1006EE00FB120200A804A905AA06AB0790002BE096
:1006FE00FCA3E0FDA3E0FEA3E0FF12028B90002F0F
:10070E0012033E90002AE06401701D90002FE0FC61
:10071E00A3E0FDA3E0FEA3E0FFE47B0CFAF9F812E0
:10072E00028B90002F12033E90002FE0F8A3E0F909
:10073E00A3E0FAA3E0FBC3E49BFFE49AFE740199E5
:10074E00FDE498FC90002F12033E900029E07032D9
:10075E00A3E07008538EF3438E048003538EF39000
:10076E00002FA3A3A3E0FF8FD790002FE0FCA3E000
:10077E00FDA3E0FEA3E0FF780812032B8FD6438E75
:10078E00102290002AE0538EBF438E40538FFD53AC
:10079E00890F90002FA3A3A3E0FF8F8B90002FE073
:1007AE00FCA3E0FDA3E0FEA3E0FF780812032B8F6D
:0407BE008D4388409F
:0107C2002214
:0C12D4008F99E598540260FA5398FD22AF
:0613A8005398FEAF9922EC
:0907C300900051EDF0AB07AA060D
:1007CC0090005612034A00000000759A10AE02EB1E
:1007DC007802C333CE33CED8F9FBAA06E4F9F890ED
:1007EC000052E0FCA3E0FDA3E0FEA3E0FF12028BAD
:1007FC0090005612033E900051E06401701D900071
:10080C0056E0FCA3E0FDA3E0FEA3E0FFE47B0CFAC2
:10081C00F9F812028B90005612033E900056E0F845
:10082C00A3E0F9A3E0FAA3E0FBC3E49BFFE49AFE88
:10083C00740199FDE498FC90005612033E9000510F
:10084C00E07008538EF3438E048003538EF39000B4
:10085C0056A3A3A3E0FF8FD7900056E0FCA3E0FDC6
:10086C00A3E0FEA3E0FF780812032B8FD6438E1073
:01087C002259
:0C12E0008F9BE59A540260FA539AFD229D
:0613AE00539AFEAF9B22E2
:0604C60090001712033E36
:1004CC0090002112034A0000000090001BE0441031
:1004DC00F5ACE47F04FEFDFC900017E0F8A3E0F916
:1004EC00A3E0FAA3E0FB120200A804A905AA06AB3C
:1004FC000790001DE0FCA3E0FDA3E0FEA3E0FF12CB
:10050C00028B90002112033E90001CE06401701DD0
:10051C00900021E0FCA3E0FDA3E0FEA3E0FFE47B60
:10052C000CFAF9F812028B90002112033E90002174
:10053C00E0F8A3E0F9A3E0FAA3E0FBC3E49BFFE43B
:10054C009AFE740199FDE498FC90002112033E90F0
:10055C00001BE07032A3E07008538EF3438E0480CE
:10056C0003538EF3900021A3A3A3E0FF8FD7900039
:10057C0021E0FCA3E0FDA3E0FEA3E0FF780812035A
:10058C002B8FD6438E102290001CE0700853D1F8AC
:10059C0043D102800353D1F8900021A3A3A3E0FF21
:1005AC008FD5900021E0FCA3E0FDA3E0FEA3E0FFCB
:0A05BC00780812032B8FD443D108F6
:0105C6002212
:0C12EC008FADE5AC540260FA53ACFD225B
:0613B40053ACFEAFAD22B8
:0605C70090003312033E18
:1005CD0090003D12034A00000000900037E04410F7
:1005DD00F584E47F04FEFDFC900033E0F8A3E0F920
:1005ED00A3E0FAA3E0FB120200A804A905AA06AB3A
:1005FD0007900039E0FCA3E0FDA3E0FEA3E0FF12AD
:10060D00028B90003D12033E900038E06401701D96
:10061D0090003DE0FCA3E0FDA3E0FEA3E0FFE47B42
:10062D000CFAF9F812028B90003D12033E90003D3A
:10063D00E0F8A3E0F9A3E0FAA3E0FBC3E49BFFE439
:10064D009AFE740199FDE498FC90003D12033E90D2
:10065D000037E07032A3E07008538EF3438E0480B0
:10066D0003538EF390003DA3A3A3E0FF8FD790001B
:10067D003DE0FCA3E0FDA3E0FEA3E0FF780812033C
:10068D002B8FD6438E1022900038E0700853D18FF7
:10069D0043D120800353D18F90003DA3A3A3E0FF4E
:1006AD008FD390003DE0FCA3E0FDA3E0FEA3E0FFAF
:0A06BD00780812032B8FD243D1807E
:0106C7002210
:0C12F8008F85E584540260FA5384FD22C7
:0613BA005384FEAF852202
:100D8500AB07AA06538E7F438E80538FFE5389F09F
:100D9500438901E4F58AF58C43881012130EC3EBE1
:090DA5009FEA9E50F65388EF22EC
:100DFE00AB07AA06538E7F538FFE5389F0438901AA
:100E0E00E4F58AF58C43881012130EC3EB9FEA9E0D
:060E1E0050F65388EF229C
:100DAE00AB07AA06538EBF438E40538FFD53890F58
:100DBE00438910E4F58BF58D438840121317C3EB6E
:090DCE009FEA9E50F65388BF22F3
:100E2400AB07AA06538EBF538FFD53890F43891016
:100E3400E4F58BF58D438840121317C3EB9FEA9EAC
:060E440050F65388BF22A6
:10105600AB07AA06538EF3438E04E4F5D7F5D643C1
:101066008E10121320C3EB9FEA9E50F6538EEF228A
:10111400AB07AA06538EF3E4F5D7F5D6438E101227
:0D1124001320C3EB9FEA9E50F6538EEF227E
:10107600AB07AA0653D1F843D102E4F5D5F5D4431C
:10108600D108121329C3EB9FEA9E50F653D1F722DB
:10113100AB07AA0653D1F8E4F5D5F5D443D108128B
:0D1141001329C3EB9FEA9E50F653D1F7220D
:10109600AB07AA0653D18F43D120E4F5D3F5D2434B
:1010A600D180121332C3EB9FEA9E50F653D17F22B2
:10114E00AB07AA0653D18FE4F5D3F5D243D1801263
:0D115E001332C3EB9FEA9E50F653D17F225F
:100E4A005391FE5392FE5391FE4392015391FD53E7
:100E5A0092FD5391FD4392027F0A7E00120C0643D3
:060E6A00900143900222FA
:100DD7005391FE5392FE5391FE4392014390014378
:100DE70090027F287E00120D685390FE7F287E00B8
:070DF700120D685390FD226C
:100E70005391FE5392FE5391FE4392015390FE53C1
:100E800090FD7F287E00120D684390014390027F01
:060E9000287E00020D683F
:0500030090005DEFF02C
:10000800A37408F0E4A3F05391FE5392FE439101C8
:100018005392FE90005EE0D3940074809480402553
:100028005390FD120D5A90005FE025E0F0E59054E2
:10003800016003E004F07F0A7E00120D6890005E04
:10004800E014F080CE90005DE00470047FFF800231
:0A005800E4FF120F6E90005FE0FF5E
:01006200227B
:050A150090001DEFF050
:100A1A00A37408F05391FE5392FE5391FE43920140
:100A2A005390FD90001EE0D3940074809480402F70
:100A3A0090001DE0FF5480C4131313540160054352
:100A4A00900180035390FEEF25E090001DF0120DF7
:0F0A5A005A5390FD120D6490001EE014F080C4FA
:010A6900226A
:100F6E005390FD5391FE5392FE5391FE439201EF27
:100F7E000470055390FE8003439001120D5A539056
:020F8E00FD2242
:1009BE00E4900066F0A3F05391FE5392FE43910132
:1009CE005392FE4390017F0AFE120D684390027F00
:1009DE000A7E00120D68E59054016025900067E0D4
:1009EE0004F07006900066E004F0D3900067E09487
:1009FE00E8900066E06480948340DB120E707F0105
:060A0E00225390FD7F0061
:010A140022BF
:0A130400120E4A7F0A7E00020C065A
:1010B600E4900068F0120DD77F4F120A15E4FF1274
:0F10C6000003900068EFF0120E70900068E0FFDA
:0110D50022F8
:0D0D2B0054F0FE900043E0540FF04EFFF036
:100D380090001CEFF0120DD77F4E120A157FFF129C
:100D48000F6E90001CE0FF120A157FFF120F6E0253
:020D58000E701B
:100B04001213047F0A7E00120C069000487401F050
:100B14009000437404F0FF120D387F0A7E00120C1B
:100B240006E4FD7F33120AB8E4FD7F32120AB8E40A
:100B3400FD7F28120AB8E4FD7F0C120AB8E4FD7F99
:0B0B440001120AB8E4FD7F06020AB8A7
:1010D600900043E04404FFF0120D38120C02900019
:1010E60043E054F9FFF0120D387F017E00020C0632
:100AB80090001AEFF0ED14600C047010900043E001
:100AC80054F4F08007900043E04401F0900048E0BF
:100AD800600C147010900043E04408F08007900008
:100AE80043E054F7F0900043E0FF120D3890001AED
:0C0AF800E0FF1211857F017E00020C0659
:0511850090001BEFF0DB
:10118A00EF120D2B1210D690001BE0540FC4120D53
:04119A002B0210D63E
:100C6600900017EBF0A3EAF0A3E9F0900017E0FB81
:100C7600A3E475F0011201EAA9F0FA1201D1FF12FC
:100C86000F90900017E0FBA3E0FAA3E0F91201D160
:030C960070D922F0
:100F9000EFFD3395E0FCC3ED9420EC648094804039
:100FA00010D3ED947FEC6480948050057D01120A8B
:020FB000B82265
:0E12AE00E4FD7F01120AB8E4FD7F02020AB8D7
:10116B00900017EFF0ED7005E044808006900017BB
:0A117B00E044C0FFE4FD120AB822B0
:100C9900E490004CF090004BF090004EF090004D25
:100CA900F090004704F0E4900046F0538EF3438E31
:100CB9000475D75F75D6FE438E1043AF0443A880F1
:010CC9002208
:0300630002087D13
:10087D00C0E0C083C082C0D075D000C00790004BCF
:10088D00E06401703790004DE014F070447403F093
:10089D00900044E014F07014900041E0900049F095
:1008AD0090004BE4F090004604F08025900041E06C
:1008BD00C313F030961BE04480F080152096129003
:1008CD00004B7401F090004D7404F09000447409D5
:1008DD00F090004EE014F070417403F090004CE085
:1008ED0064017036900045E07012C29790004AE0A6
:1008FD00900042F09000457409F0801E900042E097
:10090D00C313F0900045E014F0700DD29790004C99
:10091D00F090004704F080029297D007D0D0D0829B
:05092D00D083D0E03290
:10037B0078007C007D017BFF7A0D79177E007F0A68
:10038B001201AB780A7C007D017BFF7A0D79217E0F
:10039B00007F0A1201ABE4900014F0A3F0A3F0125B
:1003AB000A6AE4FDFF12116B7BFF7A0C79FB120CCE
:1003BB0066E4FD7F0A12116B7BFF7A0D7902120C3A
:1003CB00667D01E4FF12116B7BFF7A0D7909120C2C
:1003DB00667D017F0A12116B7BFF7A0D7910120C6F
:1003EB0066E4900014F0900014E0FFFD3395E0FC00
:1003FB00C3ED940AEC6480948050E6900047E0646F
:10040B0001701BF0EF3395E0FE74002FF582740042
:10041B003EF583E090004AF090004C7401F09000A0
:10042B0014E0FF3395E0FE740A2FF58274003EF55D
:10043B0083E0FF1212ECE4FD7F0512116B900014A8
:10044B00E0FF3395E0FE74002FF58274003EF583D8
:10045B00E0FF120F90E4FD7F0F12116B900014E080
:10046B00FF3395E0FE740A2FF58274003EF583E0AE
:10047B00FF120F90900046E064017009F090004964
:10048B00E0900015F01213B4900016EFF07D017F91
:10049B000512116B900015E0FF120F907D017F0F7D
:1004AB0012116B900016E0FF120F907F847E0312E7
:0B04BB000C06900014E004F00203F1B6
:100A6A0043BA80800090FE027480F090FE02E05447
:100A7A000160F890FE017402F090FE00E4F0E04498
:100A8A0010F0E054F7F053BA7F90001B7440F0E482
:100A9A00A3F0A312034A00B71B007F807E257D00C6
:0E0AAA007C001204C6120B041212AE020C994C
:1000660075F020800E75F010800575F0087D007E15
:10007600007F003392D530D50312031DEC334010B8
:10008600EF33FFEE33FEED33FDEC33FCD5F0ED221E
:0E009600E5F0247EA2D513CC92E7CDCEFF225A
:1000A400EDD2E7CD33EC3392D524814006E4FFFE54
:1000B400FDFC22FCE4CFCECDCC24E0501174FF80B3
:1000C400EDC3CC13CCCD13CDCE13CECF13CF047050
:0700D400F030D5DE02031D30
:10093E0002037BE493A3F8E493A34003F68001F251
:10094E0008DFF48029E493A3F85407240CC8C333BA
:10095E00C4540F4420C8834004F456800146F6DF89
:10096E00E4800B0102040810204080900CCAE47E43
:10097E00019360BCA3FF543F30E509541FFEE4937E
:10098E00A360010ECF54C025E060A840B8E493A345
:10099E00FAE493A3F8E493A3C8C582C8CAC583CA70
:1009AE00F0A3C8C582C8CAC583CADFE9DEE780BE28
:010CFA0000F9
:1000DB00E709F608DFFA8046E709F208DFFA803E07
:1000EB0088828C83E709F0A3DFFA8032E309F608F4
:1000FB00DFFA8078E309F208DFFA807088828C835C
:10010B00E309F0A3DFFA806489828A83E0A3F6080F
:10011B00DFFA805889828A83E0A3F208DFFA804CE9
:10012B0080D280FA80C680D4806980F280338010C0
:10013B0080A680EA809A80A880DA80E280CA803329
:10014B0089828A83ECFAE493A3C8C582C8CCC583A1
:10015B00CCF0A3C8C582C8CCC583CCDFE9DEE78071
:10016B000D89828A83E493A3F608DFF9ECFAA9F0F0
:10017B00EDFB2289828A83ECFAE0A3C8C582C8CC46
:10018B00C583CCF0A3C8C582C8CCC583CCDFEADE5F
:10019B00E880DB89828A83E493A3F208DFF980CCC1
:1001AB0088F0EF60010E4E60C388F0ED2402B404BA
:1001BB000050B9F582EB2402B4040050AF23234561
:0601CB00822390012B735A
:1001D100BB010689828A83E0225002E722BBFE022C
:0901E100E32289828A83E493225F
:1001EA00A3F8E0C5F025F0F0E582158270021583C8
:0601FA00E0C838F0E82225
:10020000E88FF0A4CC8BF0A42CFCE98EF0A42CFC9D
:100210008AF0EDA42CFCEA8EF0A4CDA8F08BF0A41B
:100220002DCC3825F0FDE98FF0A42CCD35F0FCEB7A
:100230008EF0A4FEA9F0EB8FF0A4CFC5F02ECD393F
:0F024000FEE43CFCEAA42DCE35F0FDE43CFC22AC
:10024F0075F008758200EF2FFFEE33FECD33CDCC66
:10025F0033CCC58233C5829BED9AEC99E5829840E9
:10026F000CF582EE9BFEED9AFDEC99FC0FD5F0D6C6
:10027F00E4CEFBE4CDFAE4CCF9A88222B800C1B9F0
:10028F000059BA002DEC8BF084CFCECDFCE5F0CB2E
:10029F00F97818EF2FFFEE33FEED33FDEC33FCEB67
:1002AF0033FB10D703994004EB99FB0FD8E5E4F922
:1002BF00FA227818EF2FFFEE33FEED33FDEC33FC0F
:1002CF00C933C910D7059BE99A4007EC9BFCE99A03
:1002DF00F90FD8E0E4C9FAE4CCFB2275F010EF2F48
:1002EF00FFEE33FEED33FDCC33CCC833C810D70748
:1002FF009BEC9AE899400AED9BFDEC9AFCE899F883
:0E030F000FD5F0DAE4CDFBE4CCFAE4C8F92215
:0E031D00C3E49FFFE49EFEE49DFDE49CFC22F1
:10032B00E8600FECC313FCED13FDEE13FEEF13FFB0
:03033B00D8F122D4
:0C033E00ECF0A3EDF0A3EEF0A3EFF02232
:10034A00A8828583F0D083D08212036112036112DE
:10035A000361120361E473E493A3C583C5F0C58303
:10036A00C8C582C8F0A3C583C5F0C583C8C582C8FD
:01037A002260
:00000001FF
