:03000000020A2AC7
:0C0A2A00787FE4F6D8FD75815D020A714A
:100E46004D4F4E00545545005745440054485200F6
:100E5600465249005341540053554E00202020006D
:090E6600414D00504D0020200018
:100EDF00014C0101500A014D0A014B0A0145010164
:100EEF004601014400014A00014701024E00000281
:030EFF004807D0D1
:100FA600AD07AC06E41200A31200DCD3EF9400EE0A
:0D0FB6009400400800EF1F70F21E80EF2233
:040E96007FC87E0093
:100E9A008E188F19D3E5199400E51894004011E5CE
:100EAA00191519700215187FE87E03120FA680E43F
:010EBA002215
:08113800AF8CEFFEAD8AEDFF64
:01114000228C
:08114100AF8DEFFEAD8BEDFF59
:011149002283
:08114A00AFD6EFFEADD7EDFFBB
:01115200227A
:08115300AFD4EFFEADD5EDFFB6
:01115B002271
:08115C00AFD2EFFEADD3EDFFB1
:011164002268
:100D4600E4F55CF55D53BCF0EF42BC7F017E00121A
:100D56000E9A43BC40E5BC30E5FB53BCDFAFBDEFAC
:0A0D6600ADBEF55CEDF55DAE5CFF7F
:010D70002260
:100EBB0075C78375C501EFF5C4EEF5C375C65A75D5
:100ECB00C6A500ADC2E4F5C7F5C5F5C675C380F57B
:030EDB00C4AF059C
:010EDE0022F1
:100F260075C78375C502EFF5C4EEF5C38DC275C6E8
:100F36005A75C6A500E4F5C7F5C5F5C675C380F5AF
:020F4600C422C3
:100F480075C78375C503EFF5C4EEF5C375C65A7545
:100F5800C6A500E4F5C7F5C5F5C675C380F5C42276
:08116500AFF9EFFEADE9EDFF6B
:01116D00225F
:08116E00AFFAEFFEADEAEDFF60
:011176002256
:08117700AFFBEFFEADEBEDFF55
:01117F00224D
:08118000AFFCEFFEADECEDFF4A
:011188002244
:08118900AFFDEFFEADEDEDFF3F
:01119100223B
:10102000AD0753F2FDE425E0FFEF42F2ED543FF54A
:02103000FA22A2
:0911920053F2FEEF543FF5EA228E
:10103200AD0753F2FDE425E0FFEF42F2ED547FF5F8
:02104200FA2290
:09119B0053F2FEEF547FF5EA2245
:1010D200AD0753F2FDE425E0FFEF42F2EDF5FA220F
:0711DA0053F2FEEFF5EA22DB
:100C6600AD07AC0653F2CDE425E0FFEF42F2EC54BB
:100C760002FEE47805C333CE33CED8F942F2E4C49B
:0D0C8600F8540FC868FFEF42F2EDF5FA22B6
:100D7100AD07AC0653F2F2EC5402FEE47803C33340
:100D8100CE33CED8F942F2EC5401FEE47802C333FB
:0B0D9100CE33CED8F942F2EDF5EA2295
:10104400AD0753F3FDE425E0FFEF42F3ED543FF524
:02105400FB227D
:0911A40053F3FEEF543FF5EB227A
:10105600AD0753F3FDE425E0FFEF42F3ED547FF5D2
:02106600FB226B
:0911AD0053F3FEEF547FF5EB2231
:1010E200AD0753F3FDE425E0FFEF42F3EDF5FB22FC
:0711E10053F3FEEFF5EB22D2
:100C9300AD07AC0653F3CDE425E0FFEF42F3EC548C
:100CA30002FEE47805C333CE33CED8F942F3E4C46D
:0D0CB300F8540FC868FFEF42F3EDF5FB2287
:100D9C00AD07AC0653F3F2EC5402FEE47803C33314
:100DAC00CE33CED8F942F3EC5401FEE47802C333CF
:0B0DBC00CE33CED8F942F3EDF5EB2268
:10106800AD0753F4FDE425E0FFEF42F4ED543FF5FE
:02107800FC2258
:0911B60053F4FEEF543FF5EC2266
:10107A00AD0753F4FDE425E0FFEF42F4ED547FF5AC
:02108A00FC2246
:0911BF0053F4FEEF547FF5EC221D
:1010F200AD0753F4FDE425E0FFEF42F4EDF5FC22E9
:0711E80053F4FEEFF5EC22C9
:100CC000AD07AC0653F4CDE425E0FFEF42F4EC545D
:100CD00002FEE47805C333CE33CED8F942F4E4C43F
:0D0CE000F8540FC868FFEF42F4EDF5FC2258
:100DC700AD07AC0653F4F2EC5402FEE47803C333E8
:100DD700CE33CED8F942F4EC5401FEE47802C333A3
:0B0DE700CE33CED8F942F4EDF5EC223B
:10108C00AD0753F5FDE425E0FFEF42F5ED543FF5D8
:02109C00FD2233
:0911C80053F5FEEF543FF5ED2252
:10109E00AD0753F5FDE425E0FFEF42F5ED547FF586
:0210AE00FD2221
:0911D10053F5FEEF547FF5ED2209
:10110200AD0753F5FDE425E0FFEF42F5EDF5FD22D5
:0711EF0053F5FEEFF5ED22C0
:100CED00AD07AC0653F5CDE425E0FFEF42F5EC542E
:100CFD0002FEE47805C333CE33CED8F942F5E4C411
:0D0D0D00F8540FC868FFEF42F5EDF5FD2228
:100DF200AD07AC0653F5F2EC5402FEE47803C333BC
:100E0200CE33CED8F942F5EC5401FEE47802C33376
:0B0E1200CE33CED8F942F5EDF5ED220D
:040FE00090FE81F00E
:100FE40075BA8090FE82E030E6F9E054BFF0E4F593
:020FF400BA221F
:0C11200075BA807401120FE0E4F5BA22E9
:0C112C0075BA807406120FE0E4F5BA22D8
:100F880075BA8090FE86EFF090FE817402F0120F21
:0E0F9800E490FE817403F0120FE4E4F5BA2237
:100E6F00E4FE75BA8090FE817404F0120FE490FED8
:100E7F0087E0FE90FE82EFF090FE817405F0120F76
:060E8F00E4E4F5BAAF0631
:010E9500223A
:1010B000E4FE8FCFE5CD30E7FBAECF75CD80AF0638
:0110C000220D
:08078C008F1D8E1C8D1B8C1AC1
:10079400E4F527F526F525F5247598507F04FEFD2C
:1007A400FCAB1DAA1CA91BA81A120193A804A90535
:1007B400AA06AB07AF23AE22AD21AC2012021E8FD6
:1007C400278E268D258C24E51F640170107B0CFA7E
:1007D400F9F812021E8F278E268D258C24C3E495EA
:1007E40027F527E49526F52674019525F525E49546
:1007F40024F524E51E7028E51F7008538EF3438EFC
:10080400048003538EF3E527FFE48FD7AF27AE268A
:10081400AD25AC2478081202BE8FD6438E1022E593
:100824001F538EBF438E40538FFD53890FE527FF1F
:10083400E48F8BAF27AE26AD25AC2478081202BE18
:050844008F8D43884088
:01084900228C
:030098008F99221B
:0311FB00AF992287
:060AB6008D53AB07AA06F8
:100ABC00E4F55BF55AF559F558759A10AE02EB78DA
:100ACC0002C333CE33CED8F9FBAA06E4F9F8AF57FC
:100ADC00AE56AD55AC5412021E8F5B8E5A8D598C8E
:100AEC0058E553640170107B0CFAF9F812021E8F52
:100AFC005B8E5A8D598C58C3E4955BF55BE4955A23
:100B0C00F55A74019559F559E49558F558E5537013
:100B1C0008538EF3438E048003538EF3E55BFFE49E
:100B2C008FD7AF5BAE5AAD59AC5878081202BE8F56
:040B3C00D6438E10FE
:010B40002292
:0311FE008F9B22A2
:03120100AF9B227E
:080606008F2B8E2A8D298C2810
:10060E00E4F535F534F533F532E52C4410F5ACE46C
:10061E007F04FEFDFCAB2BAA2AA929A82812019360
:10062E00A804A905AA06AB07AF31AE30AD2FAC2E8C
:10063E0012021E8F358E348D338C32E52D6401708F
:10064E00107B0CFAF9F812021E8F358E348D338C16
:10065E0032C3E49535F535E49534F53474019533AC
:10066E00F533E49532F532E52C7028E52D700853FC
:10067E008EF3438E048003538EF3E535FFE48FD75C
:10068E00AF35AE34AD33AC3278081202BE8FD643DE
:10069E008E1022E52D700853D1F843D102800353FA
:1006AE00D1F8E535FFE48FD5AF35AE34AD33AC328E
:0A06BE0078081202BE8FD443D10861
:0106C800220F
:031204008FAD2289
:03120700AFAD2266
:0806C9008F398E388D378C3615
:1006D100E4F543F542F541F540E53A4410F584E48B
:1006E1007F04FEFDFCAB39AA38A937A83612019365
:1006F100A804A905AA06AB07AF3FAE3EAD3DAC3C91
:1007010012021E8F438E428D418C40E53B64017085
:10071100107B0CFAF9F812021E8F438E428D418C28
:1007210040C3E49543F543E49542F5427401954194
:10073100F541E49540F540E53A7028E53B700853F2
:100741008EF3438E048003538EF3E543FFE48FD78A
:10075100AF43AE42AD41AC4078081202BE8FD643E2
:100761008E1022E53B700853D18F43D12080035373
:10077100D18FE543FFE48FD3AF43AE42AD41AC40EF
:0A07810078081202BE8FD243D18027
:01078B00224B
:03120A008F8522AB
:03120D00AF852288
:100003007F0A7E00120E9A53B1DF53B2DF53B1DF82
:1000130043B22053B1BF53B2BF53B1BF43B24053F6
:10002300B17F53B27F53B17F43B2805393EF539465
:10003300EF5393EF4394105393DF5394DF5393DFC2
:100043004394205393BF5394BF5393BF439440535C
:10005300937F53947F53937F43948053B0BF53B0A4
:10006300DF7F0A7E00120E9A12100CE4FD7F33121A
:1000730010C1E4FD7F321210C1E4FD7F281210C1CC
:10008300E4FD7F0C1210C1E4FD7F011210C1E4FDF9
:050093007F060210C110
:1010C100ED600814700843B020800353B0DF0208BC
:0110D100FD21
:0208FD008F1753
:1008FF00E5175480C41313135401147005438080FB
:10090F00800353807FE5175440C4131354031470AE
:10091F000543804080035380BFE5175420C4135410
:10092F000714700543802080035380DFE5175410B0
:10093F00C4540FFF14700543801080035380EF12CF
:10094F00100CE5175408131313541F14700543802C
:10095F0080800353807FE51754041313543F1470A2
:10096F000543804080035380BFE5175402C313141F
:10097F00700543802080035380DFE5175401FF1477
:0D098F00700543801080035380EF02100CB0
:100E1D008B148A158916AB140516E516AA157002E2
:100E2D00051514F9120113FF7D011210C1AB14AA9F
:090E3D0015A91612011370DE2242
:0511F6007D010210C1A3
:0E111200E4FD7F011210C1E4FD7F020210C156
:100FF6008F16ED7006E51644808004E51644C0FFA2
:06100600E4FD1210C122FE
:10100C0043B0807F027E00120E9A53B07F7F027E27
:04101C0000020E9A26
:03009B0002049DBF
:10049D00C0E0C0F0C0D075D000C000C004C005C021
:1004AD0006C007054FE54F7002054ED394E7E54EA4
:1004BD009403400E0550754E00754F006344016363
:1004CD00C810D3E550943B7480948050030205F21C
:1004DD00755000054BD3E54B943B748094805003CD
:1004ED000205F2754B00054DD3E54D940C748094C7
:1004FD00804003754D01E54D640C60030205F2E586
:10050D004B60030205F2E55060030205F2634701FB
:10051D00E547640170040545054CD3E54C9407741B
:10052D008094804003754C01AF46EF6401601EEF6F
:10053D0064036019EF64056014EF6407600FEF64E6
:10054D0008600AEF640A6005EF640C700DD3E54591
:10055D00941F7480948040778070AF46EF64046080
:10056D000FEF6406600AEF64096005EF640B700D10
:10057D00D3E545941E748094804054804DE54954D4
:10058D00037024AE48AF49FC7D6412013EED4C7002
:10059D0011AE48AF497C017D9012013EED4C7007C4
:1005AD008000754A018003754A00E54A600DD3E568
:1005BD0045941D748094804002800FE54A7010D3DD
:1005CD00E545941C7480948040057545010546D31E
:1005DD00E546940C74809480400B7546010549E501
:1005ED00497002054853EFFDD007D006D005D00461
:0905FD00D000D0D0D0F0D0E032E3
:100FC300120B41120F03EF6404700D120F03EF6451
:0D0FD3000460F81202D180EB12099C80E648
:100B410075BA80800090FE027480F090FE02E0543D
:100B51000160F890FE017402F090FE00E4F0E0F014
:100B6100E054F7F0E4F5BA5391FE5392FE4391013C
:100B71005392FE5391FD5392FD4391025392FD53C3
:100B810091FB5392FB4391045392FB5391F7539280
:100B9100F74391085392F753C9EF53CAEF53C9EF83
:100BA10043CA1012000312111253D1F875D51775EB
:0C0BB100D4FC43D10843AF2043A88022AD
:100D1A008F138D148B15120FF6E51575F00A8424BE
:100D2A0030FF1211F6E51304FFAD14120FF6E515A4
:0C0D3A0075F00A84E5F02430FF0211F689
:080C33008F088D098A0A8B0B62
:100C3B00E4AE0AAF0BFC7D6412013EAB07AD09AF0E
:100C4B0008120D1AAE0AAF0B7C007D6412013EAB8D
:0B0C5B0005E5082402FFAD09020D1A98
:10099C00AB4DE4FD7F02120D1AAB4BE4FD7F05124B
:1009AC000D1AAB50E4FD7F08120D1AE544147017B4
:1009BC00E4FD7F04120FF67F3A1211F6E4FD7F0777
:1009CC00120FF67F3A8015E4FD7F04120FF67F209C
:1009DC001211F6E4FD7F07120FF67F201211F6AF0D
:1009EC0047120F68AF4C120BBDAB457D017F061251
:1009FC000D1A7D017F08120FF67F2E1211F6AB46F1
:100A0C007D017F09120D1A7D017F0B120FF67F2ECF
:0E0A1C001211F6AB49AA487D017F0C020C3383
:100BBD008F137D01E4FF120FF6E51314B4070050F7
:100BCD005B900BDC75F003A4C58325F0C583730220
:100BDD000BF1020BF9020C01020C09020C11020CB3
:100BED0019020C217BFF7A0E794680367BFF7A0E37
:100BFD00794A802E7BFF7A0E794E80267BFF7A0E06
:100C0D007952801E7BFF7A0E795680167BFF7A0E05
:100C1D00795A800E7BFF7A0E795E80067BFF7A0E05
:060C2D007962120E1D2287
:100F68008F13E4FD7F0C120FF6E5131470087BFF56
:100F78007A0E796680067BFF7A0E7969120E1D2239
:100F0300E59020E0037F0122E59020E1037F0222A8
:100F1300E59020E2037F0322E59020E3037F042290
:030F23007F00222A
:06084A008F0C8D0D8B0EDA
:10085000E4F5126312017F5A7E00120E9A120F0302
:10086000EF64027002050EAD0EED3395E0FCD3EDA2
:10087000950F7480F86C98400385100E120F03EFEB
:1008800064037002150EAD0EED3395E0FCC3ED95DB
:10089000107480F86C985003850F0EE51124FE60EB
:1008A00019047034E51214700BAB0EAD0DAF0C12C1
:1008B0000D1A8032AD0DAF0C8010E512147007AF29
:1008C0000E120F688020E4FD7F0C120FF67BFF7A7A
:1008D0000E796C120E1D800EE512147004AF0E809E
:1008E00002E4FF120BBD120F03EF64016003020864
:0C08F00053E51264016003020853AF0ED0
:0108FC0022D9
:1002D100E4F508F509F50AF50B53D1F753AFDFAE95
:1002E10048AF49FC7D6412013E8E088F09AE48AFCC
:1002F100497C007D6412013E8C0A8D0B750F0C75D3
:100301001001751101AB4DE4FD7F0212084A8F4DBA
:10031100120E96750F3BE4F510751101AB4BFD7F85
:100321000512084A8F4B120E96750F3BE4F51075B6
:100331001101AB50FD7F0812084A8F50120E9675BD
:100341000F01E4F510751102AB47FD7F0C12084A4D
:100351008F47120E96750F07751001E4F511AB4C1E
:100361007D01FF12084A8F4C120E96750F1F7510F2
:1003710001751101AB457D017F0612084A8F4512B7
:100381000E96750F0C751001751101AB467D017F3D
:100391000912084A8F46120E96AB09750F63E4F5F0
:1003A100107511017D017F0C12084A7508008F0933
:1003B100120E96AB0B750F63E4F5107511017D01FB
:1003C1007F0E12084A750A008F0B120E96AE08AF07
:1003D100097C007D6412012CE50B2FF549E50A3EED
:1003E100F548AF46EF6401601EEF64036019EF64E6
:1003F100056014EF6407600FEF6408600AEF640A98
:100401006005EF640C700DD3E545941F74809480F2
:1004110040758070AF46EF6404600FEF6406600AB8
:10042100EF64096005EF640B700DD3E545941E740C
:100431008094804052804DE54954037024AE48AF0A
:1004410049FC7D6412013EED4C7011AE48AF497C10
:10045100017D9012013EED4C70078000754A0180CC
:1004610003E4F54AE54A600DD3E545941D74809493
:10047100804002800FE54A700ED3E545941C7480DC
:1004810094804003754501E4F54EF54F53D1F8755D
:0B049100D51775D4FC43D10843AF2001
:01049C00223D
:10009E0075F020800E75F010800575F0087D007EDD
:1000AE00007F003392D530D5031202B0EC334010EE
:1000BE00EF33FFEE33FEED33FDEC33FCD5F0ED22E6
:0E00CE00E5F0247EA2D513CC92E7CDCEFF2222
:1000DC00EDD2E7CD33EC3392D524814006E4FFFE1C
:1000EC00FDFC22FCE4CFCECDCC24E0501174FF807B
:1000FC00EDC3CC13CCCD13CDCE13CECF13CF047018
:07010C00F030D5DE0202B065
:100A3600020FC3E493A3F8E493A34003F68001F204
:100A460008DFF48029E493A3F85407240CC8C333C1
:100A5600C4540F4420C8834004F456800146F6DF90
:100A6600E4800B0102040810204080900EDFE47E33
:100A7600019360BCA3FF543F30E509541FFEE49385
:100A8600A360010ECF54C025E060A840B8E493A34C
:100A9600FAE493A3F8E493A3C8C582C8CAC583CA77
:100AA600F0A3C8C582C8CAC583CADFE9DEE780BE2F
:010F020000EE
:10011300BB010689828A83E0225002E722BBFE02EA
:09012300E32289828A83E493221D
:10012C00EF8DF0A4A8F0CF8CF0A428CE8DF0A42EE7
:02013C00FE22A1
:10013E00BC000BBE0029EF8DF084FFADF022E4CCA5
:10014E00F875F008EF2FFFEE33FEEC33FCEE9DEC6E
:10015E00984005FCEE9DFE0FD5F0E9E4CEFD22EDB4
:10016E00F8F5F0EE8420D21CFEADF075F008EF2FFE
:10017E00FFED33FD4007985006D5F0F222C398FDEF
:05018E000FD5F0EA228C
:10019300E88FF0A4CC8BF0A42CFCE98EF0A42CFC0B
:1001A3008AF0EDA42CFCEA8EF0A4CDA8F08BF0A489
:1001B3002DCC3825F0FDE98FF0A42CCD35F0FCEBE8
:1001C3008EF0A4FEA9F0EB8FF0A4CFC5F02ECD39AD
:0F01D300FEE43CFCEAA42DCE35F0FDE43CFC221A
:1001E20075F008758200EF2FFFEE33FECD33CDCCD4
:1001F20033CCC58233C5829BED9AEC99E582984057
:100202000CF582EE9BFEED9AFDEC99FC0FD5F0D633
:10021200E4CEFBE4CDFAE4CCF9A88222B800C1B95D
:100222000059BA002DEC8BF084CFCECDFCE5F0CB9B
:10023200F97818EF2FFFEE33FEED33FDEC33FCEBD4
:1002420033FB10D703994004EB99FB0FD8E5E4F98F
:10025200FA227818EF2FFFEE33FEED33FDEC33FC7C
:10026200C933C910D7059BE99A4007EC9BFCE99A70
:10027200F90FD8E0E4C9FAE4CCFB2275F010EF2FB5
:10028200FFEE33FEED33FDCC33CCC833C810D707B5
:100292009BEC9AE899400AED9BFDEC9AFCE899F8F0
:0E02A2000FD5F0DAE4CDFBE4CCFAE4C8F92283
:0E02B000C3E49FFFE49EFEE49DFDE49CFC225F
:1002BE00E8600FECC313FCED13FDEE13FEEF13FF1E
:0302CE00D8F12242
:00000001FF
