:0300000002086B88
:0C086B00787FE4F6D8FD75814702073F56
:10072200AD07AC06E4120008120041D3EF9400EECC
:0D0732009400400800EF1F70F21E80EF22BF
:040565007F017E0094
:100569008E468F47D3E5479400E54694004011E550
:10057900471547700215467FE87E0312072280E47B
:01058900224F
:08088F00AF8CEFFEAD8AEDFF16
:01089700223E
:08089800AF8DEFFEAD8BEDFF0B
:0108A0002235
:0808A100AFD6EFFEADD7EDFF6D
:0108A900222C
:0808AA00AFD4EFFEADD5EDFF68
:0108B2002223
:0808B300AFD2EFFEADD3EDFF63
:0108BB00221A
:10051800E4F540F54153BCF0EF42BC12056543BC1D
:1005280040E5BC30E5FB53BCDFAFBDEFADBEF540E9
:06053800EDF541AE40FFAD
:01053E00229A
:10058A0075C78375C501EFF5C4EEF5C375C65A750F
:10059A00C6A500ADC2E4F5C7F5C5F5C675C380F5B5
:0305AA00C4AF05D6
:0105AD00222B
:10063E0075C78375C502EFF5C4EEF5C38DC275C6D9
:10064E005A75C6A500E4F5C7F5C5F5C675C380F5A0
:02065E00C422B4
:1006E40075C78375C503EFF5C4EEF5C375C65A75B2
:1006F400C6A500E4F5C7F5C5F5C675C380F5C422E3
:0808BC00AFF9EFFEADE9EDFF1D
:0108C4002211
:0808C500AFFAEFFEADEAEDFF12
:0108CD002208
:0808CE00AFFBEFFEADEBEDFF07
:0108D60022FF
:0808D700AFFCEFFEADECEDFFFC
:0108DF0022F6
:0808E000AFFDEFFEADEDEDFFF1
:0108E80022ED
:10075B00AD0753F2FDED548025E0FFEF42F2ED546F
:04076B003FF5FA223A
:0E08330053F2FEEF548042F2EF543FF5EA22FA
:1007AB00AD0753F2FDE425E0FFEF42F2ED547FF588
:0207BB00FA2220
:0908E90053F2FEEF547FF5EA2200
:1007F300AD0753F2FDE425E0FFEF42F2EDF5FA22F7
:07090D0053F2FEEFF5EA22B0
:10066000AD07AC0653F2CDEC5403C4F854F0C8E423
:10067000C4540F48FBEC5404C3134B42F2EDF5FA9B
:010680002257
:1005AE00AD07AC0653F2F2EC5403FEE47806CEC36C
:1005BE0013CE13D8F9FBEC54041313543F4B42F2F1
:0405CE00EDF5EA223B
:10076F00AD0753F3FDED548025E0FFEF42F3ED5459
:04077F003FF5FB2225
:0E08410053F3FEEF548042F3EF543FF5EB22E9
:1007BD00AD0753F3FDE425E0FFEF42F3ED547FF574
:0207CD00FB220D
:0908F20053F3FEEF547FF5EB22F5
:10080300AD0753F3FDE425E0FFEF42F3EDF5FB22E3
:0709140053F3FEEFF5EB22A7
:10068100AD07AC0653F3CDEC5403C4F854F0C8E401
:10069100C4540F48FBEC5404C3134B42F3EDF5FB78
:0106A1002236
:1005D200AD07AC0653F3F2EC5403FEE47806CEC347
:1005E20013CE13D8F9FBEC54041313543F4B42F3CC
:0405F200EDF5EB2216
:10078300AD0753F4FDED548025E0FFEF42F4ED5443
:040793003FF5FC2210
:0E084F0053F4FEEF548042F4EF543FF5EC22D8
:1007CF00AD0753F4FDE425E0FFEF42F4ED547FF560
:0207DF00FC22FA
:0908FB0053F4FEEF547FF5EC22EA
:10081300AD0753F4FDE425E0FFEF42F4EDF5FC22D0
:07091B0053F4FEEFF5EC229E
:1006A200AD07AC0653F4CDEC5403C4F854F0C8E4DF
:1006B200C4540F48FBEC5404C3134B42F4EDF5FC55
:0106C2002215
:1005F600AD07AC0653F4F2EC5403FEE47806CEC322
:1006060013CE13D8F9FBEC54041313543F4B42F4A6
:04061600EDF5EC22F0
:10079700AD0753F5FDED548025E0FFEF42F5ED542D
:0407A7003FF5FD22FB
:0E085D0053F5FEEF548042F5EF543FF5ED22C7
:1007E100AD0753F5FDE425E0FFEF42F5ED547FF54C
:0207F100FD22E7
:0909040053F5FEEF547FF5ED22DE
:10082300AD0753F5FDE425E0FFEF42F5EDF5FD22BD
:0709220053F5FEEFF5ED2295
:1006C300AD07AC0653F5CDEC5403C4F854F0C8E4BD
:1006D300C4540F48FBEC5404C3134B42F5EDF5FD32
:0106E30022F4
:10061A00AD07AC0653F5F2EC5403FEE47806CEC3FC
:10062A0013CE13D8F9FBEC54041313543F4B42F581
:04063A00EDF5ED22CB
:0404B90090FE81F040
:1004BD007542037543E890FE82E054407018D3E511
:1004CD00439400E5429400400DE543154370021539
:0D04DD004212056580E090FE82E054BFF001
:0104EA0022EF
:0C08770043BA8074011204B953BA7F2206
:0C08830043BA8074061204B953BA7F22F5
:1007040043BA8090FE86EFF090FE817402F01204EA
:0E071400BD90FE817403F01204BD53BA7F2223
:0204EB008F443C
:1004ED00E4F54543BA8090FE817404F01204BD908A
:1004FD00FE87E0F545E544F490FE82F090FE8174B0
:0A050D0005F01204BD53BA7FAF459C
:0105170022C1
:10048500E4F53D753E01753F2C8FCFE5CD20E7188E
:10049500D3E53F9400E53E9400400DE53F153F70E0
:1004A50002153E12056580E343CD8043CD4085CFDF
:0304B5003DAF3D1B
:0104B8002221
:08033C008F0B8E0A8D098C085D
:10034400E4F515F514F513F5127598507F04FEFDC8
:10035400FCAB0BAA0AA909A808120078A804A905ED
:10036400AA06AB07AF11AE10AD0FAC0E1201038F8E
:10037400158E148D138C12E50D640170107B0CFA2C
:10038400F9F81201038F158E148D138C12C3E495A2
:1003940015F515E49514F51474019513F513E49506
:1003A40012F512E50C7028E50D7008538EF3438E98
:1003B400048003538EF3E515FFE48FD7AF15AE1415
:1003C400AD13AC1278081201A38FD6438E1022E528
:1003D4000D538EBF438E40538FFD53890FE515FF98
:1003E400E48F8BAF15AE14AD13AC1278081201A3D1
:0503F4008F8D438840DD
:0103F90022E1
:030929008F992281
:03092C00AF99225E
:0603FA008D34AB07AA06DA
:10040000E4F53CF53BF53AF539759A10AE02EB7818
:1004100002C333CE33CED8F9FBAA06E4F9F8AF38DD
:10042000AE37AD36AC351201038F3C8E3B8D3A8C26
:1004300039E534640170107B0CFAF9F81201038F6E
:100440003C8E3B8D3A8C39C3E4953CF53CE4953BBE
:10045000F53B7401953AF53AE49539F539E5347090
:1004600008538EF3438E048003538EF3E53CFFE480
:100470008FD7AF3CAE3BAD3AAC3978081201A38FB1
:04048000D6438E10C1
:010484002255
:03092F008F9B2279
:03093200AF9B2256
:0801B6008F198E188D178C16AD
:1001BE00E4F523F522F521F520E51A4410F5ACE41B
:1001CE007F04FEFDFCAB19AA18A917A81612007819
:1001DE00A804A905AA06AB07AF1FAE1EAD1DAC1C29
:1001EE001201038F238E228D218C20E51B6401705A
:1001FE00107B0CFAF9F81201038F238E228D218CBD
:10020E0020C3E49523F523E49522F522740195216C
:10021E00F521E49520F520E51A7028E51B700853AA
:10022E008EF3438E048003538EF3E523FFE48FD7C2
:10023E00AF23AE22AD21AC2078081201A38FD64396
:10024E008E1022E51B700853D1F843D10280035360
:10025E00D1F8E523FFE48FD5AF23AE22AD21AC203C
:0A026E0078081201A38FD443D108D1
:010278002263
:030935008FAD2261
:03093800AFAD223E
:080279008F278E268D258C24B1
:10028100E4F531F530F52FF52EE5284410F584E439
:100291007F04FEFDFCAB27AA26A925A8241200781D
:1002A100A804A905AA06AB07AF2DAE2CAD2BAC2A2D
:1002B1001201038F318E308D2F8C2EE52964017050
:1002C100107B0CFAF9F81201038F318E308D2F8CCF
:1002D1002EC3E49531F531E49530F5307401952F55
:1002E100F52FE4952EF52EE5287028E529700853A1
:1002F1008EF3438E048003538EF3E531FFE48FD7F1
:10030100AF31AE30AD2FAC2E78081201A38FD6439A
:100311008E1022E529700853D18F43D120800353D9
:10032100D18FE531FFE48FD3AF31AE30AD2FAC2E9D
:0A03310078081201A38FD243D18097
:01033B00229F
:03093B008F852283
:03093E00AF852260
:10073F0012053F63C820E5C8540470077F907E01FF
:0C074F001205697FC87E0012056980E772
:10053F0053C9DF53CADF43C92043CA2053C9FB53F2
:10054F00CAFB43C90453CAFB43BA8090FE15E0446B
:06055F0004F053BA7F22F4
:1000030075F020800E75F010800575F0087D007E78
:10001300007F003392D530D503120195EC334010A5
:10002300EF33FFEE33FEED33FDEC33FCD5F0ED2281
:0E003300E5F0247EA2D513CC92E7CDCEFF22BD
:10004100EDD2E7CD33EC3392D524814006E4FFFEB7
:10005100FDFC22FCE4CFCECDCC24E0501174FF8016
:10006100EDC3CC13CCCD13CDCE13CECF13CF0470B3
:07007100F030D5DE0201951D
:10007800E88FF0A4CC8BF0A42CFCE98EF0A42CFC27
:100088008AF0EDA42CFCEA8EF0A4CDA8F08BF0A4A5
:100098002DCC3825F0FDE98FF0A42CCD35F0FCEB04
:1000A8008EF0A4FEA9F0EB8FF0A4CFC5F02ECD39C9
:0F00B800FEE43CFCEAA42DCE35F0FDE43CFC2236
:1000C70075F008758200EF2FFFEE33FECD33CDCCF0
:1000D70033CCC58233C5829BED9AEC99E582984073
:1000E7000CF582EE9BFEED9AFDEC99FC0FD5F0D650
:1000F700E4CEFBE4CDFAE4CCF9A88222B800C1B97A
:100107000059BA002DEC8BF084CFCECDFCE5F0CBB7
:10011700F97818EF2FFFEE33FEED33FDEC33FCEBF0
:1001270033FB10D703994004EB99FB0FD8E5E4F9AB
:10013700FA227818EF2FFFEE33FEED33FDEC33FC98
:10014700C933C910D7059BE99A4007EC9BFCE99A8C
:10015700F90FD8E0E4C9FAE4CCFB2275F010EF2FD1
:10016700FFEE33FEED33FDCC33CCC833C810D707D1
:100177009BEC9AE899400AED9BFDEC9AFCE899F80C
:0E0187000FD5F0DAE4CDFBE4CCFAE4C8F9229F
:0E019500C3E49FFFE49EFEE49DFDE49CFC227B
:1001A300E8600FECC313FCED13FDEE13FEEF13FF3A
:0301B300D8F1225E
:00000001FF
