:0300000002040DEA
:0C040D00787FE4F6D8FD758143020454AA
:070A1600013F00023D00005A
:10084C00AD07AC06E412001B120054D3EF9400EE7B
:0D085C009400400800EF1F70F21E80EF2294
:10080D008E408F41D3E5419400E54094004011E5C1
:10081D00411541700215407FE87E0312084C80E4BB
:01082D0022A8
:08096C00AF8CEFFEAD8AEDFF38
:010974002260
:08097500AF8DEFFEAD8BEDFF2D
:01097D002257
:08097E00AFD6EFFEADD7EDFF8F
:01098600224E
:08098700AFD4EFFEADD5EDFF8A
:01098F002245
:08099000AFD2EFFEADD3EDFF85
:01099800223C
:10057300E4F542F54353BCF0EF42BC7F017E001229
:10058300080D43BC40E5BC542060FA53BCDFAFBD4B
:100593007542008F43E543754300F542AFBEEF421A
:0505A30043AE42AF432E
:0105A8002230
:1007710043C78043C70175C501EFF5C4EEF5C375E5
:10078100C65A75C6A500ADC2E4F5C275C380F5C4ED
:08079100F5C5F5C6F5C7AF057B
:01079900223D
:10079A0043C78043C70175C502EFF5C4EEF5C38DA3
:1007AA00C275C65A75C6A500E4F5C275C380F5C4FC
:0707BA00F5C5F5C6F5C722E5
:1007E80043C78043C70175C503EFF5C4EEF5C3756C
:1007F800C65A75C6A500E4F5C275C380F5C4F5C52B
:05080800F5C6F5C72252
:08099900AFF9EFFEADE9EDFF3F
:0109A1002233
:0809A200AFFAEFFEADEAEDFF34
:0109AA00222A
:0809AB00AFFBEFFEADEBEDFF29
:0109B3002221
:0809B400AFFCEFFEADECEDFF1E
:0109BC002218
:0809BD00AFFDEFFEADEDEDFF13
:0109C500220F
:10087F00AD0753F2FDE425E0FFEF42F2ED543FF5F3
:02088F00FA224B
:0909C60053F2FEEF543FF5EA2262
:10089100AD0753F2FDE425E0FFEF42F2ED547FF5A1
:0208A100FA2239
:0909CF0053F2FEEF547FF5EA2219
:10092000AD0753F2FDE425E0FFEF42F2EDF5FA22C8
:070A1E0053F2FEEFF5EA229E
:10061100AD07AC0653F2CDE425E0FFEF42F2EC5416
:1006210002FEE47805C333CE33CED8F942F2E4C4F6
:0D063100F8540FC868FFEF42F2EDF5FA2211
:1006C500AD07AC0653F2F2EC5402FEE47803C333F3
:1006D500CE33CED8F942F2EC5401FEE47802C333AE
:0B06E500CE33CED8F942F2EDF5EA2248
:1008A300AD0753F3FDE425E0FFEF42F3ED543FF5CD
:0208B300FB2226
:0909D80053F3FEEF543FF5EB224E
:1008B500AD0753F3FDE425E0FFEF42F3ED547FF57B
:0208C500FB2214
:0909E10053F3FEEF547FF5EB2205
:10093000AD0753F3FDE425E0FFEF42F3EDF5FB22B5
:070A250053F3FEEFF5EB2295
:10063E00AD07AC0653F3CDE425E0FFEF42F3EC54E7
:10064E0002FEE47805C333CE33CED8F942F3E4C4C8
:0D065E00F8540FC868FFEF42F3EDF5FB22E2
:1006F000AD07AC0653F3F2EC5402FEE47803C333C7
:10070000CE33CED8F942F3EC5401FEE47802C33381
:0B071000CE33CED8F942F3EDF5EB221A
:1008C700AD0753F4FDE425E0FFEF42F4ED543FF5A7
:0208D700FC2201
:0909EA0053F4FEEF543FF5EC223A
:1008D900AD0753F4FDE425E0FFEF42F4ED547FF555
:0208E900FC22EF
:0909F30053F4FEEF547FF5EC22F1
:10094000AD0753F4FDE425E0FFEF42F4EDF5FC22A2
:070A2C0053F4FEEFF5EC228C
:10066B00AD07AC0653F4CDE425E0FFEF42F4EC54B8
:10067B0002FEE47805C333CE33CED8F942F4E4C49A
:0D068B00F8540FC868FFEF42F4EDF5FC22B3
:10071B00AD07AC0653F4F2EC5402FEE47803C3339A
:10072B00CE33CED8F942F4EC5401FEE47802C33355
:0B073B00CE33CED8F942F4EDF5EC22ED
:1008EB00AD0753F5FDE425E0FFEF42F5ED543FF581
:0208FB00FD22DC
:0909FC0053F5FEEF543FF5ED2226
:1008FD00AD0753F5FDE425E0FFEF42F5ED547FF52F
:02090D00FD22C9
:090A050053F5FEEF547FF5ED22DC
:10095000AD0753F5FDE425E0FFEF42F5EDF5FD228F
:070A330053F5FEEFF5ED2283
:10069800AD07AC0653F5CDE425E0FFEF42F5EC5489
:1006A80002FEE47805C333CE33CED8F942F5E4C46C
:0D06B800F8540FC868FFEF42F5EDF5FD2284
:10074600AD07AC0653F5F2EC5402FEE47803C3336E
:10075600CE33CED8F942F5EC5401FEE47802C33329
:0B076600CE33CED8F942F5EDF5ED22C0
:0408690090FE81F08C
:10086D0075BA8090FE82E030E6F9E054BFF0E4F511
:02087D00BA229D
:0C00060075BA807401120869E4F5BA2292
:0C09600075BA807406120869E4F5BA222A
:10082E0075BA8090FE86EFF090FE817402F0120889
:0E083E006D90FE817403F012086DE4F5BA228D
:1007C100E4FE75BA8090FE817404F012086D90FE0B
:1007D10087E0FE90FE82EFF090FE817405F0120832
:0607E1006DE4F5BAAF065D
:0107E70022EF
:10090F00E4FE8FCFE5CD30E7FBAECF75CD80AF06E0
:01091F0022B5
:08034F008F0B8E0A8D098C084A
:10035700E4F515F514F513F5127598507F04FEFDB5
:10036700FCAB0BAA0AA909A80812008BA804A905C7
:10037700AA06AB07AF11AE10AD0FAC0E1201168F68
:10038700158E148D138C12E50D640170107B0CFA19
:10039700F9F81201168F158E148D138C12C3E4957C
:1003A70015F515E49514F51474019513F513E495F3
:1003B70012F512E50C7028E50D7008538EF3438E85
:1003C700048003538EF3E515FFE48FD7AF15AE1402
:1003D700AD13AC1278081201B68FD6438E1022E502
:1003E7000D538EBF438E40538FFD53890FE515FF85
:1003F700E48F8BAF15AE14AD13AC1278081201B6AB
:050407008F8D438840C9
:01040C0022CD
:030A3A008F99226F
:030A3D00AF99224C
:060499008D34AB07AA063A
:10049F00E4F53CF53BF53AF539759A10AE02EB7879
:1004AF0002C333CE33CED8F9FBAA06E4F9F8AF383E
:1004BF00AE37AD36AC351201168F3C8E3B8D3A8C74
:1004CF0039E534640170107B0CFAF9F81201168FBC
:1004DF003C8E3B8D3A8C39C3E4953CF53CE4953B1F
:1004EF00F53B7401953AF53AE49539F539E53470F1
:1004FF0008538EF3438E048003538EF3E53CFFE4E1
:10050F008FD7AF3CAE3BAD3AAC3978081201B68FFE
:04051F00D6438E1021
:0105230022B5
:030A40008F9B2267
:030A4300AF9B2244
:0801C9008F198E188D178C169A
:1001D100E4F523F522F521F520E51A4410F5ACE408
:1001E1007F04FEFDFCAB19AA18A917A81612008BF3
:1001F100A804A905AA06AB07AF1FAE1EAD1DAC1C16
:100201001201168F238E228D218C20E51B64017033
:10021100107B0CFAF9F81201168F238E228D218C96
:1002210020C3E49523F523E49522F5227401952159
:10023100F521E49520F520E51A7028E51B70085397
:100241008EF3438E048003538EF3E523FFE48FD7AF
:10025100AF23AE22AD21AC2078081201B68FD64370
:100261008E1022E51B700853D1F843D1028003534D
:10027100D1F8E523FFE48FD5AF23AE22AD21AC2029
:0A02810078081201B68FD443D108AB
:01028B002250
:030A46008FAD224F
:030A4900AFAD222C
:08028C008F278E268D258C249E
:10029400E4F531F530F52FF52EE5284410F584E426
:1002A4007F04FEFDFCAB27AA26A925A82412008BF7
:1002B400A804A905AA06AB07AF2DAE2CAD2BAC2A1A
:1002C4001201168F318E308D2F8C2EE5296401702A
:1002D400107B0CFAF9F81201168F318E308D2F8CA9
:1002E4002EC3E49531F531E49530F5307401952F42
:1002F400F52FE4952EF52EE5287028E5297008538E
:100304008EF3438E048003538EF3E531FFE48FD7DD
:10031400AF31AE30AD2FAC2E78081201B68FD64374
:100324008E1022E529700853D18F43D120800353C6
:10033400D18FE531FFE48FD3AF31AE30AD2FAC2E8A
:0A03440078081201B68FD243D18071
:01034E00228C
:030A4C008F852271
:030A4F00AF85224E
:030003000205A94A
:1005A900C0E0C0D0753F00D3E53F940974809480C2
:1005B900501D63C820753D00753E00053EE53E703F
:1005C90002053DB410F5E53DB427F0053F80D8D0CC
:0405D900D0D0E0326C
:030013000205DD06
:1005DD00C0E0C0D0753F00D3E53F9409748094808E
:1005ED00501D63C820753D00753E00053EE53E700B
:1005FD0002053DB430F5E53DB475F0053F80D8D02A
:04060D00D0D0E03237
:080A0E0012052453C8DF80FB30
:1005240075BA80800090FE027480F090FE02E05460
:100534000160F890FE017418F090FE00E4F0E0F021
:10054400E054F7F0E4F5BA53C9DF53CADF43C920D6
:1005540043CA2053B7FE53B8FE43880143A801534E
:0F056400B7FB43B80443880443A80443A880228C
:1000160075F020800E75F010800575F0087D007E65
:10002600007F003392D530D5031201A8EC3340107F
:10003600EF33FFEE33FEED33FDEC33FCD5F0ED226E
:0E004600E5F0247EA2D513CC92E7CDCEFF22AA
:10005400EDD2E7CD33EC3392D524814006E4FFFEA4
:10006400FDFC22FCE4CFCECDCC24E0501174FF8003
:10007400EDC3CC13CCCD13CDCE13CECF13CF0470A0
:07008400F030D5DE0201A8F7
:10041900020A0EE493A3F8E493A34003F68001F2E1
:1004290008DFF48029E493A3F85407240CC8C333E4
:10043900C4540F4420C8834004F456800146F6DFB3
:10044900E4800B0102040810204080900A16E47E23
:10045900019360BCA3FF543F30E509541FFEE493A8
:10046900A360010ECF54C025E060A840B8E493A36F
:10047900FAE493A3F8E493A3C8C582C8CAC583CA9A
:10048900F0A3C8C582C8CAC583CADFE9DEE780BE52
:010A1D0000D8
:10008B00E88FF0A4CC8BF0A42CFCE98EF0A42CFC14
:10009B008AF0EDA42CFCEA8EF0A4CDA8F08BF0A492
:1000AB002DCC3825F0FDE98FF0A42CCD35F0FCEBF1
:1000BB008EF0A4FEA9F0EB8FF0A4CFC5F02ECD39B6
:0F00CB00FEE43CFCEAA42DCE35F0FDE43CFC2223
:1000DA0075F008758200EF2FFFEE33FECD33CDCCDD
:1000EA0033CCC58233C5829BED9AEC99E582984060
:1000FA000CF582EE9BFEED9AFDEC99FC0FD5F0D63D
:10010A00E4CEFBE4CDFAE4CCF9A88222B800C1B966
:10011A000059BA002DEC8BF084CFCECDFCE5F0CBA4
:10012A00F97818EF2FFFEE33FEED33FDEC33FCEBDD
:10013A0033FB10D703994004EB99FB0FD8E5E4F998
:10014A00FA227818EF2FFFEE33FEED33FDEC33FC85
:10015A00C933C910D7059BE99A4007EC9BFCE99A79
:10016A00F90FD8E0E4C9FAE4CCFB2275F010EF2FBE
:10017A00FFEE33FEED33FDCC33CCC833C810D707BE
:10018A009BEC9AE899400AED9BFDEC9AFCE899F8F9
:0E019A000FD5F0DAE4CDFBE4CCFAE4C8F9228C
:0E01A800C3E49FFFE49EFEE49DFDE49CFC2268
:1001B600E8600FECC313FCED13FDEE13FEEF13FF27
:0301C600D8F1224B
:00000001FF
