:03000000020A28C9
:0C0A2800787FE4F6D8FD7581460205F9E0
:10074900AD07AC06E41200A8E4FBFAF97840120000
:10075900061200E1D3EF9400EE9400400800EF1F69
:0607690070F21E80EF2279
:08072000353DF53D7F647E00CC
:100728008E3F8F40D3E5409400E53F94004011E5AB
:100738004015407002153F7FE87E0312074980E4A8
:01074800228E
:080A4C00AF8CEFFEAD8AEDFF57
:010A5400227F
:080A5500AF8DEFFEAD8BEDFF4C
:010A5D002276
:080A5E00AFD6EFFEADD7EDFFAE
:010A6600226D
:080A6700AFD4EFFEADD5EDFFA9
:010A6F002264
:080A7000AFD2EFFEADD3EDFFA4
:010A7800225B
:1006F500E4F541F54253BCF0EF42BC7F017E0012A8
:10070500072843BC40E5BC30E5FB53BCDFAFBDEF7C
:0A071500ADBEF541EDF542AE41FF27
:01071F0022B7
:10076F0075C78375C501EFF5C4EEF5C375C65A7528
:10077F00C6A500ADC2E4F5C7F5C5F5C675C380F5CE
:03078F00C4AF05EF
:010792002244
:1008230075C78375C502EFF5C4EEF5C38DC275C6F2
:100833005A75C6A500E4F5C7F5C5F5C675C380F5B9
:02084300C422CD
:1008C90075C78375C503EFF5C4EEF5C375C65A75CB
:1008D900C6A500E4F5C7F5C5F5C675C380F5C422FC
:080A7900AFF9EFFEADE9EDFF5E
:010A81002252
:080A8200AFFAEFFEADEAEDFF53
:010A8A002249
:080A8B00AFFBEFFEADEBEDFF48
:010A93002240
:080A9400AFFCEFFEADECEDFF3D
:010A9C002237
:080A9D00AFFDEFFEADEDEDFF32
:010AA500222E
:10090700AD0753F2FDED548025E0FFEF42F2ED54C1
:040917003FF5FA228C
:0E09F00053F2FEEF548042F2EF543FF5EA223C
:10095700AD0753F2FDE425E0FFEF42F2ED547FF5DA
:02096700FA2272
:090AA60053F2FEEF547FF5EA2241
:1009B000AD0753F2FDE425E0FFEF42F2EDF5FA2238
:070ACA0053F2FEEFF5EA22F2
:10084500AD07AC0653F2CDEC5403C4F854F0C8E43C
:10085500C4540F48FBEC5404C3134B42F2EDF5FAB4
:010865002270
:10079300AD07AC0653F2F2EC5403FEE47806CEC385
:1007A30013CE13D8F9FBEC54041313543F4B42F20A
:0407B300EDF5EA2254
:10091B00AD0753F3FDED548025E0FFEF42F3ED54AB
:04092B003FF5FB2277
:0E09FE0053F3FEEF548042F3EF543FF5EB222B
:10096900AD0753F3FDE425E0FFEF42F3ED547FF5C6
:02097900FB225F
:090AAF0053F3FEEF547FF5EB2236
:1009C000AD0753F3FDE425E0FFEF42F3EDF5FB2225
:070AD10053F3FEEFF5EB22E9
:10086600AD07AC0653F3CDEC5403C4F854F0C8E41A
:10087600C4540F48FBEC5404C3134B42F3EDF5FB91
:01088600224F
:1007B700AD07AC0653F3F2EC5403FEE47806CEC360
:1007C70013CE13D8F9FBEC54041313543F4B42F3E5
:0407D700EDF5EB222F
:10092F00AD0753F4FDED548025E0FFEF42F4ED5495
:04093F003FF5FC2262
:0E0A0C0053F4FEEF548042F4EF543FF5EC2219
:10097B00AD0753F4FDE425E0FFEF42F4ED547FF5B2
:02098B00FC224C
:090AB80053F4FEEF547FF5EC222B
:1009D000AD0753F4FDE425E0FFEF42F4EDF5FC2212
:070AD80053F4FEEFF5EC22E0
:10088700AD07AC0653F4CDEC5403C4F854F0C8E4F8
:10089700C4540F48FBEC5404C3134B42F4EDF5FC6E
:0108A700222E
:1007DB00AD07AC0653F4F2EC5403FEE47806CEC33B
:1007EB0013CE13D8F9FBEC54041313543F4B42F4C0
:0407FB00EDF5EC220A
:10094300AD0753F5FDED548025E0FFEF42F5ED547F
:040953003FF5FD224D
:0E0A1A0053F5FEEF548042F5EF543FF5ED2208
:10098D00AD0753F5FDE425E0FFEF42F5ED547FF59E
:02099D00FD2239
:090AC10053F5FEEF547FF5ED2220
:1009E000AD0753F5FDE425E0FFEF42F5EDF5FD22FF
:070ADF0053F5FEEFF5ED22D7
:1008A800AD07AC0653F5CDEC5403C4F854F0C8E4D6
:1008B800C4540F48FBEC5404C3134B42F5EDF5FD4B
:0108C800220D
:1007FF00AD07AC0653F5F2EC5403FEE47806CEC316
:10080F0013CE13D8F9FBEC54041313543F4B42F59A
:04081F00EDF5ED22E4
:0406920090FE81F065
:100696007543037544E890FE82E05440701CD3E530
:1006A600449400E54394004011E544154470021556
:1006B600437F017E0012072880DC90FE82E054BF53
:0106C600F043
:0106C7002210
:0C0A340043BA80740112069253BA7F226C
:0C0A400043BA80740612069253BA7F225B
:1008E90043BA8090FE86EFF090FE817402F0120602
:0E08F9009690FE817403F012069653BA7F2289
:0206C8008F455C
:1006CA00E4F54643BA8090FE817404F012069690CF
:1006DA00FE87E0F546E545F490FE82F090FE8174CF
:0A06EA0005F012069653BA7FAF46E2
:0106F40022E3
:10099F00E4FE8FCFE5CD30E7FBAECF75CD80AF0650
:0109AF002225
:080426008F0B8E0A8D098C0872
:10042E00E4F515F514F513F5127598507F04FEFDDD
:10043E00FCAB0BAA0AA909A808120162A804A90517
:10044E00AA06AB07AF11AE10AD0FAC0E1201ED8FB9
:10045E00158E148D138C12E50D640170107B0CFA41
:10046E00F9F81201ED8F158E148D138C12C3E495CD
:10047E0015F515E49514F51474019513F513E4951B
:10048E0012F512E50C7028E50D7008538EF3438EAD
:10049E00048003538EF3E515FFE48FD7AF15AE142A
:1004AE00AD13AC12780812028D8FD6438E1022E552
:1004BE000D538EBF438E40538FFD53890FE515FFAD
:1004CE00E48F8BAF15AE14AD13AC12780812028DFB
:0504DE008F8D438840F2
:0104E30022F6
:030AE6008F9922C3
:030AE900AF9922A0
:0604E4008D34AB07AA06EF
:1004EA00E4F53CF53BF53AF539759A10AE02EB782E
:1004FA0002C333CE33CED8F9FBAA06E4F9F8AF38F3
:10050A00AE37AD36AC351201ED8F3C8E3B8D3A8C51
:10051A0039E534640170107B0CFAF9F81201ED8F99
:10052A003C8E3B8D3A8C39C3E4953CF53CE4953BD3
:10053A00F53B7401953AF53AE49539F539E53470A5
:10054A0008538EF3438E048003538EF3E53CFFE495
:10055A008FD7AF3CAE3BAD3AAC39780812028D8FDB
:04056A00D6438E10D6
:01056E00226A
:030AEC008F9B22BB
:030AEF00AF9B2298
:0802A0008F198E188D178C16C2
:1002A800E4F523F522F521F520E51A4410F5ACE430
:1002B8007F04FEFDFCAB19AA18A917A81612016243
:1002C800A804A905AA06AB07AF1FAE1EAD1DAC1C3E
:1002D8001201ED8F238E228D218C20E51B64017085
:1002E800107B0CFAF9F81201ED8F238E228D218CE8
:1002F80020C3E49523F523E49522F5227401952182
:10030800F521E49520F520E51A7028E51B700853BF
:100318008EF3438E048003538EF3E523FFE48FD7D7
:10032800AF23AE22AD21AC20780812028D8FD643C0
:100338008E1022E51B700853D1F843D10280035375
:10034800D1F8E523FFE48FD5AF23AE22AD21AC2051
:0A035800780812028D8FD443D108FB
:010362002278
:030AF2008FAD22A3
:030AF500AFAD2280
:080363008F278E268D258C24C6
:10036B00E4F531F530F52FF52EE5284410F584E44E
:10037B007F04FEFDFCAB27AA26A925A82412016247
:10038B00A804A905AA06AB07AF2DAE2CAD2BAC2A42
:10039B001201ED8F318E308D2F8C2EE5296401707B
:1003AB00107B0CFAF9F81201ED8F318E308D2F8CFA
:1003BB002EC3E49531F531E49530F5307401952F6A
:1003CB00F52FE4952EF52EE5287028E529700853B6
:1003DB008EF3438E048003538EF3E531FFE48FD706
:1003EB00AF31AE30AD2FAC2E780812028D8FD643C5
:1003FB008E1022E529700853D18F43D120800353EF
:10040B00D18FE531FFE48FD3AF31AE30AD2FAC2EB2
:0A041B00780812028D8FD243D180C1
:0104250022B4
:030AF8008F8522C5
:030AFB00AF8522A2
:1005F900E4F53DF53E12056FE59020E21D740A25EC
:100609003EF53EE4120720C3E53E9490E53D648043
:1006190094814006753D01753E90E59020E31D7477
:10062900F6253EF53E74FF120720D3E53E9400E51A
:100639003D648094805005E4F53DF53EE59030E257
:0F06490005E59020E3B2AF3EAE3D12065880A902
:10056F0043BA80800090FE027480F090FE02E05447
:10057F000160F890FE017402F090FE00E4F0E0F0EC
:10058F00E054F7F053BA7F5391FB5392FB4391041E
:10059F005392FB5391F75392F74391085392F743BA
:1005AF00BA8090FFF2E4F0E0F053BA7F43BA809044
:1005BF00FFF17490F090FFF07401F053BA7F43BADB
:1005CF008090FF04E05407F0E04488F0A3E4F05378
:1005DF00BA7F43BA8090FF14E05407F0E04488F0EC
:0A05EF00A3E4F053BA7F43FE80221C
:1006580043BA8090FF00EEF0A3EFF053BA7F43BA9D
:1006680080A3E4F0A3F053BA7F43BA8090FF10044C
:10067800F0A3748FF053BA7F43BA80EF2401FFE4EC
:0A0688003EA3F0A3EFF053BA7F2267
:10000300020157EC5D046005E85904700302014DD9
:10001300120118580460F6EC4860F2EC7004FDFE1F
:10002300FF22C860DB2481C85009C39860025006D0
:100033000201549850CAF582E9294B4A7005AB82F4
:1000430002014375F0007C1A7880C3EF9BEE9AEDB2
:1000530099400DC3EF9BFFEE9AFEED99FDE842F048
:10006300DC23ACF0D0E0FFD0E0FED0E0FDAB82209B
:10007300E7101BEB60BAEC2CFCEF33FFEE33FEED25
:1000830033FD02012FE803F830E705C0F075F000F7
:10009300EF2FFFEE33FEED33FD40B830E7C280AA09
:1000A30075F020800E75F010800575F0087D007ED8
:1000B300007F003392D530D50312027FEC3340101A
:1000C300EF33FFEE33FEED33FDEC33FCD5F0ED22E1
:0E00D300E5F0247EA2D513CC92E7CDCEFF221D
:1000E100EDD2E7CD33EC3392D524814006E4FFFE17
:1000F100FDFC22FCE4CFCECDCC24E0501174FF8076
:10010100EDC3CC13CCCD13CDCE13CECF13CF047012
:07011100F030D5DE02027F91
:10011800E9D2E7C933E833F892D5EDD2E7CD33EC2D
:0701280033FC5002B2D522A6
:10012F00EC30E7100FBF000C0EBE00080DBD000431
:10013F000BEB6014A2D5EB13FCED92E7FD2274FFDD
:10014F00FCFDFEFF22E480F8A2D574FF13FC7D8036
:03015F00E480EF4A
:10016200E88FF0A4CC8BF0A42CFCE98EF0A42CFC3C
:100172008AF0EDA42CFCEA8EF0A4CDA8F08BF0A4BA
:100182002DCC3825F0FDE98FF0A42CCD35F0FCEB19
:100192008EF0A4FEA9F0EB8FF0A4CFC5F02ECD39DE
:0F01A200FEE43CFCEAA42DCE35F0FDE43CFC224B
:1001B10075F008758200EF2FFFEE33FECD33CDCC05
:1001C10033CCC58233C5829BED9AEC99E582984088
:1001D1000CF582EE9BFEED9AFDEC99FC0FD5F0D665
:1001E100E4CEFBE4CDFAE4CCF9A88222B800C1B98F
:1001F1000059BA002DEC8BF084CFCECDFCE5F0CBCD
:10020100F97818EF2FFFEE33FEED33FDEC33FCEB05
:1002110033FB10D703994004EB99FB0FD8E5E4F9C0
:10022100FA227818EF2FFFEE33FEED33FDEC33FCAD
:10023100C933C910D7059BE99A4007EC9BFCE99AA1
:10024100F90FD8E0E4C9FAE4CCFB2275F010EF2FE6
:10025100FFEE33FEED33FDCC33CCC833C810D707E6
:100261009BEC9AE899400AED9BFDEC9AFCE899F821
:0E0271000FD5F0DAE4CDFBE4CCFAE4C8F922B4
:0E027F00C3E49FFFE49EFEE49DFDE49CFC2290
:10028D00E8600FECC313FCED13FDEE13FEEF13FF4F
:03029D00D8F12273
:00000001FF
