:0300000002002ECD
:0C002E00787FE4F6D8FD75814002085888
:10072100AD07AC06E412004312007CD3EF9400EE57
:0D0731009400400800EF1F70F21E80EF22C0
:10063E008E3F8F40D3E5409400E53F94004011E596
:10064E004015407002153F7FE87E0312072180E4BB
:01065E002279
:0808B700AF8CEFFEAD8AEDFFEE
:0108BF002216
:0808C000AF8DEFFEAD8BEDFFE3
:0108C800220D
:0808C900AFD6EFFEADD7EDFF45
:0108D1002204
:0808D200AFD4EFFEADD5EDFF40
:0108DA0022FB
:0808DB00AFD2EFFEADD3EDFF3B
:0108E30022F2
:10000300E4F53DF53E53BCF0EF42BC7F017E0012A8
:10001300063E43BC40E5BC30E5FB53BCDFAFBDEF60
:0A002300ADBEF53DEDF53EAE3DFF2C
:01002D0022B0
:1005680075C78375C501EFF5C4EEF5C375C65A7531
:10057800C6A500ADC2E4F5C7F5C5F5C675C380F5D7
:03058800C4AF05F8
:01058B00224D
:10061C0075C78375C502EFF5C4EEF5C38DC275C6FB
:10062C005A75C6A500E4F5C7F5C5F5C675C380F5C2
:02063C00C422D6
:1006E30075C78375C503EFF5C4EEF5C375C65A75B3
:1006F300C6A500E4F5C7F5C5F5C675C380F5C422E4
:0808E400AFF9EFFEADE9EDFFF5
:0108EC0022E9
:0808ED00AFFAEFFEADEAEDFFEA
:0108F50022E0
:0808F600AFFBEFFEADEBEDFFDF
:0108FE0022D7
:0808FF00AFFCEFFEADECEDFFD4
:0109070022CD
:08090800AFFDEFFEADEDEDFFC8
:0109100022C4
:10076F00AD0753F2FDED548025E0FFEF42F2ED545B
:04077F003FF5FA2226
:0E08670053F2FEEF548042F2EF543FF5EA22C6
:1007BF00AD0753F2FDE425E0FFEF42F2ED547FF574
:0207CF00FA220C
:0909110053F2FEEF547FF5EA22D7
:10081800AD0753F2FDE425E0FFEF42F2EDF5FA22D1
:0709350053F2FEEFF5EA2288
:10065F00AD07AC0653F2CDEC5403C4F854F0C8E424
:10066F00C4540F48FBEC5404C3134B42F2EDF5FA9C
:01067F002258
:10058C00AD07AC0653F2F2EC5403FEE47806CEC38E
:10059C0013CE13D8F9FBEC54041313543F4B42F213
:0405AC00EDF5EA225D
:10078300AD0753F3FDED548025E0FFEF42F3ED5445
:040793003FF5FB2211
:0E08750053F3FEEF548042F3EF543FF5EB22B5
:1007D100AD0753F3FDE425E0FFEF42F3ED547FF560
:0207E100FB22F9
:09091A0053F3FEEF547FF5EB22CC
:10082800AD0753F3FDE425E0FFEF42F3EDF5FB22BE
:07093C0053F3FEEFF5EB227F
:10068000AD07AC0653F3CDEC5403C4F854F0C8E402
:10069000C4540F48FBEC5404C3134B42F3EDF5FB79
:0106A0002237
:1005B000AD07AC0653F3F2EC5403FEE47806CEC369
:1005C00013CE13D8F9FBEC54041313543F4B42F3EE
:0405D000EDF5EB2238
:10079700AD0753F4FDED548025E0FFEF42F4ED542F
:0407A7003FF5FC22FC
:0E08830053F4FEEF548042F4EF543FF5EC22A4
:1007E300AD0753F4FDE425E0FFEF42F4ED547FF54C
:0207F300FC22E6
:0909230053F4FEEF547FF5EC22C1
:10083800AD0753F4FDE425E0FFEF42F4EDF5FC22AB
:0709430053F4FEEFF5EC2276
:1006A100AD07AC0653F4CDEC5403C4F854F0C8E4E0
:1006B100C4540F48FBEC5404C3134B42F4EDF5FC56
:0106C1002216
:1005D400AD07AC0653F4F2EC5403FEE47806CEC344
:1005E40013CE13D8F9FBEC54041313543F4B42F4C9
:0405F400EDF5EC2213
:1007AB00AD0753F5FDED548025E0FFEF42F5ED5419
:0407BB003FF5FD22E7
:0E08910053F5FEEF548042F5EF543FF5ED2293
:1007F500AD0753F5FDE425E0FFEF42F5ED547FF538
:02080500FD22D2
:09092C0053F5FEEF547FF5ED22B6
:10084800AD0753F5FDE425E0FFEF42F5EDF5FD2298
:07094A0053F5FEEFF5ED226D
:1006C200AD07AC0653F5CDEC5403C4F854F0C8E4BE
:1006D200C4540F48FBEC5404C3134B42F5EDF5FD33
:0106E20022F5
:1005F800AD07AC0653F5F2EC5403FEE47806CEC31F
:1006080013CE13D8F9FBEC54041313543F4B42F5A3
:04061800EDF5ED22ED
:0407590090FE81F09D
:10075D0075BA8090FE82E030E6F9E054BFF0E4F522
:02076D00BA22AE
:0C089F0075BA807401120759E4F5BA2202
:0C08AB0075BA807406120759E4F5BA22F1
:1007030075BA8090FE86EFF090FE817402F01207B6
:0E0713005D90FE817403F012075DE4F5BA22DA
:10054100E4FE75BA8090FE817404F012075D90FE9E
:1005510087E0FE90FE82EFF090FE817405F01207B5
:060561005DE4F5BAAF06EF
:010567002271
:10080700E4FE8FCFE5CD30E7FBAECF75CD80AF06E9
:0108170022BE
:080377008F0B8E0A8D098C0822
:10037F00E4F515F514F513F5127598507F04FEFD8D
:10038F00FCAB0BAA0AA909A8081200B3A804A90577
:10039F00AA06AB07AF11AE10AD0FAC0E12013E8F18
:1003AF00158E148D138C12E50D640170107B0CFAF1
:1003BF00F9F812013E8F158E148D138C12C3E4952C
:1003CF0015F515E49514F51474019513F513E495CB
:1003DF0012F512E50C7028E50D7008538EF3438E5D
:1003EF00048003538EF3E515FFE48FD7AF15AE14DA
:1003FF00AD13AC1278081201DE8FD6438E1022E5B2
:10040F000D538EBF438E40538FFD53890FE515FF5C
:10041F00E48F8BAF15AE14AD13AC1278081201DE5A
:05042F008F8D438840A1
:0104340022A5
:030951008F992259
:03095400AF992236
:060435008D34AB07AA069E
:10043B00E4F53CF53BF53AF539759A10AE02EB78DD
:10044B0002C333CE33CED8F9FBAA06E4F9F8AF38A2
:10045B00AE37AD36AC3512013E8F3C8E3B8D3A8CB0
:10046B0039E534640170107B0CFAF9F812013E8FF8
:10047B003C8E3B8D3A8C39C3E4953CF53CE4953B83
:10048B00F53B7401953AF53AE49539F539E5347055
:10049B0008538EF3438E048003538EF3E53CFFE445
:1004AB008FD7AF3CAE3BAD3AAC3978081201DE8F3B
:0404BB00D6438E1086
:0104BF00221A
:030957008F9B2251
:03095A00AF9B222E
:0801F1008F198E188D178C1672
:1001F900E4F523F522F521F520E51A4410F5ACE4E0
:100209007F04FEFDFCAB19AA18A917A8161200B3A2
:10021900A804A905AA06AB07AF1FAE1EAD1DAC1CED
:1002290012013E8F238E228D218C20E51B640170E3
:10023900107B0CFAF9F812013E8F238E228D218C46
:1002490020C3E49523F523E49522F5227401952131
:10025900F521E49520F520E51A7028E51B7008536F
:100269008EF3438E048003538EF3E523FFE48FD787
:10027900AF23AE22AD21AC2078081201DE8FD64320
:100289008E1022E51B700853D1F843D10280035325
:10029900D1F8E523FFE48FD5AF23AE22AD21AC2001
:0A02A90078081201DE8FD443D1085B
:0102B3002228
:03095D008FAD2239
:03096000AFAD2216
:0802B4008F278E268D258C2476
:1002BC00E4F531F530F52FF52EE5284410F584E4FE
:1002CC007F04FEFDFCAB27AA26A925A8241200B3A7
:1002DC00A804A905AA06AB07AF2DAE2CAD2BAC2AF2
:1002EC0012013E8F318E308D2F8C2EE529640170DA
:1002FC00107B0CFAF9F812013E8F318E308D2F8C59
:10030C002EC3E49531F531E49530F5307401952F19
:10031C00F52FE4952EF52EE5287028E52970085365
:10032C008EF3438E048003538EF3E531FFE48FD7B5
:10033C00AF31AE30AD2FAC2E78081201DE8FD64324
:10034C008E1022E529700853D18F43D1208003539E
:10035C00D18FE531FFE48FD3AF31AE30AD2FAC2E62
:0A036C0078081201DE8FD243D18021
:010376002264
:030963008F85225B
:03096600AF852238
:03003B0002073E7B
:10073E00C0E0E5D830E00653D8FE53C8EFE5D83018
:0B074E00E10653D8FD43C810D0E03294
:0F0858001204C063C8207F907E0112063E80F418
:1004C00075BA80800090FE027480F090FE02E054C5
:1004D0000160F890FE017402F090FE00E4F0E0F09C
:1004E000E054F7F0E4F5BA53C9EF53CAEF53C9EF3C
:1004F00043CA1053C9DF53CADF43C92043CA20F59A
:10050000E9F5F9F5D8F5D9F5DAF5DBF5DCF5DDF542
:10051000EAF5EBF5ECF5EDF5FAF5FBF5FCF5FDF597
:10052000F2F5F3F5F4F5F543D90875DA1075DB103B
:10053000F5E9F5F943DA0143DB0143A88043D840EC
:010540002298
:10003E0075F020800E75F010800575F0087D007E3D
:10004E00007F003392D530D5031201D0EC3340102F
:10005E00EF33FFEE33FEED33FDEC33FCD5F0ED2246
:0E006E00E5F0247EA2D513CC92E7CDCEFF2282
:10007C00EDD2E7CD33EC3392D524814006E4FFFE7C
:10008C00FDFC22FCE4CFCECDCC24E0501174FF80DB
:10009C00EDC3CC13CCCD13CDCE13CECF13CF047078
:0700AC00F030D5DE0201D0A7
:1000B300E88FF0A4CC8BF0A42CFCE98EF0A42CFCEC
:1000C3008AF0EDA42CFCEA8EF0A4CDA8F08BF0A46A
:1000D3002DCC3825F0FDE98FF0A42CCD35F0FCEBC9
:1000E3008EF0A4FEA9F0EB8FF0A4CFC5F02ECD398E
:0F00F300FEE43CFCEAA42DCE35F0FDE43CFC22FB
:1001020075F008758200EF2FFFEE33FECD33CDCCB4
:1001120033CCC58233C5829BED9AEC99E582984037
:100122000CF582EE9BFEED9AFDEC99FC0FD5F0D614
:10013200E4CEFBE4CDFAE4CCF9A88222B800C1B93E
:100142000059BA002DEC8BF084CFCECDFCE5F0CB7C
:10015200F97818EF2FFFEE33FEED33FDEC33FCEBB5
:1001620033FB10D703994004EB99FB0FD8E5E4F970
:10017200FA227818EF2FFFEE33FEED33FDEC33FC5D
:10018200C933C910D7059BE99A4007EC9BFCE99A51
:10019200F90FD8E0E4C9FAE4CCFB2275F010EF2F96
:1001A200FFEE33FEED33FDCC33CCC833C810D70796
:1001B2009BEC9AE899400AED9BFDEC9AFCE899F8D1
:0E01C2000FD5F0DAE4CDFBE4CCFAE4C8F92264
:0E01D000C3E49FFFE49EFEE49DFDE49CFC2240
:1001DE00E8600FECC313FCED13FDEE13FEEF13FFFF
:0301EE00D8F12223
:00000001FF
