:030000000208866D
:0C088600787FE4F6D8FD7581400207542D
:10077200AD07AC06E4120008120041D3EF9400EE7C
:0D0782009400400800EF1F70F21E80EF226F
:1006F5008E3D8F3ED3E53E9400E53D94004011E5E7
:100705003E153E7002153D7FE87E0312077280E4B8
:0107150022C1
:0808AA00AF8CEFFEAD8AEDFFFB
:0108B2002223
:0808B300AF8DEFFEAD8BEDFFF0
:0108BB00221A
:0808BC00AFD6EFFEADD7EDFF52
:0108C4002211
:0808C500AFD4EFFEADD5EDFF4D
:0108CD002208
:0808CE00AFD2EFFEADD3EDFF48
:0108D60022FF
:1005B100E4F53FF54053BCF0EF42BC7F017E0012F1
:1005C10006F543BC40E5BC30E5FB53BCDFAFBDEFF6
:0A05D100ADBEF53FEDF540AE3FFF73
:0105DB0022FD
:1006AF0075C78375C501EFF5C4EEF5C375C65A75E9
:1006BF00C6A500ADC2E4F5C7F5C5F5C675C380F58F
:0306CF00C4AF05B0
:0106D2002205
:1006D30075C78375C502EFF5C4EEF5C38DC275C644
:1006E3005A75C6A500E4F5C7F5C5F5C675C380F50B
:0206F300C4221F
:1007160075C78375C503EFF5C4EEF5C375C65A757F
:10072600C6A500E4F5C7F5C5F5C675C380F5C422B0
:0808D700AFF9EFFEADE9EDFF02
:0108DF0022F6
:0808E000AFFAEFFEADEAEDFFF7
:0108E80022ED
:0808E900AFFBEFFEADEBEDFFEC
:0108F10022E4
:0808F200AFFCEFFEADECEDFFE1
:0108FA0022DB
:0808FB00AFFDEFFEADEDEDFFD6
:0109030022D1
:1007A500AD0753F2FDE425E0FFEF42F2ED543FF5CE
:0207B500FA2226
:0909040053F2FEEF543FF5EA2224
:1007B700AD0753F2FDE425E0FFEF42F2ED547FF57C
:0207C700FA2214
:09090D0053F2FEEF547FF5EA22DB
:10084600AD0753F2FDE425E0FFEF42F2EDF5FA22A3
:07094C0053F2FEEFF5EA2271
:1004FD00AD07AC0653F2CDE425E0FFEF42F2EC542C
:10050D0002FEE47805C333CE33CED8F942F2E4C40B
:0D051D00F8540FC868FFEF42F2EDF5FA2226
:1005DC00AD07AC0653F2F2EC5402FEE47803C333DD
:1005EC00CE33CED8F942F2EC5401FEE47802C33398
:0B05FC00CE33CED8F942F2EDF5EA2232
:1007C900AD0753F3FDE425E0FFEF42F3ED543FF5A8
:0207D900FB2201
:0909160053F3FEEF543FF5EB2210
:1007DB00AD0753F3FDE425E0FFEF42F3ED547FF556
:0207EB00FB22EF
:09091F0053F3FEEF547FF5EB22C7
:10085600AD0753F3FDE425E0FFEF42F3EDF5FB2290
:0709530053F3FEEFF5EB2268
:10052A00AD07AC0653F3CDE425E0FFEF42F3EC54FC
:10053A0002FEE47805C333CE33CED8F942F3E4C4DD
:0D054A00F8540FC868FFEF42F3EDF5FB22F7
:10060700AD07AC0653F3F2EC5402FEE47803C333B0
:10061700CE33CED8F942F3EC5401FEE47802C3336B
:0B062700CE33CED8F942F3EDF5EB2204
:1007ED00AD0753F4FDE425E0FFEF42F4ED543FF582
:0207FD00FC22DC
:0909280053F4FEEF543FF5EC22FC
:1007FF00AD0753F4FDE425E0FFEF42F4ED547FF530
:02080F00FC22C9
:0909310053F4FEEF547FF5EC22B3
:10086600AD0753F4FDE425E0FFEF42F4EDF5FC227D
:07095A0053F4FEEFF5EC225F
:10055700AD07AC0653F4CDE425E0FFEF42F4EC54CD
:1005670002FEE47805C333CE33CED8F942F4E4C4AF
:0D057700F8540FC868FFEF42F4EDF5FC22C8
:10063200AD07AC0653F4F2EC5402FEE47803C33384
:10064200CE33CED8F942F4EC5401FEE47802C3333F
:0B065200CE33CED8F942F4EDF5EC22D7
:10081100AD0753F5FDE425E0FFEF42F5ED543FF55B
:02082100FD22B6
:09093A0053F5FEEF543FF5ED22E8
:10082300AD0753F5FDE425E0FFEF42F5ED547FF509
:02083300FD22A4
:0909430053F5FEEF547FF5ED229F
:10087600AD0753F5FDE425E0FFEF42F5EDF5FD226A
:0709610053F5FEEFF5ED2256
:10058400AD07AC0653F5CDE425E0FFEF42F5EC549E
:1005940002FEE47805C333CE33CED8F942F5E4C481
:0D05A400F8540FC868FFEF42F5EDF5FD2299
:10065D00AD07AC0653F5F2EC5402FEE47803C33358
:10066D00CE33CED8F942F5EC5401FEE47802C33313
:0B067D00CE33CED8F942F5EDF5ED22AA
:04078F0090FE81F067
:1007930075BA8090FE82E030E6F9E054BFF0E4F5EC
:0207A300BA2278
:0C08920075BA80740112078FE4F5BA22D9
:0C089E0075BA80740612078FE4F5BA22C8
:1007360075BA8090FE86EFF090FE817402F0120783
:0E0746009390FE817403F0120793E4F5BA223B
:10068800E4FE75BA8090FE817404F012079390FE20
:1006980087E0FE90FE82EFF090FE817405F012076D
:0606A80093E4F5BAAF0671
:0106AE002229
:10083500E4FE8FCFE5CD30E7FBAECF75CD80AF06BB
:010845002290
:080352008F0B8E0A8D098C0847
:10035A00E4F515F514F513F5127598507F04FEFDB2
:10036A00FCAB0BAA0AA909A808120078A804A905D7
:10037A00AA06AB07AF11AE10AD0FAC0E1201038F78
:10038A00158E148D138C12E50D640170107B0CFA16
:10039A00F9F81201038F158E148D138C12C3E4958C
:1003AA0015F515E49514F51474019513F513E495F0
:1003BA0012F512E50C7028E50D7008538EF3438E82
:1003CA00048003538EF3E515FFE48FD7AF15AE14FF
:1003DA00AD13AC1278081201B98FD6438E1022E5FC
:1003EA000D538EBF438E40538FFD53890FE515FF82
:1003FA00E48F8BAF15AE14AD13AC1278081201B9A5
:05040A008F8D438840C6
:01040F0022CA
:030968008F992242
:03096B00AF99221F
:060410008D34AB07AA06C3
:10041600E4F53CF53BF53AF539759A10AE02EB7802
:1004260002C333CE33CED8F9FBAA06E4F9F8AF38C7
:10043600AE37AD36AC351201038F3C8E3B8D3A8C10
:1004460039E534640170107B0CFAF9F81201038F58
:100456003C8E3B8D3A8C39C3E4953CF53CE4953BA8
:10046600F53B7401953AF53AE49539F539E534707A
:1004760008538EF3438E048003538EF3E53CFFE46A
:100486008FD7AF3CAE3BAD3AAC3978081201B98F85
:04049600D6438E10AB
:01049A00223F
:03096E008F9B223A
:03097100AF9B2217
:0801CC008F198E188D178C1697
:1001D400E4F523F522F521F520E51A4410F5ACE405
:1001E4007F04FEFDFCAB19AA18A917A81612007803
:1001F400A804A905AA06AB07AF1FAE1EAD1DAC1C13
:100204001201038F238E228D218C20E51B64017043
:10021400107B0CFAF9F81201038F238E228D218CA6
:1002240020C3E49523F523E49522F5227401952156
:10023400F521E49520F520E51A7028E51B70085394
:100244008EF3438E048003538EF3E523FFE48FD7AC
:10025400AF23AE22AD21AC2078081201B98FD6436A
:100264008E1022E51B700853D1F843D1028003534A
:10027400D1F8E523FFE48FD5AF23AE22AD21AC2026
:0A02840078081201B98FD443D108A5
:01028E00224D
:030974008FAD2222
:03097700AFAD22FF
:08028F008F278E268D258C249B
:10029700E4F531F530F52FF52EE5284410F584E423
:1002A7007F04FEFDFCAB27AA26A925A82412007807
:1002B700A804A905AA06AB07AF2DAE2CAD2BAC2A17
:1002C7001201038F318E308D2F8C2EE5296401703A
:1002D700107B0CFAF9F81201038F318E308D2F8CB9
:1002E7002EC3E49531F531E49530F5307401952F3F
:1002F700F52FE4952EF52EE5287028E5297008538B
:100307008EF3438E048003538EF3E531FFE48FD7DA
:10031700AF31AE30AD2FAC2E78081201B98FD6436E
:100327008E1022E529700853D18F43D120800353C3
:10033700D18FE531FFE48FD3AF31AE30AD2FAC2E87
:0A03470078081201B98FD243D1806B
:010351002289
:03097A008F852244
:03097D00AF852221
:1007540012049B1208B3E4FCFDFB7A80F9F8D3126F
:0E07640001A3500543C82080EA53C8DF80E59A
:10049B0075BA80800090FE027480F090FE02E054EA
:1004AB000160F890FE017402F090FE00E4F0E0F0C1
:1004BB00E054F7F0E4F5BA53B1EF53B2EF53B1EFA9
:1004CB0043B21053B1DF53B2DF43B12053B2DF530A
:1004DB00C9DF53CADF43C92043CA20538EBF538F92
:1004EB00FD438F0253890F438950F58BF58D43885C
:0204FB0040229D
:1000030075F020800E75F010800575F0087D007E78
:10001300007F003392D530D503120195EC334010A5
:10002300EF33FFEE33FEED33FDEC33FCD5F0ED2281
:0E003300E5F0247EA2D513CC92E7CDCEFF22BD
:10004100EDD2E7CD33EC3392D524814006E4FFFEB7
:10005100FDFC22FCE4CFCECDCC24E0501174FF8016
:10006100EDC3CC13CCCD13CDCE13CECF13CF0470B3
:07007100F030D5DE0201951D
:10007800E88FF0A4CC8BF0A42CFCE98EF0A42CFC27
:100088008AF0EDA42CFCEA8EF0A4CDA8F08BF0A4A5
:100098002DCC3825F0FDE98FF0A42CCD35F0FCEB04
:1000A8008EF0A4FEA9F0EB8FF0A4CFC5F02ECD39C9
:0F00B800FEE43CFCEAA42DCE35F0FDE43CFC2236
:1000C70075F008758200EF2FFFEE33FECD33CDCCF0
:1000D70033CCC58233C5829BED9AEC99E582984073
:1000E7000CF582EE9BFEED9AFDEC99FC0FD5F0D650
:1000F700E4CEFBE4CDFAE4CCF9A88222B800C1B97A
:100107000059BA002DEC8BF084CFCECDFCE5F0CBB7
:10011700F97818EF2FFFEE33FEED33FDEC33FCEBF0
:1001270033FB10D703994004EB99FB0FD8E5E4F9AB
:10013700FA227818EF2FFFEE33FEED33FDEC33FC98
:10014700C933C910D7059BE99A4007EC9BFCE99A8C
:10015700F90FD8E0E4C9FAE4CCFB2275F010EF2FD1
:10016700FFEE33FEED33FDCC33CCC833C810D707D1
:100177009BEC9AE899400AED9BFDEC9AFCE899F80C
:0E0187000FD5F0DAE4CDFBE4CCFAE4C8F9229F
:0E019500C3E49FFFE49EFEE49DFDE49CFC227B
:1001A300EB9FF5F0EA9E42F0E99D42F0EC6480C8D3
:0601B30064809845F02273
:1001B900E8600FECC313FCED13FDEE13FEEF13FF24
:0301C900D8F12248
:00000001FF
