:030000000209D71B
:0C09D700787FE4F6D8FD7581460205EA41
:1006F800AD07AC06E41200A8E4FBFAF97840120052
:10070800061200E1D3EF9400EE9400400800EF1FBA
:0607180070F21E80EF22CA
:10066B0043BA8090FF00E53DF0A3E53EF053BA7F1F
:04067B007F047E007A
:10067F008E3F8F40D3E5409400E53F94004011E555
:10068F004015407002153F7FE87E031206F880E4A4
:01069F002238
:0809FB00AF8CEFFEAD8AEDFFA9
:010A030022D0
:080A0400AF8DEFFEAD8BEDFF9D
:010A0C0022C7
:080A0D00AFD6EFFEADD7EDFFFF
:010A150022BE
:080A1600AFD4EFFEADD5EDFFFA
:010A1E0022B5
:080A1F00AFD2EFFEADD3EDFFF5
:010A270022AC
:1006CD00E4F541F54253BCF0EF42BC7F017E0012D0
:1006DD00067F43BC40E5BC30E5FB53BCDFAFBDEF4F
:0A06ED00ADBEF541EDF542AE41FF50
:0106F70022E0
:10071E0075C78375C501EFF5C4EEF5C375C65A7579
:10072E00C6A500ADC2E4F5C7F5C5F5C675C380F51F
:03073E00C4AF0540
:010741002295
:1007D20075C78375C502EFF5C4EEF5C38DC275C644
:1007E2005A75C6A500E4F5C7F5C5F5C675C380F50B
:0207F200C4221F
:1008780075C78375C503EFF5C4EEF5C375C65A751C
:10088800C6A500E4F5C7F5C5F5C675C380F5C4224D
:080A2800AFF9EFFEADE9EDFFAF
:010A300022A3
:080A3100AFFAEFFEADEAEDFFA4
:010A3900229A
:080A3A00AFFBEFFEADEBEDFF99
:010A42002291
:080A4300AFFCEFFEADECEDFF8E
:010A4B002288
:080A4C00AFFDEFFEADEDEDFF83
:010A5400227F
:1008B600AD0753F2FDED548025E0FFEF42F2ED5413
:0408C6003FF5FA22DE
:0E099F0053F2FEEF548042F2EF543FF5EA228D
:10090600AD0753F2FDE425E0FFEF42F2ED547FF52B
:02091600FA22C3
:090A550053F2FEEF547FF5EA2292
:10095F00AD0753F2FDE425E0FFEF42F2EDF5FA2289
:070A790053F2FEEFF5EA2243
:1007F400AD07AC0653F2CDEC5403C4F854F0C8E48E
:10080400C4540F48FBEC5404C3134B42F2EDF5FA05
:0108140022C1
:10074200AD07AC0653F2F2EC5403FEE47806CEC3D6
:1007520013CE13D8F9FBEC54041313543F4B42F25B
:04076200EDF5EA22A5
:1008CA00AD0753F3FDED548025E0FFEF42F3ED54FD
:0408DA003FF5FB22C9
:0E09AD0053F3FEEF548042F3EF543FF5EB227C
:10091800AD0753F3FDE425E0FFEF42F3ED547FF517
:02092800FB22B0
:090A5E0053F3FEEF547FF5EB2287
:10096F00AD0753F3FDE425E0FFEF42F3EDF5FB2276
:070A800053F3FEEFF5EB223A
:10081500AD07AC0653F3CDEC5403C4F854F0C8E46B
:10082500C4540F48FBEC5404C3134B42F3EDF5FBE2
:0108350022A0
:10076600AD07AC0653F3F2EC5403FEE47806CEC3B1
:1007760013CE13D8F9FBEC54041313543F4B42F336
:04078600EDF5EB2280
:1008DE00AD0753F4FDED548025E0FFEF42F4ED54E7
:0408EE003FF5FC22B4
:0E09BB0053F4FEEF548042F4EF543FF5EC226B
:10092A00AD0753F4FDE425E0FFEF42F4ED547FF503
:02093A00FC229D
:090A670053F4FEEF547FF5EC227C
:10097F00AD0753F4FDE425E0FFEF42F4EDF5FC2263
:070A870053F4FEEFF5EC2231
:10083600AD07AC0653F4CDEC5403C4F854F0C8E449
:10084600C4540F48FBEC5404C3134B42F4EDF5FCBF
:01085600227F
:10078A00AD07AC0653F4F2EC5403FEE47806CEC38C
:10079A0013CE13D8F9FBEC54041313543F4B42F411
:0407AA00EDF5EC225B
:1008F200AD0753F5FDED548025E0FFEF42F5ED54D1
:040902003FF5FD229E
:0E09C90053F5FEEF548042F5EF543FF5ED225A
:10093C00AD0753F5FDE425E0FFEF42F5ED547FF5EF
:02094C00FD228A
:090A700053F5FEEF547FF5ED2271
:10098F00AD0753F5FDE425E0FFEF42F5EDF5FD2250
:070A8E0053F5FEEFF5ED2228
:10085700AD07AC0653F5CDEC5403C4F854F0C8E427
:10086700C4540F48FBEC5404C3134B42F5EDF5FD9C
:01087700225E
:1007AE00AD07AC0653F5F2EC5403FEE47806CEC367
:1007BE0013CE13D8F9FBEC54041313543F4B42F5EC
:0407CE00EDF5ED2236
:0406350090FE81F0C2
:100639007543037544E890FE82E05440701CD3E58D
:10064900449400E54394004011E5441544700215B3
:10065900437F017E0012067F80DC90FE82E054BF5A
:01066900F0A0
:01066A00226D
:0C09E30043BA80740112063553BA7F221B
:0C09EF0043BA80740612063553BA7F220A
:1008980043BA8090FE86EFF090FE817402F0120653
:0E08A8003990FE817403F012063953BA7F2294
:0206A0008F4584
:1006A200E4F54643BA8090FE817404F01206399054
:1006B200FE87E0F546E545F490FE82F090FE8174F7
:0A06C20005F012063953BA7FAF4667
:0106CC00220B
:10094E00E4FE8FCFE5CD30E7FBAECF75CD80AF06A1
:01095E002276
:080426008F0B8E0A8D098C0872
:10042E00E4F515F514F513F5127598507F04FEFDDD
:10043E00FCAB0BAA0AA909A808120162A804A90517
:10044E00AA06AB07AF11AE10AD0FAC0E1201ED8FB9
:10045E00158E148D138C12E50D640170107B0CFA41
:10046E00F9F81201ED8F158E148D138C12C3E495CD
:10047E0015F515E49514F51474019513F513E4951B
:10048E0012F512E50C7028E50D7008538EF3438EAD
:10049E00048003538EF3E515FFE48FD7AF15AE142A
:1004AE00AD13AC12780812028D8FD6438E1022E552
:1004BE000D538EBF438E40538FFD53890FE515FFAD
:1004CE00E48F8BAF15AE14AD13AC12780812028DFB
:0504DE008F8D438840F2
:0104E30022F6
:030A95008F992214
:030A9800AF9922F1
:0604E4008D34AB07AA06EF
:1004EA00E4F53CF53BF53AF539759A10AE02EB782E
:1004FA0002C333CE33CED8F9FBAA06E4F9F8AF38F3
:10050A00AE37AD36AC351201ED8F3C8E3B8D3A8C51
:10051A0039E534640170107B0CFAF9F81201ED8F99
:10052A003C8E3B8D3A8C39C3E4953CF53CE4953BD3
:10053A00F53B7401953AF53AE49539F539E53470A5
:10054A0008538EF3438E048003538EF3E53CFFE495
:10055A008FD7AF3CAE3BAD3AAC39780812028D8FDB
:04056A00D6438E10D6
:01056E00226A
:030A9B008F9B220C
:030A9E00AF9B22E9
:0802A0008F198E188D178C16C2
:1002A800E4F523F522F521F520E51A4410F5ACE430
:1002B8007F04FEFDFCAB19AA18A917A81612016243
:1002C800A804A905AA06AB07AF1FAE1EAD1DAC1C3E
:1002D8001201ED8F238E228D218C20E51B64017085
:1002E800107B0CFAF9F81201ED8F238E228D218CE8
:1002F80020C3E49523F523E49522F5227401952182
:10030800F521E49520F520E51A7028E51B700853BF
:100318008EF3438E048003538EF3E523FFE48FD7D7
:10032800AF23AE22AD21AC20780812028D8FD643C0
:100338008E1022E51B700853D1F843D10280035375
:10034800D1F8E523FFE48FD5AF23AE22AD21AC2051
:0A035800780812028D8FD443D108FB
:010362002278
:030AA1008FAD22F4
:030AA400AFAD22D1
:080363008F278E268D258C24C6
:10036B00E4F531F530F52FF52EE5284410F584E44E
:10037B007F04FEFDFCAB27AA26A925A82412016247
:10038B00A804A905AA06AB07AF2DAE2CAD2BAC2A42
:10039B001201ED8F318E308D2F8C2EE5296401707B
:1003AB00107B0CFAF9F81201ED8F318E308D2F8CFA
:1003BB002EC3E49531F531E49530F5307401952F6A
:1003CB00F52FE4952EF52EE5287028E529700853B6
:1003DB008EF3438E048003538EF3E531FFE48FD706
:1003EB00AF31AE30AD2FAC2E780812028D8FD643C5
:1003FB008E1022E529700853D18F43D120800353EF
:10040B00D18FE531FFE48FD3AF31AE30AD2FAC2EB2
:0A041B00780812028D8FD243D180C1
:0104250022B4
:030AA7008F852216
:030AAA00AF8522F3
:1005EA00E4F53DF53E12056F753D03753E20C3E502
:1005FA003E9498E53D9408501012066B7405253E0A
:10060A00F53EE4353DF53D80E5753D08753E98D3E8
:10061A00E53E9420E53D940340CE12066B74FB251B
:0B062A003EF53E74FF353DF53D80E4D9
:10056F0043BA80800090FE027480F090FE02E05447
:10057F000160F890FE017402F090FE00E4F0E0F0EC
:10058F00E054F7F053BA7F43BA8090FFF2E4F0E003
:10059F00440BF053BA7F43BA8090FFF17420F09070
:1005AF00FFF0744EF053BA7F43BA8090FF04E054CB
:1005BF0007F0E04480F0A3E4F053BA7F43BA809091
:1005CF00FF007403F0A374E8F053BA7F43BA80A31B
:0B05DF00E4F0A3F053BA7F43FE80223B
:10000300020157EC5D046005E85904700302014DD9
:10001300120118580460F6EC4860F2EC7004FDFE1F
:10002300FF22C860DB2481C85009C39860025006D0
:100033000201549850CAF582E9294B4A7005AB82F4
:1000430002014375F0007C1A7880C3EF9BEE9AEDB2
:1000530099400DC3EF9BFFEE9AFEED99FDE842F048
:10006300DC23ACF0D0E0FFD0E0FED0E0FDAB82209B
:10007300E7101BEB60BAEC2CFCEF33FFEE33FEED25
:1000830033FD02012FE803F830E705C0F075F000F7
:10009300EF2FFFEE33FEED33FD40B830E7C280AA09
:1000A30075F020800E75F010800575F0087D007ED8
:1000B300007F003392D530D50312027FEC3340101A
:1000C300EF33FFEE33FEED33FDEC33FCD5F0ED22E1
:0E00D300E5F0247EA2D513CC92E7CDCEFF221D
:1000E100EDD2E7CD33EC3392D524814006E4FFFE17
:1000F100FDFC22FCE4CFCECDCC24E0501174FF8076
:10010100EDC3CC13CCCD13CDCE13CECF13CF047012
:07011100F030D5DE02027F91
:10011800E9D2E7C933E833F892D5EDD2E7CD33EC2D
:0701280033FC5002B2D522A6
:10012F00EC30E7100FBF000C0EBE00080DBD000431
:10013F000BEB6014A2D5EB13FCED92E7FD2274FFDD
:10014F00FCFDFEFF22E480F8A2D574FF13FC7D8036
:03015F00E480EF4A
:10016200E88FF0A4CC8BF0A42CFCE98EF0A42CFC3C
:100172008AF0EDA42CFCEA8EF0A4CDA8F08BF0A4BA
:100182002DCC3825F0FDE98FF0A42CCD35F0FCEB19
:100192008EF0A4FEA9F0EB8FF0A4CFC5F02ECD39DE
:0F01A200FEE43CFCEAA42DCE35F0FDE43CFC224B
:1001B10075F008758200EF2FFFEE33FECD33CDCC05
:1001C10033CCC58233C5829BED9AEC99E582984088
:1001D1000CF582EE9BFEED9AFDEC99FC0FD5F0D665
:1001E100E4CEFBE4CDFAE4CCF9A88222B800C1B98F
:1001F1000059BA002DEC8BF084CFCECDFCE5F0CBCD
:10020100F97818EF2FFFEE33FEED33FDEC33FCEB05
:1002110033FB10D703994004EB99FB0FD8E5E4F9C0
:10022100FA227818EF2FFFEE33FEED33FDEC33FCAD
:10023100C933C910D7059BE99A4007EC9BFCE99AA1
:10024100F90FD8E0E4C9FAE4CCFB2275F010EF2FE6
:10025100FFEE33FEED33FDCC33CCC833C810D707E6
:100261009BEC9AE899400AED9BFDEC9AFCE899F821
:0E0271000FD5F0DAE4CDFBE4CCFAE4C8F922B4
:0E027F00C3E49FFFE49EFEE49DFDE49CFC2290
:10028D00E8600FECC313FCED13FDEE13FEEF13FF4F
:03029D00D8F12273
:00000001FF
