:03000000021638AD
:0C163800787FE4F6D8FD75812002167F53
:101A1D003A00504D00414D002020002F002E004374
:101A2D00002000323400202020200053554E004D60
:101A3D004F4E0054554500574544005448520046FA
:101A4D0052490053415400000609090600000020C8
:101A5D0020202000202020202020002E20202020AB
:101D0E004100770A4100700A4100730A41006F01D9
:101D1E0041007401410072014100750141007601DC
:041D2E0041007101FE
:101F2C00AD07AC06E41202901202C9D3EF9400EE96
:0D1F3C009400400800EF1F70F21E80EF229D
:041CAD007F5A7E00DC
:101CB10090000DEEF0A3EFF0D390000EE0940090B1
:101CC100000DE094004015A3E024FFF090000DE02A
:0D1CD10034FFF07FE87E03121F2C80DC2220
:08212B00AF8CEFFEAD8AEDFF61
:012133002289
:08213400AF8DEFFEAD8BEDFF56
:01213C002280
:08213D00AFD6EFFEADD7EDFFB8
:012145002277
:08214600AFD4EFFEADD5EDFFB3
:01214E00226E
:08214F00AFD2EFFEADD3EDFFAE
:012157002265
:101C3F00E4900078F0A3F053BCF0EF42BC7F017E3C
:101C4F0000121CB143BC40E5BC30E5FB53BCDFAF19
:101C5F00BDEFFFADBEED900078CFF0A3EFF0900099
:061C6F0078E0FEA3E0FF97
:011C7500224C
:101D330075C78375C501EFF5C4EEF5C375C65A754E
:101D4300C6A500ADC2E4F5C7F5C5F5C675C380F5F4
:031D5300C4AF0515
:011D5600226A
:101D570075C78375C502EFF5C4EEF5C3AF058FC22E
:101D670075C65A75C6A500E4F5C7F5C5F5C675C3AA
:041D770080F5C4220D
:101EB20075C78375C503EFF5C4EEF5C375C65A75CC
:101EC200C6A500E4F5C7F5C5F5C675C380F5C422FD
:08215800AFF9EFFEADE9EDFF68
:01216000225C
:08216100AFFAEFFEADEAEDFF5D
:012169002253
:08216A00AFFBEFFEADEBEDFF52
:01217200224A
:08217300AFFCEFFEADECEDFF47
:01217B002241
:08217C00AFFDEFFEADEDEDFF3C
:012184002238
:101F8F00AD0753F2FDED548025E0FFEF42F2ED5423
:041F9F003FF5FA22EE
:0E20C00053F2FEEF548042F2EF543FF5EA2255
:101FF300AD0753F2FDE425E0FFEF42F2ED547FF528
:02200300FA22BF
:0921850053F2FEEF547FF5EA224B
:10208000AD0753F2FDE425E0FFEF42F2EDF5FA2251
:0721A90053F2FEEFF5EA22FC
:101E2E00AD07AC0653F2CDEC5403C4F854F0C8E43D
:101E3E00C4540F48FBEC5404C3134B42F2EDF5FAB5
:011E4E002271
:101D7B00AD07AC0653F2F2EC5403FEE47806CEC387
:101D8B0013CE13D8F9FBEC54041313543F4B42F20C
:041D9B00EDF5EA2256
:101FA300AD0753F3FDED548025E0FFEF42F3ED540D
:041FB3003FF5FB22D9
:0E20CE0053F3FEEF548042F3EF543FF5EB2244
:10200500AD0753F3FDE425E0FFEF42F3ED547FF513
:02201500FB22AC
:09218E0053F3FEEF547FF5EB2240
:10209000AD0753F3FDE425E0FFEF42F3EDF5FB223E
:0721B00053F3FEEFF5EB22F3
:101E4F00AD07AC0653F3CDEC5403C4F854F0C8E41B
:101E5F00C4540F48FBEC5404C3134B42F3EDF5FB92
:011E6F002250
:101D9F00AD07AC0653F3F2EC5403FEE47806CEC362
:101DAF0013CE13D8F9FBEC54041313543F4B42F3E7
:041DBF00EDF5EB2231
:101FB700AD0753F4FDED548025E0FFEF42F4ED54F7
:041FC7003FF5FC22C4
:0E20DC0053F4FEEF548042F4EF543FF5EC2233
:10201700AD0753F4FDE425E0FFEF42F4ED547FF5FF
:02202700FC2299
:0921970053F4FEEF547FF5EC2235
:1020A000AD0753F4FDE425E0FFEF42F4EDF5FC222B
:0721B70053F4FEEFF5EC22EA
:101E7000AD07AC0653F4CDEC5403C4F854F0C8E4F9
:101E8000C4540F48FBEC5404C3134B42F4EDF5FC6F
:011E9000222F
:101DC300AD07AC0653F4F2EC5403FEE47806CEC33D
:101DD30013CE13D8F9FBEC54041313543F4B42F4C2
:041DE300EDF5EC220C
:101FCB00AD0753F5FDED548025E0FFEF42F5ED54E1
:041FDB003FF5FD22AF
:0E20EA0053F5FEEF548042F5EF543FF5ED2222
:10202900AD0753F5FDE425E0FFEF42F5ED547FF5EB
:02203900FD2286
:0921A00053F5FEEF547FF5ED222A
:1020B000AD0753F5FDE425E0FFEF42F5EDF5FD2218
:0721BE0053F5FEEFF5ED22E1
:101E9100AD07AC0653F5CDEC5403C4F854F0C8E4D7
:101EA100C4540F48FBEC5404C3134B42F5EDF5FD4C
:011EB100220E
:101DE700AD07AC0653F5F2EC5403FEE47806CEC318
:101DF70013CE13D8F9FBEC54041313543F4B42F59D
:041E0700EDF5ED22E6
:041B830090FE81F05F
:101B870090007A7403F0A374E8F090FE82E054406A
:101B97007024D390007BE0940090007AE09400409A
:101BA70015A3E024FFF090007AE034FFF07F017E78
:0D1BB70000121CB180D490FE82E054BFF0FB
:011BC40022FE
:0C21130075BA807401121B83E4F5BA2237
:0C211F0075BA807406121B83E4F5BA2226
:101ED20075BA8090FE86EFF090FE817402F0121BBC
:0E1EE2008790FE817403F0121B87E4F5BA228C
:051C760090007CEFF07E
:101C7B00E4A3F075BA8090FE817404F0121B879078
:101C8B00FE87E090007DF090007CE0F490FE82F007
:101C9B0090FE817405F0121B87E4F5BA90007DE08D
:011CAB00FF39
:011CAC002215
:101A6D00E490000AF0A304F0A3742CF08FCFE5CD21
:101A7D0020E724D390000CE0940090000BE094003C
:101A8D004015A3E024FFF090000BE034FFF07F0140
:101A9D007E00121CB180D743CD8043CD4090000A0B
:051AAD00E5CFF0E0FFB1
:011AB2002211
:0611650090000F1205F9D5
:10116B0090001912060500000000759850E47F04EA
:10117B00FEFDFC90000FE0F8A3E0F9A3E0FAA3E07A
:10118B00FB1204A5A804A905AA06AB07900015E05D
:10119B00FCA3E0FDA3E0FEA3E0FF120530900019D5
:1011AB001205F9900014E06401701D900019E0FC29
:1011BB00A3E0FDA3E0FEA3E0FFE47B0CFAF9F81239
:1011CB0005309000191205F9900019E0F8A3E0F929
:1011DB00A3E0FAA3E0FBC3E49BFFE49AFE7401993E
:1011EB00FDE498FC9000191205F9900013E07032A1
:1011FB00A3E07008538EF3438E048003538EF39059
:10120B000019A3A3A3E0FF8FD7900019E0FCA3E084
:10121B00FDA3E0FEA3E0FF78081205E68FD6438E10
:10122B001022900014E0538EBF438E40538FFD531A
:10123B00890F900019A3A3A3E0FF8F8B900019E0F7
:10124B00FCA3E0FDA3E0FEA3E0FF78081205E68F08
:04125B008D438840F7
:01125F00226C
:0321CA008F9922C8
:0321CD00AF9922A5
:09126000900048EDF0AB07AA066E
:1012690090004D12060500000000759A10AE02EBC1
:101279007802C333CE33CED8F9FBAA06E4F9F89045
:101289000049E0FCA3E0FDA3E0FEA3E0FF12053066
:1012990090004D1205F9900048E06401701D90001E
:1012A9004DE0FCA3E0FDA3E0FEA3E0FFE47B0CFA24
:1012B900F9F812053090004D1205F990004DE0F84B
:1012C900A3E0F9A3E0FAA3E0FBC3E49BFFE49AFEE1
:1012D900740199FDE498FC90004D1205F9900048BD
:1012E900E07008538EF3438E048003538EF390000D
:1012F9004DA3A3A3E0FF8FD790004DE0FCA3E0FD31
:10130900A3E0FEA3E0FF78081205E68FD6438E100E
:0113190022B1
:0321D0008F9B22C0
:0321D300AF9B229D
:060F630090001D1205F9CB
:100F690090002712060500000000900021E04410BF
:100F7900F5ACE47F04FEFDFC90001DE0F8A3E0F968
:100F8900A3E0FAA3E0FB1204A5A804A905AA06ABED
:100F990007900023E0FCA3E0FDA3E0FEA3E0FF121D
:100FA90005309000271205F9900022E06401701DB8
:100FB900900027E0FCA3E0FDA3E0FEA3E0FFE47BB3
:100FC9000CFAF9F81205309000271205F99000275C
:100FD900E0F8A3E0F9A3E0FAA3E0FBC3E49BFFE494
:100FE9009AFE740199FDE498FC9000271205F99086
:100FF9000021E07032A3E07008538EF3438E048021
:1010090003538EF3900027A3A3A3E0FF8FD790008B
:1010190027E0FCA3E0FDA3E0FEA3E0FF78081205AA
:10102900E68FD6438E1022900022E0700853D1F843
:1010390043D102800353D1F8900027A3A3A3E0FF73
:101049008FD5900027E0FCA3E0FDA3E0FEA3E0FF1D
:0A10590078081205E68FD443D10891
:01106300226A
:0321D6008FAD22A8
:0321D900AFAD2285
:0610640090002B1205F9BB
:10106A009000351206050000000090002FE04410A1
:10107A00F584E47F04FEFDFC90002BE0F8A3E0F980
:10108A00A3E0FAA3E0FB1204A5A804A905AA06ABEB
:10109A0007900031E0FCA3E0FDA3E0FEA3E0FF120D
:1010AA0005309000351205F9900030E06401701D9A
:1010BA00900035E0FCA3E0FDA3E0FEA3E0FFE47BA3
:1010CA000CFAF9F81205309000351205F99000353E
:1010DA00E0F8A3E0F9A3E0FAA3E0FBC3E49BFFE492
:1010EA009AFE740199FDE498FC9000351205F99076
:1010FA00002FE07032A3E07008538EF3438E048011
:10110A0003538EF3900035A3A3A3E0FF8FD790007B
:10111A0035E0FCA3E0FDA3E0FEA3E0FF780812059A
:10112A00E68FD6438E1022900030E0700853D18F9C
:10113A0043D120800353D18F900035A3A3A3E0FFAE
:10114A008FD3900035E0FCA3E0FDA3E0FEA3E0FF0F
:0A115A0078081205E68FD243D18019
:011164002268
:0321DC008F8522CA
:0321DF00AF8522A7
:1015A3007F0A7E00121CB153B1DF53B2DF53B1DFA8
:1015B30043B22053B1BF53B2BF53B1BF43B2405341
:1015C300B17F53B27F53B17F43B2805393EF5394B0
:1015D300EF5393EF4394105393DF5394DF5393DF0D
:1015E3004394205393BF5394BF5393BF43944053A7
:1015F300937F53947F53937F43948053B0BF53B0EF
:10160300DF7F0A7E00121CB1121FDFE4FD7F33125D
:10161300204DE4FD7F3212204DE4FD7F2812204D42
:10162300E4FD7F0C12204DE4FD7F0112204DE4FD0B
:051633007F0602204DBE
:10204D00ED600814700843B020800353B0DF021315
:01205D00C6BC
:0513C60090000BEFF0A8
:1013CB00EF5480C4131313540114700543808080B1
:1013DB000353807F90000BE0FF5440C4131354035E
:1013EB0014700543804080035380BFEF5420C41317
:1013FB00540714700543802080035380DF90000B4B
:10140B00E05410FFC4540FFE14700543801080038A
:10141B005380EF121FDF90000BE0FF5408131313E0
:10142B00541F147005438080800353807FEF540456
:10143B001313543F14700543804080035380BF90B7
:10144B00000BE0FF5402C31314700543802080038C
:10145B005380DFEF5401FE1470054380108003535B
:05146B0080EF021FDF0D
:061C04007BFF7A1A791D36
:101C0A00900006EBF0A3EAF0A3E9F0900006E0FBEF
:101C1A00A3E475F00112048FA9F0FA120440FF7DC3
:101C2A000112204D900006E0FBA3E0FAA3E0F912AE
:051C3A00044070D722F8
:0521C5007D0102204D28
:0E20F800E4FD7F0112204DE4FD7F0202204D29
:041EF000E4FD7F0985
:101EF40090000AEFF0ED7005E04480800690000A3F
:0A1F0400E044C0FFE4FD12204D226E
:101FDF0043B0807F027E00121CB153B07F7F027E20
:041FEF0000021CB11F
:10197C00E4900000F078017C007D017BFF7A1A79FD
:10198C0054FE7F0812041AE4FD7F4012204DE490AF
:10199C000000F0900000E0FFC39408748094805025
:1019AC001974012FF582E43400F583E0FF7D0112F8
:1019BC00204D900000E004F080D9E4FD7F800220EF
:0119CC004DCD
:10203B00900005EBF0121EF4900005E0FF7D01020D
:02204B00204D26
:0E0E1700900066EFF0A3EDF0A3EAF0A3EBF07D
:100E2500786A7C007D017BFF7A1A795C7E007F05FC
:100E350012041A900068E0FEA3E0FFC3EE648094FC
:100E4500805013A3742DF0C3E49FFFE49E900068C7
:100E5500F0A3EFF0800690006A7420F0900068E03F
:100E6500FEA3E0FFD39463EE648094804057D3EFF4
:100E750094E7EE64809483504C900068E0FAA3E018
:100E8500FB7C007D64120459EF243090006BF07CEC
:100E9500007D64AF03AE021204597E007F0ACFCDF8
:100EA500CFCECCCE120459EF2430A3F0900068E0E9
:100EB500FEA3E0FF7C007D0A120459ED243090006A
:100EC5006DF0020F4F900068E0FEA3E0FFD3940998
:100ED500EE648094804044D3EF9463EE6480948004
:100EE5005039900068E0FAA3E0FB7C007D641204B1
:100EF500597E007F0ACFCDCFCECCCE120459EF2438
:100F05003090006BF07C007D0AAF03AE02120459ED
:100F1500ED2430A3F0A37420F0802F900068E0FE4C
:100F2500A3E0FFC3EE64809480401FD3EF9409EEE5
:100F35006480948050147C007D0A120459ED24309D
:100F450090006BF0A37420F0A3F0900066E0FFA37F
:0E0F5500E0FD121EF47B017A00796A021C0A8C
:08068B00900039EFF0A3EDF03F
:10069300783F7C007D017BFF7A1A79617E007F07BA
:1006A30012041A90003BE0FCA3E0FDA3E0FEA3E0EC
:1006B300FFEC335016A3742DF090003BA3A3A3E0EB
:1006C3001205C290003B1205F9800690003F74208A
:1006D300F0E47F0F7E27FDFC90003BE0F8A3E0F9F8
:1006E300A3E0FAA3E0FBD31205D050030207C2E450
:1006F3007B107A27F9F890003BE0FCA3E0FDA3E030
:10070300FEA3E0FF121B3FEF2430900040F0E47B98
:10071300107A27F9F890003BE0FCA3E0FDA3E0FE8C
:10072300A3E0FF121B3FAC00AD01AE02AF03E47BBD
:10073300E87A03F9F8121B3FEF2430900041F0E40C
:100743007BE87A03F9F890003BE0FCA3E0FDA3E02B
:10075300FEA3E0FF121B3FAC00AD01AE02AF03E40A
:100763007B64FAF9F8121B3FEF2430900042F0E467
:100773007B64FAF9F890003BE0FCA3E0FDA3E0FE04
:10078300A3E0FF121B3FAC00AD01AE02AF03E47B5D
:100793000AFAF9F8121B3FEF2430900043F0E47B90
:1007A3000AFAF9F890003BE0FCA3E0FDA3E0FEA306
:1007B300E0FF121B3FEB2430900044F0020A12E4E6
:1007C3007FE77E03FDFC90003BE0F8A3E0F9A3E0A4
:1007D300FAA3E0FBD31205D050030208AEE47F0F67
:1007E3007E27FDFC90003BE0F8A3A3A3E0D3120512
:1007F300D040030208AEE47B107A27F9F890003B5F
:10080300E0FCA3E0FDA3E0FEA3E0FF121B3FAC006E
:10081300AD01AE02AF03E47BE87A03F9F8121B3FA4
:10082300EF2430900040F0E47BE87A03F9F890007D
:100833003BE0FCA3E0FDA3E0FEA3E0FF121B3FAC03
:1008430000AD01AE02AF03E47B64FAF9F8121B3F7B
:10085300EF2430900041F0E47B64FAF9F890003B18
:10086300E0FCA3E0FDA3E0FEA3E0FF121B3FAC000E
:10087300AD01AE02AF03E47B0AFAF9F8121B3FEFB6
:100883002430900042F0E47B0AFAF9F890003BE050
:10089300FCA3E0FDA3E0FEA3E0FF121B3FEB24302B
:1008A300900043F0A37420F0020A12E47F63FEFD7C
:1008B300FC90003BE0F8A3E0F9A3E0FAA3E0FBD34C
:1008C3001205D05003020967E47FE77E03FDFC9025
:1008D300003BE0F8A3A3A3E0D31205D04003020931
:1008E30067E47BE87A03F9F890003BE0FCA3E0FDC2
:1008F300A3E0FEA3E0FF121B3FAC00AD01AE02AFCD
:1009030003E47B64FAF9F8121B3FEF2430900040B4
:10091300F0E47B64FAF9F890003BE0FCA3E0FDA36C
:10092300E0FEA3E0FF121B3FAC00AD01AE02AF033C
:10093300E47B0AFAF9F8121B3FEF2430900041F0F0
:10094300E47B0AFAF9F890003BE0FCA3E0FDA3E0A6
:10095300FEA3E0FF121B3FEB2430900042F0A37490
:1009630020020A0FE47F09FEFDFC90003BE0F8A3A0
:10097300E0F9A3E0FAA3E0FBD31205D04069E47FDA
:1009830063FEFDFC90003BE0F8A3A3A3E0D31205B4
:10099300D05054E47B64FAF9F890003BE0FCA3E008
:1009A300FDA3E0FEA3E0FF121B3FAC00AD01AE02CE
:1009B300AF03E47B0AFAF9F8121B3FEF24309000EF
:1009C30040F0E47B0AFAF9F890003BE0FCA3E0FD79
:1009D300A3E0FEA3E0FF121B3FEB2430900041F0A5
:1009E300A37420F0A38025E47B0AFAF9F890003B76
:1009F300E0FCA3E0FDA3E0FEA3E0FF121B3FEB241A
:100A030030900040F0A37420F0A3F0A3F0A3F09083
:100A13000039E0FFA3E0FD121EF47B017A00793F69
:030A2300021C0AA8
:0E150B0090005CEFF0A3EDF0A3EAF0A3EBF08C
:1015190078617C007D017BFF7A1A79687E007F05FE
:1015290012041A90005EE0FEA3E0FF7C007D6412C5
:101539000459EF2430900062F0900060E0FB7A00DB
:10154900D3940174809480403D90005EE0FEA3E056
:10155900FF7C007D0A1204597C007D0A120459EDB2
:101569002430900063F0D3EB94017480948040168A
:1015790090005EE0FEA3E0FF7C007D0A120459EDB5
:101589002430900064F090005CE0FFA3E0FD121E9F
:0A159900F47B017A007961021C0A5C
:080A2600900051EFF0A3EDF088
:100A2E0090005812060500000000900053E0FCA351
:100A3E00E0FDA3E0FEA3E0FF1202C99000581205EC
:100A4E00F9900058E0FCA3E0FDA3E0FEA3E0FF90C8
:100A5E00003B1205F9900052E0FD900051E0FF12AC
:100A6E00068B900058E0FCA3E0FDA3E0FEA3E0FFA0
:100A7E00EC12028BA804A905AA06AB07900053E05E
:100A8E00FCA3E0FDA3E0FEA3E0FF120006E4FBFAE8
:100A9E00797A78441200FB1202C99000581205F9B7
:100AAE00900058E0FCA3E0FDA3E0FEA3E0FFEC33D2
:100ABE005010900058A3A3A3E01205C29000581244
:100ACE0005F9E4FFFEFDFC900053E0F8A3E0F9A366
:100ADE00E0FAA3E0FB1202015026900053E0FCA3C3
:100AEE00E0FDA3E0FEA3E0FF12027A900053120590
:100AFE00F9900051E0FFA3E0FD121EF47F2D800D52
:100B0E00900051E0FFA3E0FD121EF47F201221C5DC
:100B1E007F007E407D1C7C46900053E0F8A3E0F9F8
:100B2E00A3E0FAA3E0FB12020140247F007E507D79
:100B3E00C37C47900053E0F8A3E0F9A3E0FAA3E0EA
:100B4E00FB1202015009900051E02406020C33E41E
:100B5E00FFFE7D7A7C44900053E0F8A3E0F9A3E019
:100B6E00FAA3E0FB12020140247F007E407D1C7C34
:100B7E0046900053E0F8A3E0F9A3E0FAA3E0FB12DD
:100B8E0002015009900051E02405020C33E4FFFEEF
:100B9E007DC87C42900053E0F8A3E0F9A3E0FAA3ED
:100BAE00E0FB1202014022E4FFFE7D7A7C449000BD
:100BBE0053E0F8A3E0F9A3E0FAA3E0FB1202015020
:100BCE0008900051E02404805CE4FFFE7D207C410F
:100BDE00900053E0F8A3E0F9A3E0FAA3E0FB1202C1
:100BEE00014022E4FFFE7DC87C42900053E0F8A352
:100BFE00E0F9A3E0FAA3E0FB1202015008900051C5
:100C0E00E024038020E4FFFE7D207C41900053E031
:100C1E00F8A3E0F9A3E0FAA3E0FB1202015023903F
:100C2E000051E02402FF900058A3A3E0FEA3E0FBD6
:100C3E00AA06900057E0900060F0900052E0FD127E
:020C4E00150B84
:010C50002281
:10205E00EF54F0C4540F75F00AA4FEEF540F2EFF88
:01206E00224F
:101F7A00EF75F00A84C454F0FEEF75F00A84E5F0B8
:051F8A00540F4EFF2280
:101AB3005391FB5392FB5391FB439204439004E4F1
:101AC300F5CE75CDC0F5CF43CE9643CE407D207F76
:101AD3000E121E0B7D487F0F121E0B121750900023
:101AE30074E0FF900072E0FD900075E0FBA3E090CE
:061AF3000004F0021BC517
:10206F00E4FE5390FB121A6DE4FF121A6D439004B5
:01207F00223E
:071E0B00900007EDF0AB07AA
:101E12007E007D007C005390FBEB4480FF121A6D24
:0B1E2200900007E0FF121A6D439004CF
:011E2D002292
:1016C40090000512060500000000E4900009F07F78
:1016D4001112206F900009EFF07F1212206FEFC4F7
:1016E40013135403FF5403FCE412029590000512F3
:1016F40005F9900005E0FCA3E0FDA3E0FEA3E0FFF4
:10170400E4FBFA7980783E1200FB9000051205F99B
:10171400900005E0F8A3E0F9A3E0FAA3E0FBC00021
:10172400C001C002C003A3E0FC120295D003D002A2
:10173400D001D00012000A9000051205F9900005AE
:0B174400E0FCA3E0FDA3E0FEA3E0FF3B
:01174F002277
:101F640090007EEDF0AD077F18121E0B90007EE00E
:061F7400FD7F19021E0BA7
:051F0E0090007FEFF0E0
:101F13005390FB7F18121A6D90007FE0FF121A6D29
:081F23007F1912206F439004A6
:011F2B002293
:08191F00900000EEF0A3EFF0D0
:10192700E4FEFF12206F900077EFF012205EEFF0D9
:101937007F0112206F900070EFF012205EEFF07FB2
:101947000212206FAE07900000E0FCA3E0FDEC70F0
:1019570016ED147012EE542090006FF0E0C413548B
:1019670007F0EE541F8003EE543FFF900073F01210
:04197700205EEFF00F
:01197B002249
:101AF9007F0612206F900076EFF012205EEFF07FE4
:101B09000512206FEF541FFF900075F012205EEF51
:101B1900F07F0412206FEF543FFF900072F0122003
:101B29005EEFF07F0312206FEF5407FF900074F00F
:061B390012205EEFF02215
:10175000900073E0FF900070E0FD900077E0FB9058
:0F176000006FE0900004F0900071E0900005F041
:08176F00900001EFF0A3EDF082
:10177700E4900006F0AF03121F7AAD07E4FF121ED4
:101787000B900002E0FF121F7AAD077F01121E0BBC
:10179700900005E0147029900004E0147008900090
:1017A700067420F08005E4900006F0900001E0FF49
:1017B700121F7AEF541FFF900006E044404F800B42
:1017C700900001E0FF121F7AEF543FFD7F02121EC7
:0117D7000B06
:0117D80022EE
:101BC500900002EDF0A3EBF0121F7AAD077F031230
:101BD5001E0B900002E0FF121F7AAD077F04121E54
:101BE5000B900003E0FF121F7AAD077F05121E0B55
:0F1BF500900004E0FF121F7AAD077F06021E0B5F
:101F49001218BC63C820120C511221061214701207
:0B1F5900131A7FC87E00121CB180E844
:1018BC0075BA80800090FE027480F090FE02E054B5
:1018CC000160F890FE017402F090FE00E4F0E0F08C
:1018DC00E054F7F0E4F5BA53B3FE53B4FE43B3014E
:1018EC0053B4FE53B3FD53B4FD43B30253B4FD5391
:1018FC00B3FB53B4FB43B30453B4FB53C9DF53CA18
:10190C00DF43C92043CA20121AB31215A31220F8C0
:03191C0002197C31
:101CDE00E5C020E00A7F0A7E00121CB17F0122E5DA
:101CEE00C020E10A7F0A7E00121CB17F0222E5C0ED
:101CFE0020E20A7F0A7E00121CB17F03227F00229F
:0419CD00E0FB7D01BD
:0C19D100900006EFF0FEA3EDF0A3EBF099
:1019DD00E4A3F0EB75F00A84F0ED14FFEE14FD12A4
:1019ED001EF4900009E02430FF1221C5900008E09C
:1019FD0075F00A84A3E5F0F0900007E0FF90000673
:101A0D00E014FD121EF4900009E02430FF0221C500
:10131A009000737F011219CDE4FD7F02121EF412B0
:10132A001C04900070E0FB7D047F011219D1E4FDDA
:10133A007F05121EF4121C04900077E0FB7D077FE4
:10134A00011219D1900071E014701D90006FE01421
:10135A00700B121EF07BFF7A1A791F8014121EF08E
:10136A007BFF7A1A79228009121EF07BFF7A1A799A
:10137A0025121C0A9000727F021219CD7D017F028C
:10138A00121EF47BFF7A1A7928121C0A900075E063
:10139A00FB7D047F021219D17D017F05121EF47BA9
:1013AA00FF7A1A7928121C0A900076E0FB7D077FE3
:0C13BA00021219D1900074E0FF0217D954
:1014700090000012060500000000E4900004F01245
:1014800016C49000001205F9900000E0FCA3E0FDF6
:10149000A3E0FEA3E0FF1202C9900004EFF0FB7D81
:1014A0000A7F021219D17D017F0B121EF47BFF7A95
:1014B0001A792A121C0A900004E0FCE4120295A892
:1014C00004A905AA06AB07900000E0FCA3E0FDA379
:1014D000E0FEA3E0FF120006E4FBFA79C8784212AE
:1014E00000FB1202C9900004EFF0FB7D0D7F021299
:1014F00019D1E4FB7D017F0E12203B7D017F0F128D
:0B1500001EF47BFF7A1A792C021C0AF3
:0D210600121AF9900071E0FF7E0002191F0F
:10184C00900001EFF0A3EDF0A3EBF0121CDEEF64BF
:10185C00027006900003E004F0900004E0FF90009A
:10186C0003E0D39F4008900005E0900003F0900047
:10187C0002E014FF900001E014FD121EF47BFF7ACD
:10188C001A7925121C0A121CAD900001E0FFA3E08E
:10189C00FDA3E0FB1219D1121CAD121CDEEF640388
:1018AC0070A9121CDEEF640360F8900003E0FF22C5
:100C5100E4900000F0C200121CDEEF6401700A1281
:100C61001CDEEF640160F8D200200003020E1612B0
:100C71001CDEEF64027006900000E004F0900000BA
:100C8100E0D39402748094804002E4F0121EF07B61
:100C9100FF7A1A792E121C0A121CAD900000E02472
:100CA100FE601B04702C121EF07BFF7A1A7922124F
:100CB1001C0AE490006FF090007104F08025121E70
:100CC100F07BFF7A1A791F121C0A90006F7401F0F1
:100CD100800D121EF07BFF7A1A7930121C0AE49003
:100CE1000071F0121CAD121CDEEF640370819000E4
:100CF10077E0FB900004743BF0E4A3F07D077F01F3
:100D010012184C900077EFF0900070E0FB90000417
:100D1100743BF0E4A3F07D047F0112184C90007045
:100D2100EFF0A3E0147013900073E0FB90000474E3
:100D31000CF0A37401F0FDFF8012900073E0FB90B2
:100D410000047417F0E4A3F07D017F0112184C90A8
:100D51000073EFF0900072E0FB900004741FF0A3A9
:100D61007401F0FD7F0212184C900072EFF09000B8
:100D710075E0FB900004740CF0A37401F07D047F16
:100D81000212184C900075EFF0A3E0FB9000047480
:100D910063F0E4A3F07D077F0212184C900076EF18
:100DA100F0900074E0900000F0121CDEEF6402701D
:100DB10006900000E004F0900000E0D394077480F6
:100DC100948040037401F0E4FD7F0D121EF47BFF5B
:100DD1007A1A7933121C0A121CAD900000E0FF123E
:100DE10017D9121CAD121CDEEF640370BC90000019
:100DF100E0900074F0121750900074E0FF900072C0
:100E0100E0FD900075E0FBA3E0900004F0121BC52B
:050E1100C200020C6AA2
:010E160022B9
:1017D900900001EFF0E4FD7F0D121EF4900001E08E
:1017E90014B40700505C9017FD75F003A4C5832558
:1017F900F0C5837302181202181A02182202182A55
:1018090002183202183A0218427BFF7A1A79388094
:101819002E7BFF7A1A793C80267BFF7A1A794080E1
:101829001E7BFF7A1A794480167BFF7A1A794880E1
:101839000E7BFF7A1A794C80067BFF7A1A7950124F
:031849001C0A2254
:10000300020335E86480F8E933E83360110460F0F3
:10001300ED33EC337009E8FCE9FDEAFEEBFF220463
:1000230060DED3EB9FEA9EE99DE8C2E78CF0C2F75E
:1000330095F0400CE8CCF8E9CDF9EACEFAEBCFFB2A
:1000430012030085D0F05804700320D5B3E8047080
:10005300075002B2D502033F92D5EC0460F7E4CC1B
:10006300C0E0C398F8603B94186008400DD0E0FBF3
:10007300020317E4FBFAC9FC8028E830E406E4C96C
:10008300FBE4CAFCE830E305E4C9CACBFCE8540747
:100093006010F8C3E913F9EA13FAEB13FBEC13FC52
:1000A300D8F130F52FC3E49CFCEF9BFFEE9AFEEDF5
:1000B30099FDD0E0FBEF4E4D4C701222DB0302039F
:1000C3003CEC2CFCEF33FFEE33FEED33FDED30E77C
:1000D300EB020317EF2BFFEE3AFEED39FDD0E0FB09
:1000E30050130BBB000302033FED13FDEE13FEEFB2
:0800F30013FFEC13FC020317DC
:1000FB00EC4D6011E8497017ED33EC3304600DE4FF
:10010B00FCFFFEFD22E933E8330470F802033512DD
:10011B00030058046009E4CC2481500628500902DE
:10012B00033F28400302033CC0E0EB4A7044B98014
:10013B0006D0E0FB02032BEF4E701CBD8008EBFFDB
:10014B00EAFEE9FD80EBE98DF0A4FEE5F00201E4A7
:10015B00E9CDF9EAFEEBFFEF89F0A4FCE5F0CE89DF
:10016B00F0A42EFFE435F0CD89F0A42DFEE435F09C
:10017B008067EF4E7005BD80D780C3EF8BF0A4ACCA
:10018B00F0EE8BF0A42CFCE435F0F8EF8AF0A42C05
:10019B00E5F038FCE433CB8DF0A42CFCE5F03BF818
:1001AB00EE8AF0A42CFCE5F038F8E433CF89F0A408
:1001BB002CFCE5F038CF3400CE89F0A42FFFE5F00E
:1001CB003EFEE433C98DF0A42EFEE5F039CD8AF066
:1001DB00A42FFFE5F03EFEE43DFD33D0E0FB5007DE
:1001EB000BBB000F02033FEC2CFCEF33FFEE33FE97
:0601FB00ED33FD020317C5
:1002010074F8CC6480CCC86480C8F58204604FC3A4
:10021100EB9FF5F0EA9E42F0E99D42F0E89C45F043
:10022100603C501DE5825FFFE582D313CB5BCBF4CD
:100231002B5582FB50280ABA002409B900200880F6
:100241001DE5825BFBE582D313CF5FCFF4C3132F90
:100251005582FF50090EBE00050DBD00010CC3EB18
:100261009FF5F0EA9E42F0E99D42F0E89C45F0607E
:0902710007CC4820E701B3EC22A0
:10027A00ED33EC33600A047003BD8004ECB2E7FC92
:01028A002251
:10028B0075F020800E75F010800575F0087D007EEE
:10029B00007F003392D530D5031205C2EC334010EA
:1002AB00EF33FFEE33FEED33FDEC33FCD5F0ED22F7
:0E02BB00E5F0247EA2D513CC92E7CDCEFF2233
:1002C900EDD2E7CD33EC3392D524814006E4FFFE2D
:1002D900FDFC22FCE4CFCECDCC24E0501174FF808C
:1002E900EDC3CC13CCCD13CDCE13CECF13CF047029
:0702F900F030D5DE0205C262
:10030000E9D2E7C933E833F892D5EDD2E7CD33EC43
:0703100033FC5002B2D522BC
:10031700EC30E7100FBF000C0EBE00080DBD000447
:100327000BEB6014A2D5EB13FCED92E7FD2274FFF3
:10033700FCFDFEFF22E480F8A2D574FF13FC7D804C
:03034700E480EF60
:10164400021F49E493A3F8E493A34003F68001F254
:1016540008DFF48029E493A3F85407240CC8C333A7
:10166400C4540F4420C8834004F456800146F6DF76
:10167400E4800B0102040810204080901D0EE47EDB
:10168400019360BCA3FF543F30E509541FFEE4936B
:10169400A360010ECF54C025E060A840B8E493A332
:1016A400FAE493A3F8E493A3C8C582C8CAC583CA5D
:1016B400F0A3C8C582C8CAC583CADFE9DEE780BE15
:011D320000B0
:10034A00E709F608DFFA8046E709F208DFFA803E95
:10035A0088828C83E709F0A3DFFA8032E309F60882
:10036A00DFFA8078E309F208DFFA807088828C83EA
:10037A00E309F0A3DFFA806489828A83E0A3F6089E
:10038A00DFFA805889828A83E0A3F208DFFA804C78
:10039A0080D280FA80C680D4806980F2803380104F
:1003AA0080A680EA809A80A880DA80E280CA8033B8
:1003BA0089828A83ECFAE493A3C8C582C8CCC58330
:1003CA00CCF0A3C8C582C8CCC583CCDFE9DEE78000
:1003DA000D89828A83E493A3F608DFF9ECFAA9F07F
:1003EA00EDFB2289828A83ECFAE0A3C8C582C8CCD5
:1003FA00C583CCF0A3C8C582C8CCC583CCDFEADEEE
:10040A00E880DB89828A83E493A3F208DFF980CC4F
:10041A0088F0EF60010E4E60C388F0ED2402B40448
:10042A000050B9F582EB2402B4040050AF232345EF
:06043A00822390039A7377
:10044000BB010689828A83E0225002E722BBFE02BA
:09045000E32289828A83E49322ED
:10045900C2D5EC30E709B2D5E4C39DFDE49CFCEEBE
:1004690030E715B2D5E4C39FFFE49EFE120636C3FA
:10047900E49DFDE49CFC800312063630D507C3E4F5
:060489009FFFE49EFE222D
:10048F00A3F8E0C5F025F0F0E58215827002158320
:06049F00E0C838F0E8227D
:1004A500E88FF0A4CC8BF0A42CFCE98EF0A42CFCF6
:1004B5008AF0EDA42CFCEA8EF0A4CDA8F08BF0A474
:1004C5002DCC3825F0FDE98FF0A42CCD35F0FCEBD3
:1004D5008EF0A4FEA9F0EB8FF0A4CFC5F02ECD3998
:0F04E500FEE43CFCEAA42DCE35F0FDE43CFC2205
:1004F40075F008758200EF2FFFEE33FECD33CDCCBF
:1005040033CCC58233C5829BED9AEC99E582984041
:100514000CF582EE9BFEED9AFDEC99FC0FD5F0D61E
:10052400E4CEFBE4CDFAE4CCF9A88222B800C1B948
:100534000059BA002DEC8BF084CFCECDFCE5F0CB86
:10054400F97818EF2FFFEE33FEED33FDEC33FCEBBF
:1005540033FB10D703994004EB99FB0FD8E5E4F97A
:10056400FA227818EF2FFFEE33FEED33FDEC33FC67
:10057400C933C910D7059BE99A4007EC9BFCE99A5B
:10058400F90FD8E0E4C9FAE4CCFB2275F010EF2FA0
:10059400FFEE33FEED33FDCC33CCC833C810D707A0
:1005A4009BEC9AE899400AED9BFDEC9AFCE899F8DB
:0E05B4000FD5F0DAE4CDFBE4CCFAE4C8F9226E
:101B3F00C2D5E830E70FB2D5E4C39BFBE49AFAE4D1
:101B4F0099F9E498F8EC30E717B2D5121B75120526
:101B5F0030E4C39BFBE49AFAE499F9E498F8800324
:101B6F0012053030D50DE4C39FFFE49EFEE49DFDCA
:041B7F00E49CFC22C4
:0E05C200C3E49FFFE49EFEE49DFDE49CFC224A
:1005D000EB9FF5F0EA9E42F0E99D42F0EC6480C8A2
:0605E00064809845F02242
:1005E600E8600FECC313FCED13FDEE13FEEF13FFF3
:0305F600D8F12217
:0C05F900ECF0A3EDF0A3EEF0A3EFF02275
:10060500A8828583F0D083D08212061C12061C12A4
:10061500061C12061CE473E493A3C583C5F0C583C9
:10062500C8C582C8F0A3C583C5F0C583C8C582C83F
:0106350022A2
:10063600BC000BBE0029EF8DF084FFADF022E4CCA8
:10064600F875F008EF2FFFEE33FEEC33FCEE9DEC71
:10065600984005FCEE9DFE0FD5F0E9E4CEFD22EDB7
:10066600F8F5F0EE8420D21CFEADF075F008EF2F01
:10067600FFED33FD4007985006D5F0F222C398FDF2
:050686000FD5F0EA228F
:00000001FF
