:030000000204D423
:0C04D400787FE4F6D8FD75814202051B1C
:0409FD000241009C17
:1007EA00AD07AC06E412004312007CD3EF9400EE8E
:0D07FA009400400800EF1F70F21E80EF22F7
:1006E8008E3D8F3ED3E53E9400E53D94004011E5F4
:1006F8003E153E7002153D7FE87E031207EA80E44E
:0107080022CE
:08096300AF8CEFFEAD8AEDFF41
:01096B002269
:08096C00AF8DEFFEAD8BEDFF36
:010974002260
:08097500AFD6EFFEADD7EDFF98
:01097D002257
:08097E00AFD4EFFEADD5EDFF93
:01098600224E
:08098700AFD2EFFEADD3EDFF8E
:01098F002245
:10000300E4F53FF54053BCF0EF42BC7F017E0012A4
:1000130006E843BC40E5BC30E5FB53BCDFAFBDEFB6
:0A002300ADBEF53FEDF540AE3FFF26
:01002D0022B0
:1006120075C78375C501EFF5C4EEF5C375C65A7586
:10062200C6A500ADC2E4F5C7F5C5F5C675C380F52C
:03063200C4AF054D
:0106350022A2
:1006C60075C78375C502EFF5C4EEF5C38DC275C651
:1006D6005A75C6A500E4F5C7F5C5F5C675C380F518
:0206E600C4222C
:10078D0075C78375C503EFF5C4EEF5C375C65A7508
:10079D00C6A500E4F5C7F5C5F5C675C380F5C42239
:08099000AFF9EFFEADE9EDFF48
:01099800223C
:08099900AFFAEFFEADEAEDFF3D
:0109A1002233
:0809A200AFFBEFFEADEBEDFF32
:0109AA00222A
:0809AB00AFFCEFFEADECEDFF27
:0109B3002221
:0809B400AFFDEFFEADEDEDFF1C
:0109BC002218
:10083600AD0753F2FDED548025E0FFEF42F2ED5493
:040846003FF5FA225E
:0E091F0053F2FEEF548042F2EF543FF5EA220D
:10088600AD0753F2FDE425E0FFEF42F2ED547FF5AC
:02089600FA2244
:0909BD0053F2FEEF547FF5EA222B
:1008DF00AD0753F2FDE425E0FFEF42F2EDF5FA220A
:0709E10053F2FEEFF5EA22DC
:10070900AD07AC0653F2CDEC5403C4F854F0C8E479
:10071900C4540F48FBEC5404C3134B42F2EDF5FAF1
:0107290022AD
:10063600AD07AC0653F2F2EC5403FEE47806CEC3E3
:1006460013CE13D8F9FBEC54041313543F4B42F268
:04065600EDF5EA22B2
:10084A00AD0753F3FDED548025E0FFEF42F3ED547D
:04085A003FF5FB2249
:0E092D0053F3FEEF548042F3EF543FF5EB22FC
:10089800AD0753F3FDE425E0FFEF42F3ED547FF598
:0208A800FB2231
:0909C60053F3FEEF547FF5EB2220
:1008EF00AD0753F3FDE425E0FFEF42F3EDF5FB22F7
:0709E80053F3FEEFF5EB22D3
:10072A00AD07AC0653F3CDEC5403C4F854F0C8E457
:10073A00C4540F48FBEC5404C3134B42F3EDF5FBCE
:01074A00228C
:10065A00AD07AC0653F3F2EC5403FEE47806CEC3BE
:10066A0013CE13D8F9FBEC54041313543F4B42F343
:04067A00EDF5EB228D
:10085E00AD0753F4FDED548025E0FFEF42F4ED5467
:04086E003FF5FC2234
:0E093B0053F4FEEF548042F4EF543FF5EC22EB
:1008AA00AD0753F4FDE425E0FFEF42F4ED547FF584
:0208BA00FC221E
:0909CF0053F4FEEF547FF5EC2215
:1008FF00AD0753F4FDE425E0FFEF42F4EDF5FC22E4
:0709EF0053F4FEEFF5EC22CA
:10074B00AD07AC0653F4CDEC5403C4F854F0C8E435
:10075B00C4540F48FBEC5404C3134B42F4EDF5FCAB
:01076B00226B
:10067E00AD07AC0653F4F2EC5403FEE47806CEC399
:10068E0013CE13D8F9FBEC54041313543F4B42F41E
:04069E00EDF5EC2268
:10087200AD0753F5FDED548025E0FFEF42F5ED5451
:040882003FF5FD221F
:0E09490053F5FEEF548042F5EF543FF5ED22DA
:1008BC00AD0753F5FDE425E0FFEF42F5ED547FF570
:0208CC00FD220B
:0909D80053F5FEEF547FF5ED220A
:10090F00AD0753F5FDE425E0FFEF42F5EDF5FD22D0
:0709F60053F5FEEFF5ED22C1
:10076C00AD07AC0653F5CDEC5403C4F854F0C8E413
:10077C00C4540F48FBEC5404C3134B42F5EDF5FD88
:01078C00224A
:1006A200AD07AC0653F5F2EC5403FEE47806CEC374
:1006B20013CE13D8F9FBEC54041313543F4B42F5F9
:0406C200EDF5ED2243
:0408200090FE81F0D5
:1008240075BA8090FE82E030E6F9E054BFF0E4F55A
:02083400BA22E6
:0C002E0075BA807401120820E4F5BA22B3
:0C09570075BA807406120820E4F5BA227C
:1007CC0075BA8090FE86EFF090FE817402F01208EC
:0E07DC002490FE817403F0120824E4F5BA2282
:1005EB00E4FE75BA8090FE817404F012082490FE2C
:1005FB0087E0FE90FE82EFF090FE817405F012080A
:06060B0024E4F5BAAF067D
:0106110022C6
:1008CE00E4FE8FCFE5CD30E7FBAECF75CD80AF0622
:0108DE0022F7
:080377008F0B8E0A8D098C0822
:10037F00E4F515F514F513F5127598507F04FEFD8D
:10038F00FCAB0BAA0AA909A8081200B3A804A90577
:10039F00AA06AB07AF11AE10AD0FAC0E12013E8F18
:1003AF00158E148D138C12E50D640170107B0CFAF1
:1003BF00F9F812013E8F158E148D138C12C3E4952C
:1003CF0015F515E49514F51474019513F513E495CB
:1003DF0012F512E50C7028E50D7008538EF3438E5D
:1003EF00048003538EF3E515FFE48FD7AF15AE14DA
:1003FF00AD13AC1278081201DE8FD6438E1022E5B2
:10040F000D538EBF438E40538FFD53890FE515FF5C
:10041F00E48F8BAF15AE14AD13AC1278081201DE5A
:05042F008F8D438840A1
:0104340022A5
:030A02008F9922A7
:030A0500AF992284
:060560008D34AB07AA0672
:10056600E4F53CF53BF53AF539759A10AE02EB78B1
:1005760002C333CE33CED8F9FBAA06E4F9F8AF3876
:10058600AE37AD36AC3512013E8F3C8E3B8D3A8C84
:1005960039E534640170107B0CFAF9F812013E8FCC
:1005A6003C8E3B8D3A8C39C3E4953CF53CE4953B57
:1005B600F53B7401953AF53AE49539F539E5347029
:1005C60008538EF3438E048003538EF3E53CFFE419
:1005D6008FD7AF3CAE3BAD3AAC3978081201DE8F0F
:0405E600D6438E105A
:0105EA0022EE
:030A08008F9B229F
:030A0B00AF9B227C
:0801F1008F198E188D178C1672
:1001F900E4F523F522F521F520E51A4410F5ACE4E0
:100209007F04FEFDFCAB19AA18A917A8161200B3A2
:10021900A804A905AA06AB07AF1FAE1EAD1DAC1CED
:1002290012013E8F238E228D218C20E51B640170E3
:10023900107B0CFAF9F812013E8F238E228D218C46
:1002490020C3E49523F523E49522F5227401952131
:10025900F521E49520F520E51A7028E51B7008536F
:100269008EF3438E048003538EF3E523FFE48FD787
:10027900AF23AE22AD21AC2078081201DE8FD64320
:100289008E1022E51B700853D1F843D10280035325
:10029900D1F8E523FFE48FD5AF23AE22AD21AC2001
:0A02A90078081201DE8FD443D1085B
:0102B3002228
:030A0E008FAD2287
:030A1100AFAD2264
:0802B4008F278E268D258C2476
:1002BC00E4F531F530F52FF52EE5284410F584E4FE
:1002CC007F04FEFDFCAB27AA26A925A8241200B3A7
:1002DC00A804A905AA06AB07AF2DAE2CAD2BAC2AF2
:1002EC0012013E8F318E308D2F8C2EE529640170DA
:1002FC00107B0CFAF9F812013E8F318E308D2F8C59
:10030C002EC3E49531F531E49530F5307401952F19
:10031C00F52FE4952EF52EE5287028E52970085365
:10032C008EF3438E048003538EF3E531FFE48FD7B5
:10033C00AF31AE30AD2FAC2E78081201DE8FD64324
:10034C008E1022E529700853D18F43D1208003539E
:10035C00D18FE531FFE48FD3AF31AE30AD2FAC2E62
:0A036C0078081201DE8FD243D18021
:010376002264
:030A14008F8522A9
:030A1700AF852286
:03003B000207AD0C
:1007AD00C0E0C0D053D8FEE542F5EAE541F5FA7454
:0F07BD009C2542F542E43541F541D0D0D0E032E1
:10080700120435E5C85404700843A01053C8DF80AC
:09081700F253A0EF43C82080EA6F
:1004350075BA80800090FE027480F090FE02E05450
:100445000160F890FE017402F090FE00E4F0E0F027
:10045500E054F7F0E4F5BA5393FD5394FD5393FD3F
:1004650043940253C9DF53CADF43C92043CA20530B
:10047500C9FB53CAFB43C90453CAFB75BA8090FE36
:1004850015E04404F0E4F5BA43A210F5E9F5F9F5F1
:10049500D8F5D9F5DAF5DBF5DCF5DDF5EAF5EBF5BB
:1004A500ECF5EDF5FAF5FBF5FCF5FDF5F2F5F3F5F3
:1004B500F4F5F543D90875DA4CF5E9F5F9E542F5B2
:0F04C500EAE541F5FA43DA0143A88043D8402223
:10003E0075F020800E75F010800575F0087D007E3D
:10004E00007F003392D530D5031201D0EC3340102F
:10005E00EF33FFEE33FEED33FDEC33FCD5F0ED2246
:0E006E00E5F0247EA2D513CC92E7CDCEFF2282
:10007C00EDD2E7CD33EC3392D524814006E4FFFE7C
:10008C00FDFC22FCE4CFCECDCC24E0501174FF80DB
:10009C00EDC3CC13CCCD13CDCE13CECF13CF047078
:0700AC00F030D5DE0201D0A7
:1004E000020807E493A3F8E493A34003F68001F223
:1004F00008DFF48029E493A3F85407240CC8C3331D
:10050000C4540F4420C8834004F456800146F6DFEB
:10051000E4800B01020408102040809009FDE47E75
:10052000019360BCA3FF543F30E509541FFEE493E0
:10053000A360010ECF54C025E060A840B8E493A3A7
:10054000FAE493A3F8E493A3C8C582C8CAC583CAD2
:10055000F0A3C8C582C8CAC583CADFE9DEE780BE8A
:010A010000F4
:1000B300E88FF0A4CC8BF0A42CFCE98EF0A42CFCEC
:1000C3008AF0EDA42CFCEA8EF0A4CDA8F08BF0A46A
:1000D3002DCC3825F0FDE98FF0A42CCD35F0FCEBC9
:1000E3008EF0A4FEA9F0EB8FF0A4CFC5F02ECD398E
:0F00F300FEE43CFCEAA42DCE35F0FDE43CFC22FB
:1001020075F008758200EF2FFFEE33FECD33CDCCB4
:1001120033CCC58233C5829BED9AEC99E582984037
:100122000CF582EE9BFEED9AFDEC99FC0FD5F0D614
:10013200E4CEFBE4CDFAE4CCF9A88222B800C1B93E
:100142000059BA002DEC8BF084CFCECDFCE5F0CB7C
:10015200F97818EF2FFFEE33FEED33FDEC33FCEBB5
:1001620033FB10D703994004EB99FB0FD8E5E4F970
:10017200FA227818EF2FFFEE33FEED33FDEC33FC5D
:10018200C933C910D7059BE99A4007EC9BFCE99A51
:10019200F90FD8E0E4C9FAE4CCFB2275F010EF2F96
:1001A200FFEE33FEED33FDCC33CCC833C810D70796
:1001B2009BEC9AE899400AED9BFDEC9AFCE899F8D1
:0E01C2000FD5F0DAE4CDFBE4CCFAE4C8F92264
:0E01D000C3E49FFFE49EFEE49DFDE49CFC2240
:1001DE00E8600FECC313FCED13FDEE13FEEF13FFFF
:0301EE00D8F12223
:00000001FF
