:03000000020AC32E
:0C0AC300787FE4F6D8FD75810702071467
:10096F00AD07AC06E4120008120041D3EF9400EE7D
:0D097F009400400800EF1F70F21E80EF2270
:1006B00074FF9FFFE49EFE120A4B900035E0FEA3FC
:1006C000E0FF120A5B900035E0FEA3E0FFC374FF79
:1006D0009FFFE49EFE120A6B900035E0FEA3E0FF50
:0706E000120A7B7F0A7E0075
:1006E700900037EEF0A3EFF0D3900038E09400903D
:1006F7000037E094004015A3E024FFF0900037E0B6
:0D07070034FFF07FE87E0312096F80DC22D2
:080AE700AF8CEFFEAD8AEDFFBC
:010AEF0022E4
:080AF000AF8DEFFEAD8BEDFFB1
:010AF80022DB
:080AF900AFD6EFFEADD7EDFF13
:010B010022D1
:080B0200AFD4EFFEADD5EDFF0D
:010B0A0022C8
:080B0B00AFD2EFFEADD3EDFF08
:010B130022BF
:10077700E4900039F0A3F053BCF0EF42BC7F017E58
:10078700001206E743BC40E5BC30E5FB53BCDFAFD6
:10079700BDEFFFADBEED900039CFF0A3EFF09000B5
:0607A70039E0FEA3E0FFB3
:0107AD002229
:1007D50075C78375C501EFF5C4EEF5C375C65A75C2
:1007E500C6A500ADC2E4F5C7F5C5F5C675C380F568
:0307F500C4AF0589
:0107F80022DE
:1007F90075C78375C502EFF5C4EEF5C3AF058FC2A2
:1008090075C65A75C6A500E4F5C7F5C5F5C675C31D
:0408190080F5C42280
:1009310075C78375C503EFF5C4EEF5C375C65A7562
:10094100C6A500E4F5C7F5C5F5C675C380F5C42293
:080B1400AFF9EFFEADE9EDFFC2
:010B1C0022B6
:080B1D00AFFAEFFEADEAEDFFB7
:010B250022AD
:080B2600AFFBEFFEADEBEDFFAC
:010B2E0022A4
:080B2F00AFFCEFFEADECEDFFA1
:010B3700229B
:080B3800AFFDEFFEADEDEDFF96
:010B40002292
:1009A200AD0753F2FDED548025E0FFEF42F2ED5426
:0409B2003FF5FA22F1
:0E0A8B0053F2FEEF548042F2EF543FF5EA22A0
:1009F200AD0753F2FDE425E0FFEF42F2ED547FF53F
:020A0200FA22D6
:090B410053F2FEEF547FF5EA22A5
:100A4B00AD0753F2FDE425E0FFEF42F2EDF5FA229C
:070B650053F2FEEFF5EA2256
:1008AD00AD07AC0653F2CDEC5403C4F854F0C8E4D4
:1008BD00C4540F48FBEC5404C3134B42F2EDF5FA4C
:0108CD002208
:10081D00AD07AC0653F2F2EC5403FEE47806CEC3FA
:10082D0013CE13D8F9FBEC54041313543F4B42F27F
:04083D00EDF5EA22C9
:1009B600AD0753F3FDED548025E0FFEF42F3ED5410
:0409C6003FF5FB22DC
:0E0A990053F3FEEF548042F3EF543FF5EB228F
:100A0400AD0753F3FDE425E0FFEF42F3ED547FF52A
:020A1400FB22C3
:090B4A0053F3FEEF547FF5EB229A
:100A5B00AD0753F3FDE425E0FFEF42F3EDF5FB2289
:070B6C0053F3FEEFF5EB224D
:1008CE00AD07AC0653F3CDEC5403C4F854F0C8E4B2
:1008DE00C4540F48FBEC5404C3134B42F3EDF5FB29
:0108EE0022E7
:10084100AD07AC0653F3F2EC5403FEE47806CEC3D5
:1008510013CE13D8F9FBEC54041313543F4B42F35A
:04086100EDF5EB22A4
:1009CA00AD0753F4FDED548025E0FFEF42F4ED54FA
:0409DA003FF5FC22C7
:0E0AA70053F4FEEF548042F4EF543FF5EC227E
:100A1600AD0753F4FDE425E0FFEF42F4ED547FF516
:020A2600FC22B0
:090B530053F4FEEF547FF5EC228F
:100A6B00AD0753F4FDE425E0FFEF42F4EDF5FC2276
:070B730053F4FEEFF5EC2244
:1008EF00AD07AC0653F4CDEC5403C4F854F0C8E490
:1008FF00C4540F48FBEC5404C3134B42F4EDF5FC06
:01090F0022C5
:10086500AD07AC0653F4F2EC5403FEE47806CEC3B0
:1008750013CE13D8F9FBEC54041313543F4B42F435
:04088500EDF5EC227F
:1009DE00AD0753F5FDED548025E0FFEF42F5ED54E4
:0409EE003FF5FD22B2
:0E0AB50053F5FEEF548042F5EF543FF5ED226D
:100A2800AD0753F5FDE425E0FFEF42F5ED547FF502
:020A3800FD229D
:090B5C0053F5FEEF547FF5ED2284
:100A7B00AD0753F5FDE425E0FFEF42F5EDF5FD2263
:070B7A0053F5FEEFF5ED223B
:10091000AD07AC0653F5CDEC5403C4F854F0C8E46D
:10092000C4540F48FBEC5404C3134B42F5EDF5FDE2
:0109300022A4
:10088900AD07AC0653F5F2EC5403FEE47806CEC38B
:1008990013CE13D8F9FBEC54041313543F4B42F510
:0408A900EDF5ED225A
:04098C0090FE81F068
:1009900075BA8090FE82E030E6F9E054BFF0E4F5ED
:0209A000BA2279
:0C0ACF0075BA80740112098CE4F5BA229B
:0C0ADB0075BA80740612098CE4F5BA228A
:1009510075BA8090FE86EFF090FE817402F0120964
:0E0961009090FE817403F0120990E4F5BA2222
:1007AE00E4FE75BA8090FE817404F012099090FEFA
:1007BE0087E0FE90FE82EFF090FE817405F0120944
:0607CE0090E4F5BAAF064D
:0107D4002202
:100A3A00E4FE8FCFE5CD30E7FBAECF75CD80AF06B4
:010A4A002289
:0604FB009000001201B6A2
:1005010090000A1201C200000000759850E47F04B7
:10051100FEFDFC900000E0F8A3E0F9A3E0FAA3E0FF
:10052100FB120078A804A905AA06AB07900006E013
:10053100FCA3E0FDA3E0FEA3E0FF12010390000A8B
:100541001201B6900005E06401701D90000AE0FC04
:10055100A3E0FDA3E0FEA3E0FFE47B0CFAF9F812AF
:10056100010390000A1201B690000AE0F8A3E0F935
:10057100A3E0FAA3E0FBC3E49BFFE49AFE740199B4
:10058100FDE498FC90000A1201B6900004E070327C
:10059100A3E07008538EF3438E048003538EF390CF
:1005A100000AA3A3A3E0FF8FD790000AE0FCA3E019
:1005B100FDA3E0FEA3E0FF78081201A38FD6438ECE
:1005C1001022900005E0538EBF438E40538FFD53A0
:1005D100890F90000AA3A3A3E0FF8F8B90000AE08C
:1005E100FCA3E0FDA3E0FEA3E0FF78081201A38FC6
:0405F1008D4388406E
:0105F50022E3
:030B81008F992227
:030B8400AF992204
:0905F60090002CEDF0AB07AA0601
:1005FF009000311201C200000000759A10AE02EB9C
:10060F007802C333CE33CED8F9FBAA06E4F9F890BB
:10061F00002DE0FCA3E0FDA3E0FEA3E0FF12010329
:10062F009000311201B690002CE06401701D900013
:10063F0031E0FCA3E0FDA3E0FEA3E0FFE47B0CFAB6
:10064F00F9F81201039000311201B6900031E0F871
:10065F00A3E0F9A3E0FAA3E0FBC3E49BFFE49AFE57
:10066F00740199FDE498FC9000311201B690002CB2
:10067F00E07008538EF3438E048003538EF3900083
:10068F0031A3A3A3E0FF8FD7900031E0FCA3E0FDDF
:10069F00A3E0FEA3E0FF78081201A38FD6438E10CC
:0106AF002228
:030B87008F9B221F
:030B8A00AF9B22FC
:0602F90090000E1201B698
:1002FF009000181201C200000000900012E044109C
:10030F00F5ACE47F04FEFDFC90000EE0F8A3E0F9ED
:10031F00A3E0FAA3E0FB120078A804A905AA06AB94
:10032F0007900014E0FCA3E0FDA3E0FEA3E0FF12A2
:10033F0001039000181201B6900013E06401701DC4
:10034F00900018E0FCA3E0FDA3E0FEA3E0FFE47B38
:10035F000CFAF9F81201039000181201B690001868
:10036F00E0F8A3E0F9A3E0FAA3E0FBC3E49BFFE40A
:10037F009AFE740199FDE498FC9000181201B69052
:10038F000012E07032A3E07008538EF3438E0480A6
:10039F0003538EF3900018A3A3A3E0FF8FD7900011
:1003AF0018E0FCA3E0FDA3E0FEA3E0FF7808120134
:1003BF00A38FD6438E1022900013E0700853D1F80C
:1003CF0043D102800353D1F8900018A3A3A3E0FFF9
:1003DF008FD5900018E0FCA3E0FDA3E0FEA3E0FFA3
:0A03EF0078081201A38FD443D1084F
:0103F90022E1
:030B8D008FAD2207
:030B9000AFAD22E4
:0603FA0090001C1201B688
:100400009000261201C200000000900020E044107D
:10041000F584E47F04FEFDFC90001CE0F8A3E0F905
:10042000A3E0FAA3E0FB120078A804A905AA06AB92
:1004300007900022E0FCA3E0FDA3E0FEA3E0FF1292
:1004400001039000261201B6900021E06401701DA6
:10045000900026E0FCA3E0FDA3E0FEA3E0FFE47B28
:100460000CFAF9F81201039000261201B69000264A
:10047000E0F8A3E0F9A3E0FAA3E0FBC3E49BFFE408
:100480009AFE740199FDE498FC9000261201B69042
:100490000020E07032A3E07008538EF3438E048096
:1004A00003538EF3900026A3A3A3E0FF8FD7900001
:1004B00026E0FCA3E0FDA3E0FEA3E0FF7808120124
:1004C000A38FD6438E1022900021E0700853D18F65
:1004D00043D120800353D18F900026A3A3A3E0FF34
:1004E0008FD3900026E0FCA3E0FDA3E0FEA3E0FF95
:0A04F00078081201A38FD243D180D7
:0104FA0022DF
:030B93008F852229
:030B9600AF852206
:10071400E4900035F0A3F01201F3E4900035F0A367
:10072400F0900035E0FEA3E0FFC3EE6480948150B6
:1007340014C31206B0900036E004F070E490003563
:10074400E004F080DC900035E4F0A374FFF0900046
:1007540035E0FEA3E0FFD394FFEE6480947F40BABB
:100764001206B0900036E024FFF0900035E034FF2C
:03077400F080DB37
:1001F30075BA80800090FE027480F090FE02E05495
:100203000160F890FE017402F090FE00E4F0E0F06B
:10021300E054F7F0E4F5BA43A210F5E9F5F9F5D89F
:10022300F5D9F5DAF5DBF5DCF5DDF5EAF5EBF5EC1B
:10023300F5EDF5FAF5FBF5FCF5FDF5F2F5F3F5F45F
:10024300F5F543D908701A24FE600C14600E2402DD
:10025300700F75DB42800D75DC42800875DD4280CE
:100263000375DA42E4701B0424FE600C14600E2450
:1002730002700F75DB42800D75DC42800875DD422C
:10028300800375DA42E4701C740224FE600C14606F
:100293000E2402700F75DB42800D75DC42800875F9
:1002A300DD42800375DA42E4701C740324FE600CA3
:1002B30014600E2402700F75DB42800D75DC4280E2
:1002C3000875DD42800375DA42E4FFFE120B651206
:1002D3000A4BE4FFFE120B6C120A5BE4FFFE120BE7
:1002E30073120A6BE4FFFE120B7A120A7BE4F5E940
:0602F300F5F943D840229A
:1000030075F020800E75F010800575F0087D007E78
:10001300007F003392D530D503120195EC334010A5
:10002300EF33FFEE33FEED33FDEC33FCD5F0ED2281
:0E003300E5F0247EA2D513CC92E7CDCEFF22BD
:10004100EDD2E7CD33EC3392D524814006E4FFFEB7
:10005100FDFC22FCE4CFCECDCC24E0501174FF8016
:10006100EDC3CC13CCCD13CDCE13CECF13CF0470B3
:07007100F030D5DE0201951D
:10007800E88FF0A4CC8BF0A42CFCE98EF0A42CFC27
:100088008AF0EDA42CFCEA8EF0A4CDA8F08BF0A4A5
:100098002DCC3825F0FDE98FF0A42CCD35F0FCEB04
:1000A8008EF0A4FEA9F0EB8FF0A4CFC5F02ECD39C9
:0F00B800FEE43CFCEAA42DCE35F0FDE43CFC2236
:1000C70075F008758200EF2FFFEE33FECD33CDCCF0
:1000D70033CCC58233C5829BED9AEC99E582984073
:1000E7000CF582EE9BFEED9AFDEC99FC0FD5F0D650
:1000F700E4CEFBE4CDFAE4CCF9A88222B800C1B97A
:100107000059BA002DEC8BF084CFCECDFCE5F0CBB7
:10011700F97818EF2FFFEE33FEED33FDEC33FCEBF0
:1001270033FB10D703994004EB99FB0FD8E5E4F9AB
:10013700FA227818EF2FFFEE33FEED33FDEC33FC98
:10014700C933C910D7059BE99A4007EC9BFCE99A8C
:10015700F90FD8E0E4C9FAE4CCFB2275F010EF2FD1
:10016700FFEE33FEED33FDCC33CCC833C810D707D1
:100177009BEC9AE899400AED9BFDEC9AFCE899F80C
:0E0187000FD5F0DAE4CDFBE4CCFAE4C8F9229F
:0E019500C3E49FFFE49EFEE49DFDE49CFC227B
:1001A300E8600FECC313FCED13FDEE13FEEF13FF3A
:0301B300D8F1225E
:0C01B600ECF0A3EDF0A3EEF0A3EFF022BC
:1001C200A8828583F0D083D0821201D91201D9127C
:1001D20001D91201D9E473E493A3C583C5F0C583A1
:1001E200C8C582C8F0A3C583C5F0C583C8C582C887
:0101F20022EA
:00000001FF
