:03000000020C6986
:0C0C6900787FE4F6D8FD7581770202C5A3
:100844004D4943524F4152454E41005353686168EC
:100854007279696172005354433841205365726957
:100864006573005354433841384B36345334413163
:02087400320050
:100B0C00AD07AC06E4120008120041D3EF9400EEDE
:0D0B1C009400400800EF1F70F21E80EF22D1
:100ACD008E3F8F40D3E5409400E53F94004011E503
:100ADD004015407002153F7FE87E03120B0C80E439
:010AED0022E6
:080C8D00AF8CEFFEAD8AEDFF14
:010C9500223C
:080C9600AF8DEFFEAD8BEDFF09
:010C9E002233
:080C9F00AFD6EFFEADD7EDFF6B
:010CA700222A
:080CA800AFD4EFFEADD5EDFF66
:010CB0002221
:080CB100AFD2EFFEADD3EDFF61
:010CB9002218
:10080E00E4F576F57753BCF0EF42BC7F017E001223
:10081E000ACD43BC40E5BC542060FA53BCDFAFBDEB
:10082E007576008F77E577757700F576AFBEEF4278
:05083E0077AE76AF77F4
:010843002292
:100A310043C78043C70175C501EFF5C4EEF5C37522
:100A4100C65A75C6A500ADC2E4F5C275C380F5C42A
:080A5100F5C5F5C6F5C7AF05B8
:010A5900227A
:100A5A0043C78043C70175C502EFF5C4EEF5C38DE0
:100A6A00C275C65A75C6A500E4F5C275C380F5C439
:070A7A00F5C5F5C6F5C72222
:100AA80043C78043C70175C503EFF5C4EEF5C375A9
:100AB800C65A75C6A500E4F5C275C380F5C4F5C568
:050AC800F5C6F5C72290
:080CBA00AFF9EFFEADE9EDFF1B
:010CC200220F
:080CC300AFFAEFFEADEAEDFF10
:010CCB002206
:080CCC00AFFBEFFEADEBEDFF05
:010CD40022FD
:080CD500AFFCEFFEADECEDFFFA
:010CDD0022F4
:080CDE00AFFDEFFEADEDEDFFEF
:010CE60022EB
:100B6900AD0753F2FDE425E0FFEF42F2ED543FF506
:020B7900FA225E
:090CE70053F2FEEF543FF5EA223E
:100B7B00AD0753F2FDE425E0FFEF42F2ED547FF5B4
:020B8B00FA224C
:090CF00053F2FEEF547FF5EA22F5
:100C1B00AD0753F2FDE425E0FFEF42F2EDF5FA22CA
:070D2F0053F2FEEFF5EA228A
:1008A500AD07AC0653F2CDE425E0FFEF42F2EC5480
:1008B50002FEE47805C333CE33CED8F942F2E4C460
:0D08C500F8540FC868FFEF42F2EDF5FA227B
:10098500AD07AC0653F2F2EC5402FEE47803C33330
:10099500CE33CED8F942F2EC5401FEE47802C333EB
:0B09A500CE33CED8F942F2EDF5EA2285
:100B8D00AD0753F3FDE425E0FFEF42F3ED543FF5E0
:020B9D00FB2239
:090CF90053F3FEEF543FF5EB222A
:100B9F00AD0753F3FDE425E0FFEF42F3ED547FF58E
:020BAF00FB2227
:090D020053F3FEEF547FF5EB22E0
:100C2B00AD0753F3FDE425E0FFEF42F3EDF5FB22B7
:070D360053F3FEEFF5EB2281
:1008D200AD07AC0653F3CDE425E0FFEF42F3EC5451
:1008E20002FEE47805C333CE33CED8F942F3E4C432
:0D08F200F8540FC868FFEF42F3EDF5FB224C
:1009B000AD07AC0653F3F2EC5402FEE47803C33304
:1009C000CE33CED8F942F3EC5401FEE47802C333BF
:0B09D000CE33CED8F942F3EDF5EB2258
:100BB100AD0753F4FDE425E0FFEF42F4ED543FF5BA
:020BC100FC2214
:090D0B0053F4FEEF543FF5EC2215
:100BC300AD0753F4FDE425E0FFEF42F4ED547FF568
:020BD300FC2202
:090D140053F4FEEF547FF5EC22CC
:100C3B00AD0753F4FDE425E0FFEF42F4EDF5FC22A4
:070D3D0053F4FEEFF5EC2278
:1008FF00AD07AC0653F4CDE425E0FFEF42F4EC5422
:10090F0002FEE47805C333CE33CED8F942F4E4C403
:0D091F00F8540FC868FFEF42F4EDF5FC221C
:1009DB00AD07AC0653F4F2EC5402FEE47803C333D8
:1009EB00CE33CED8F942F4EC5401FEE47802C33393
:0B09FB00CE33CED8F942F4EDF5EC222B
:100BD500AD0753F5FDE425E0FFEF42F5ED543FF594
:020BE500FD22EF
:090D1D0053F5FEEF543FF5ED2201
:100BE700AD0753F5FDE425E0FFEF42F5ED547FF542
:020BF700FD22DD
:090D260053F5FEEF547FF5ED22B8
:100C4B00AD0753F5FDE425E0FFEF42F5EDF5FD2291
:070D440053F5FEEFF5ED226F
:10092C00AD07AC0653F5CDE425E0FFEF42F5EC54F2
:10093C0002FEE47805C333CE33CED8F942F5E4C4D5
:0D094C00F8540FC868FFEF42F5EDF5FD22ED
:100A0600AD07AC0653F5F2EC5402FEE47803C333AB
:100A1600CE33CED8F942F5EC5401FEE47802C33366
:0B0A2600CE33CED8F942F5EDF5ED22FD
:040B290090FE81F0C9
:100B2D0075BA8090FE82E030E6F9E054BFF0E4F54E
:020B3D00BA22DA
:0C0C750075BA807401120B29E4F5BA2254
:0C0C810075BA807406120B29E4F5BA2243
:100AEE0075BA8090FE86EFF090FE817402F0120BC4
:0E0AFE002D90FE817403F0120B2DE4F5BA2248
:100A8100E4FE75BA8090FE817404F0120B2D90FE85
:100A910087E0FE90FE82EFF090FE817405F0120B6C
:060AA1002DE4F5BAAF06DA
:010AA700222C
:100BF900E4FE8FCFE5CD30E7FBAECF75CD80AF06F4
:010C090022C8
:080542008F448E438D428C4171
:10054A00E4F54EF54DF54CF54B7598507F04FEFDDC
:10055A00FCAB44AA43A942A841120187A804A905F1
:10056A00AA06AB07AF4AAE49AD48AC471202128F92
:10057A004E8E4D8D4C8C4BE546640170107B0CFA07
:10058A00F9F81202128F4E8E4D8D4C8C4BC3E495A6
:10059A004EF54EE4954DF54D7401954CF54CE495A8
:1005AA004BF54BE5457028E5467008538EF3438EAC
:1005BA00048003538EF3E54EFFE48FD7AF4EAE4D62
:1005CA00AD4CAC4B78081202B28FD6438E1022E59E
:1005DA0046538EBF438E40538FFD53890FE54EFF1E
:1005EA00E48F8BAF4EAE4DAD4CAC4B78081202B2D5
:0505FA008F8D438840D5
:0105FF0022D9
:030D50008F992256
:030D5300AF992233
:060734008D6DAB07AA0663
:10073A00E4F575F574F573F572759A10AE02EB78F7
:10074A0002C333CE33CED8F9FBAA06E4F9F8AF7167
:10075A00AE70AD6FAC6E1202128F758E748D738C83
:10076A0072E56D640170107B0CFAF9F81202128FAF
:10077A00758E748D738C72C3E49575F575E49574F2
:10078A00F57474019573F573E49572F572E56D70FD
:10079A0008538EF3438E048003538EF3E575FFE40A
:1007AA008FD7AF75AE74AD73AC7278081202B28F80
:0407BA00D6438E1084
:0107BE002218
:030D56008F9B224E
:030D5900AF9B222B
:0803BC008F528E518D508C4FC1
:1003C400E4F55CF55BF55AF559E5534410F5ACE4F6
:1003D4007F04FEFDFCAB52AA51A950A84F1201871D
:1003E400A804A905AA06AB07AF58AE57AD56AC553D
:1003F4001202128F5C8E5B8D5A8C59E55464017025
:10040400107B0CFAF9F81202128F5C8E5B8D5A8CF9
:1004140059C3E4955CF55CE4955BF55B7401955A0E
:10042400F55AE49559F559E5537028E55470085385
:100434008EF3438E048003538EF3E55CFFE48FD781
:10044400AF5CAE5BAD5AAC5978081202B28FD6439A
:100454008E1022E554700853D1F843D1028003531F
:10046400D1F8E55CFFE48FD5AF5CAE5BAD5AAC5917
:0A04740078081202B28FD443D108B9
:01047E00225B
:030D5C008FAD2236
:030D5F00AFAD2213
:08047F008F608E5F8D5E8C5DC5
:10048700E4F56AF569F568F567E5614410F584E414
:100497007F04FEFDFCAB60AA5FA95EA85D12018721
:1004A700A804A905AA06AB07AF66AE65AD64AC6341
:1004B7001202128F6A8E698D688C67E5626401701B
:1004C700107B0CFAF9F81202128F6A8E698D688C0C
:1004D70067C3E4956AF56AE49569F56974019568F7
:1004E700F568E49567F567E5617028E5627008537C
:1004F7008EF3438E048003538EF3E56AFFE48FD7B0
:10050700AF6AAE69AD68AC6778081202B28FD6439E
:100517008E1022E562700853D18F43D12080035398
:10052700D18FE56AFFE48FD3AF6AAE69AD68AC6778
:0A05370078081202B28FD243D1807F
:010541002297
:030D62008F852258
:030D6500AF852235
:10069F007F0A7E00120ACD53B1DF53B2DF53B1DFB1
:1006AF0043B22053B1BF53B2BF53B1BF43B2405354
:1006BF00B17F53B27F53B17F43B2805393EF5394C3
:1006CF00EF5393EF4394105393DF5394DF5393DF20
:1006DF004394205393BF5394BF5393BF43944053BA
:1006EF00937F53947F53937F43948053B0BF53B002
:1006FF00DF7F0A7E00120ACD120B55E4FD7F331205
:10070F000C0AE4FD7F32120C0AE4FD7F28120C0A5A
:10071F00E4FD7F0C120C0AE4FD7F01120C0AE4FDCC
:05072F007F06020C0A28
:100C0A00ED600814700843B020800353B0DF020679
:010C1A0000D9
:020600008F3E2B
:10060200E53E5480C41313135401147005438080D3
:10061200800353807FE53E5440C413135403147087
:100622000543804080035380BFE53E5420C41354E9
:100632000714700543802080035380DFE53E541089
:10064200C4540FFF14700543801080035380EF12CF
:100652000B55E53E5408131313541F1470054380C1
:1006620080800353807FE53E54041313543F14707B
:100672000543804080035380BFE53E5402C31314F8
:10068200700543802080035380DFE53E5401FF1450
:0D069200700543801080035380EF020B556C
:060876007B007A00790905
:10087C008B3B8A3C893DAB3B053DE53DAA3C700278
:10088C00053C14F912016EFF7D01120C0AAB3BAA58
:09089C003CA93D12016E70DE2240
:050D4B007D01020C0A0D
:0E0C5B00E4FD7F01120C0AE4FD7F02020C0A88
:100B3F008F3DED7006E53D44808004E53D44C0FFE8
:060B4F00E4FD120C0A2275
:100B550043B0807F027E00120ACD53B07F7F027EB4
:040B650000020ACDB3
:1002C500E4F50878097C00FD7BFF7A087944FE7F18
:1002D5000B12014878147C007D007BFF7A08794F6A
:1002E5007E007F0B120148781F7C007D007BFF7A22
:1002F50008795A7E007F0D120148782C7C007D001C
:100305007BFF7A0879677E007F0F12014812095931
:10031500120C5BE4FD7F03120B3F1208767D017F13
:1003250003120B3F7B007A00791412087C7FA07EB4
:100335000F120ACD120C5BE4F508C3E508940C74A2
:10034500809480501FE5082402FFE4FD120B3F74E2
:100355001F2508F8E6FF120D4B7F3C7E00120ACDE3
:10036500050880D6E4F508C3E508940E74809480EA
:10037500501EE50804FF7D01120B3F742C2508F87B
:10038500E6FF120D4B7F3C7E00120ACD050880D793
:100395007FA07E0F120ACDE4F508120C5BE4FD7F09
:1003A50003120B3F120876AF081207BF05087F90AE
:0703B5007E01120ACD80F069
:1009590075BA80800090FE027480F090FE02E05427
:100969000160F890FE017402F090FE00E4F0E044AA
:0C09790010F0E054F7F0E4F5BA02069F1D
:0207BF008F3B6E
:1007C100E4F53CE53B75F064842430F53C7D017F24
:1007D10006120B3FAF3C120D4BE53B75F00A8475D9
:1007E100F00A84E5F02430F53C7D017F07120B3FD0
:1007F100AF3C120D4BE53B75F00A84E5F02430F572
:0D0801003C7D017F08120B3FAF3C020D4B08
:1000030075F020800E75F010800575F0087D007E78
:10001300007F003392D530D5031202A4EC33401095
:10002300EF33FFEE33FEED33FDEC33FCD5F0ED2281
:0E003300E5F0247EA2D513CC92E7CDCEFF22BD
:10004100EDD2E7CD33EC3392D524814006E4FFFEB7
:10005100FDFC22FCE4CFCECDCC24E0501174FF8016
:10006100EDC3CC13CCCD13CDCE13CECF13CF0470B3
:07007100F030D5DE0202A40D
:10007800E709F608DFFA8046E709F208DFFA803E6A
:1000880088828C83E709F0A3DFFA8032E309F60857
:10009800DFFA8078E309F208DFFA807088828C83BF
:1000A800E309F0A3DFFA806489828A83E0A3F60873
:1000B800DFFA805889828A83E0A3F208DFFA804C4D
:1000C80080D280FA80C680D4806980F28033801024
:1000D80080A680EA809A80A880DA80E280CA80338D
:1000E80089828A83ECFAE493A3C8C582C8CCC58305
:1000F800CCF0A3C8C582C8CCC583CCDFE9DEE780D5
:100108000D89828A83E493A3F608DFF9ECFAA9F053
:10011800EDFB2289828A83ECFAE0A3C8C582C8CCA9
:10012800C583CCF0A3C8C582C8CCC583CCDFEADEC2
:10013800E880DB89828A83E493A3F208DFF980CC24
:1001480088F0EF60010E4E60C388F0ED2402B4041D
:100158000050B9F582EB2402B4040050AF232345C4
:0601680082239000C87321
:10016E00BB010689828A83E0225002E722BBFE028F
:09017E00E32289828A83E49322C2
:10018700E88FF0A4CC8BF0A42CFCE98EF0A42CFC17
:100197008AF0EDA42CFCEA8EF0A4CDA8F08BF0A495
:1001A7002DCC3825F0FDE98FF0A42CCD35F0FCEBF4
:1001B7008EF0A4FEA9F0EB8FF0A4CFC5F02ECD39B9
:0F01C700FEE43CFCEAA42DCE35F0FDE43CFC2226
:1001D60075F008758200EF2FFFEE33FECD33CDCCE0
:1001E60033CCC58233C5829BED9AEC99E582984063
:1001F6000CF582EE9BFEED9AFDEC99FC0FD5F0D640
:10020600E4CEFBE4CDFAE4CCF9A88222B800C1B969
:100216000059BA002DEC8BF084CFCECDFCE5F0CBA7
:10022600F97818EF2FFFEE33FEED33FDEC33FCEBE0
:1002360033FB10D703994004EB99FB0FD8E5E4F99B
:10024600FA227818EF2FFFEE33FEED33FDEC33FC88
:10025600C933C910D7059BE99A4007EC9BFCE99A7C
:10026600F90FD8E0E4C9FAE4CCFB2275F010EF2FC1
:10027600FFEE33FEED33FDCC33CCC833C810D707C1
:100286009BEC9AE899400AED9BFDEC9AFCE899F8FC
:0E0296000FD5F0DAE4CDFBE4CCFAE4C8F9228F
:0E02A400C3E49FFFE49EFEE49DFDE49CFC226B
:1002B200E8600FECC313FCED13FDEE13FEEF13FF2A
:0302C200D8F1224E
:00000001FF
