:0300000002169550
:0C169500787FE4F6D8FD7581070216DCB2
:1017EB00506572696F642F6D733A00467265712E86
:1017FB002F6B487A3A0000060909060000002020EA
:0F180B00202000202020202020002E2020202020
:101A93004200510000420057000044005300000080
:081AA3000044004D00000000AA
:101A7600AD07AC06E412036B1203A4D3EF9400EE99
:0D1A86009400400800EF1F70F21E80EF2258
:10181A00900021EEF0A3EFF0D3900022E094009024
:10182A000021E094004015A3E024FFF0900021E09D
:0D183A0034FFF07FE87E03121A7680DC2276
:081C0000AF8CEFFEAD8AEDFF91
:011C080022B9
:081C0900AF8DEFFEAD8BEDFF86
:011C110022B0
:081C1200AFD6EFFEADD7EDFFE8
:011C1A0022A7
:081C1B00AFD4EFFEADD5EDFFE3
:011C2300229E
:081C2400AFD2EFFEADD3EDFFDE
:011C2C002295
:10000300E4900076F0A3F053BCF0EF42BC7F017E96
:100013000012181A43BC40E5BC30E5FB53BCDFAF0C
:10002300BDEFFFADBEED900076CFF0A3EFF09000F3
:0600330076E0FEA3E0FFF1
:0100390022A4
:1019CE0075C78375C501EFF5C4EEF5C375C65A75B7
:1019DE00C6A500ADC2E4F5C7F5C5F5C675C380F55D
:0319EE00C4AF057E
:0119F10022D3
:1019F20075C78375C502EFF5C4EEF5C3AF058FC297
:101A020075C65A75C6A500E4F5C7F5C5F5C675C312
:041A120080F5C42275
:101A380075C78375C503EFF5C4EEF5C375C65A754A
:101A4800C6A500E4F5C7F5C5F5C675C380F5C4227B
:081C2D00AFF9EFFEADE9EDFF98
:011C3500228C
:081C3600AFFAEFFEADEAEDFF8D
:011C3E002283
:081C3F00AFFBEFFEADEBEDFF82
:011C4700227A
:081C4800AFFCEFFEADECEDFF77
:011C50002271
:081C5100AFFDEFFEADEDEDFF6C
:011C59002268
:101AD600AD0753F2FDE425E0FFEF42F2ED543FF58A
:021AE600FA22E2
:091C5A0053F2FEEF543FF5EA22BB
:101AE800AD0753F2FDE425E0FFEF42F2ED547FF538
:021AF800FA22D0
:091C630053F2FEEF547FF5EA2272
:101B9A00AD0753F2FDE425E0FFEF42F2EDF5FA223C
:071CA20053F2FEEFF5EA2208
:10184700AD07AC0653F2CDE425E0FFEF42F2EC54CE
:1018570002FEE47805C333CE33CED8F942F2E4C4AE
:0D186700F8540FC868FFEF42F2EDF5FA22C9
:1018FB00AD07AC0653F2F2EC5402FEE47803C333AB
:10190B00CE33CED8F942F2EC5401FEE47802C33365
:0B191B00CE33CED8F942F2EDF5EA22FF
:101AFA00AD0753F3FDE425E0FFEF42F3ED543FF564
:021B0A00FB22BC
:091C6C0053F3FEEF543FF5EB22A7
:101B0C00AD0753F3FDE425E0FFEF42F3ED547FF511
:021B1C00FB22AA
:091C750053F3FEEF547FF5EB225E
:101BAA00AD0753F3FDE425E0FFEF42F3EDF5FB2229
:071CA90053F3FEEFF5EB22FF
:10187400AD07AC0653F3CDE425E0FFEF42F3EC549F
:1018840002FEE47805C333CE33CED8F942F3E4C480
:0D189400F8540FC868FFEF42F3EDF5FB229A
:10192600AD07AC0653F3F2EC5402FEE47803C3337E
:10193600CE33CED8F942F3EC5401FEE47802C33339
:0B194600CE33CED8F942F3EDF5EB22D2
:101B1E00AD0753F4FDE425E0FFEF42F4ED543FF53D
:021B2E00FC2297
:091C7E0053F4FEEF543FF5EC2293
:101B3000AD0753F4FDE425E0FFEF42F4ED547FF5EB
:021B4000FC2285
:091C870053F4FEEF547FF5EC224A
:101BBA00AD0753F4FDE425E0FFEF42F4EDF5FC2216
:071CB00053F4FEEFF5EC22F6
:1018A100AD07AC0653F4CDE425E0FFEF42F4EC5470
:1018B10002FEE47805C333CE33CED8F942F4E4C452
:0D18C100F8540FC868FFEF42F4EDF5FC226B
:10195100AD07AC0653F4F2EC5402FEE47803C33352
:10196100CE33CED8F942F4EC5401FEE47802C3330D
:0B197100CE33CED8F942F4EDF5EC22A5
:101B4200AD0753F5FDE425E0FFEF42F5ED543FF517
:021B5200FD2272
:091C900053F5FEEF543FF5ED227F
:101B5400AD0753F5FDE425E0FFEF42F5ED547FF5C5
:021B6400FD2260
:091C990053F5FEEF547FF5ED2236
:101BCA00AD0753F5FDE425E0FFEF42F5EDF5FD2203
:071CB70053F5FEEFF5ED22ED
:1018CE00AD07AC0653F5CDE425E0FFEF42F5EC5441
:1018DE0002FEE47805C333CE33CED8F942F5E4C424
:0D18EE00F8540FC868FFEF42F5EDF5FD223C
:10197C00AD07AC0653F5F2EC5402FEE47803C33326
:10198C00CE33CED8F942F5EC5401FEE47802C333E1
:0B199C00CE33CED8F942F5EDF5ED2278
:041AAC0090FE81F037
:101AB00075BA8090FE82E030E6F9E054BFF0E4F5BC
:021AC000BA2248
:0C1BE80075BA807401121AACE4F5BA2240
:0C1BF40075BA807406121AACE4F5BA222F
:101A580075BA8090FE86EFF090FE817402F0121A3B
:0E1A6800B090FE817403F0121AB0E4F5BA22B9
:1019A700E4FE75BA8090FE817404F0121AB090FEBE
:1019B70087E0FE90FE82EFF090FE817405F0121A28
:0619C700B0E4F5BAAF0622
:0119CD0022F7
:101B7800E4FE8FCFE5CD30E7FBAECF75CD80AF0665
:011B8800223A
:061166009000231206D4E4
:10116C0090002D1206E000000000759850E47F04FA
:10117C00FEFDFC900023E0F8A3E0F9A3E0FAA3E065
:10118C00FB120580A804A905AA06AB07900029E06C
:10119C00FCA3E0FDA3E0FEA3E0FF12060B90002DE4
:1011AC001206D4900028E06401701D90002DE0FC24
:1011BC00A3E0FDA3E0FEA3E0FFE47B0CFAF9F81238
:1011CC00060B90002D1206D490002DE0F8A3E0F948
:1011DC00A3E0FAA3E0FBC3E49BFFE49AFE7401993D
:1011EC00FDE498FC90002D1206D4900027E070329C
:1011FC00A3E07008538EF3438E048003538EF39058
:10120C00002DA3A3A3E0FF8FD790002DE0FCA3E05B
:10121C00FDA3E0FEA3E0FF78081206C18FD6438E33
:10122C001022900028E0538EBF438E40538FFD5305
:10123C00890F90002DA3A3A3E0FF8F8B90002DE0CE
:10124C00FCA3E0FDA3E0FEA3E0FF78081206C18F2B
:04125C008D438840F6
:01126000226B
:031CC3008F9922D4
:031CC600AF9922B1
:0913510090005BEDF0AB07AA0669
:10135A009000601206E000000000759A10AE02EBE1
:10136A007802C333CE33CED8F9FBAA06E4F9F89053
:10137A00005CE0FCA3E0FDA3E0FEA3E0FF12060B85
:10138A009000601206D490005BE06401701D90002A
:10139A0060E0FCA3E0FDA3E0FEA3E0FFE47B0CFA1F
:1013AA00F9F812060B9000601206D4900060E0F87B
:1013BA00A3E0F9A3E0FAA3E0FBC3E49BFFE49AFEEF
:1013CA00740199FDE498FC9000601206D490005BC9
:1013DA00E07008538EF3438E048003538EF390001B
:1013EA0060A3A3A3E0FF8FD7900060E0FCA3E0FD19
:1013FA00A3E0FEA3E0FF78081206C18FD6438E1041
:01140A0022BF
:031CC9008F9B22CC
:031CCC00AF9B22A9
:060F64009000311206D4DA
:100F6A0090003B1206E000000000900035E04410BB
:100F7A00F5ACE47F04FEFDFC900031E0F8A3E0F953
:100F8A00A3E0FAA3E0FB120580A804A905AA06AB10
:100F9A0007900037E0FCA3E0FDA3E0FEA3E0FF1208
:100FAA00060B90003B1206D4900036E06401701DD7
:100FBA0090003BE0FCA3E0FDA3E0FEA3E0FFE47B9E
:100FCA000CFAF9F812060B90003B1206D490003B7B
:100FDA00E0F8A3E0F9A3E0FAA3E0FBC3E49BFFE493
:100FEA009AFE740199FDE498FC90003B1206D49095
:100FFA000035E07032A3E07008538EF3438E04800C
:10100A0003538EF390003BA3A3A3E0FF8FD7900076
:10101A003BE0FCA3E0FDA3E0FEA3E0FF7808120694
:10102A00C18FD6438E1022900036E0700853D1F853
:10103A0043D102800353D1F890003BA3A3A3E0FF5E
:10104A008FD590003BE0FCA3E0FDA3E0FEA3E0FF08
:0A105A0078081206C18FD443D108B4
:011064002269
:031CCF008FAD22B4
:031CD200AFAD2291
:0610650090003F1206D4CA
:10106B009000491206E000000000900043E044109D
:10107B00F584E47F04FEFDFC90003FE0F8A3E0F96B
:10108B00A3E0FAA3E0FB120580A804A905AA06AB0E
:10109B0007900045E0FCA3E0FDA3E0FEA3E0FF12F8
:1010AB00060B9000491206D4900044E06401701DB9
:1010BB00900049E0FCA3E0FDA3E0FEA3E0FFE47B8E
:1010CB000CFAF9F812060B9000491206D49000495D
:1010DB00E0F8A3E0F9A3E0FAA3E0FBC3E49BFFE491
:1010EB009AFE740199FDE498FC9000491206D49085
:1010FB000043E07032A3E07008538EF3438E0480FC
:10110B0003538EF3900049A3A3A3E0FF8FD7900066
:10111B0049E0FCA3E0FDA3E0FEA3E0FF7808120684
:10112B00C18FD6438E1022900044E0700853D18FAC
:10113B0043D120800353D18F900049A3A3A3E0FF99
:10114B008FD3900049E0FCA3E0FDA3E0FEA3E0FFFA
:0A115B0078081206C18FD243D1803C
:011165002267
:031CD5008F8522D6
:031CD800AF8522B3
:10156D007F0A7E0012181A53B1DF53B2DF53B1DF79
:10157D0043B22053B1BF53B2BF53B1BF43B2405377
:10158D00B17F53B27F53B17F43B2805393EF5394E6
:10159D00EF5393EF4394105393DF5394DF5393DF43
:1015AD004394205393BF5394BF5393BF43944053DD
:1015BD00937F53947F53937F43948053B0BF53B025
:1015CD00DF7F0A7E0012181A121AC2E4FD7F331251
:1015DD001B89E4FD7F32121B89E4FD7F28121B89D4
:1015ED00E4FD7F0C121B89E4FD7F01121B89E4FDD4
:0515FD007F06021B89BE
:101B8900ED600814700843B020800353B0DF0214DD
:011B9900C388
:0514C300900020EFF095
:1014C800EF5480C4131313540114700543808080B3
:1014D8000353807F900020E0FF5440C4131354034B
:1014E80014700543804080035380BFEF5420C41319
:1014F800540714700543802080035380DF90002038
:10150800E05410FFC4540FFE14700543801080038C
:101518005380EF121AC2900020E0FF5408131313EF
:10152800541F147005438080800353807FEF540458
:101538001313543F14700543804080035380BF90B9
:101548000020E0FF5402C313147005438020800379
:101558005380DFEF5401FE1470054380108003535D
:0515680080EF021AC231
:1017B60090001DEBF0A3EAF0A3E9F090001DE0FB1A
:1017C600A3E475F00112056AA9F0FA12051BFF7D64
:1017D60001121B8990001DE0FBA3E0FAA3E0F912B9
:0517E600051B70D72275
:051CBE007D01021B89FD
:0E1BDA00E4FD7F01121B89E4FD7F02021B89DE
:081A1600900005E0FFA3E0FDD4
:101A1E0090001DEFF0ED7005E04480800690001DF3
:0A1A2E00E044C0FFE4FD121B892212
:101AC20043B0807F027E0012181A53B07F7F027EDD
:041AD2000002181ADC
:10172100E4900064F078657C007D017BFF7A187994
:1017310001FE7F081204F5E4FD7F40121B89E4904D
:101741000064F0900064E0FFC394087480948050BA
:101751001974652FF582E43400F583E0FF7D0112F1
:101761001B89900064E004F080D9E4FD7F80021BB6
:0117710089EE
:101B6600900078EBF0121A1E900078E0FF7D0102DB
:021B76001B89C9
:0E0D170090006DEFF0A3EDF0A3EAF0A3EBF077
:100D250078717C007D017BFF7A1879097E007F054B
:100D35001204F590006FE0FEA3E0FFC3EE6480941B
:100D4500805013A3742DF0C3E49FFFE49E90006FC1
:100D5500F0A3EFF080069000717420F090006FE032
:100D6500FEA3E0FFD39463EE648094804057D3EFF5
:100D750094E7EE64809483504C90006FE0FAA3E012
:100D8500FB7C007D64120534EF2430900072F07C0A
:100D9500007D64AF03AE021205347E007F0ACFCD1D
:100DA500CFCECCCE120534EF2430A3F090006FE007
:100DB500FEA3E0FF7C007D0A120534ED243090008F
:100DC50074F0020E4F90006FE0FEA3E0FFD394098C
:100DD500EE648094804044D3EF9463EE6480948005
:100DE500503990006FE0FAA3E0FB7C007D641205AA
:100DF500347E007F0ACFCDCFCECCCE120534EF2482
:100E050030900072F07C007D0AAF03AE021205340B
:100E1500ED2430A3F0A37420F0802F90006FE0FE46
:100E2500A3E0FFC3EE64809480401FD3EF9409EEE6
:100E35006480948050147C007D0A120534ED2430C2
:100E4500900072F0A37420F0A3F090006D121A19AF
:090E55007B017A0079710217B6E5
:08076600900010EFF0A3EDF08C
:10076E0078167C007D017BFF7A18790E7E007F075C
:10077E001204F5900012E0FCA3E0FDA3E0FEA3E05E
:10078E00FFEC335016A3742DF0900012A3A3A3E038
:10079E0012069D9000121206D48006900016742048
:1007AE00F0E47F0F7E27FDFC900012E0F8A3E0F945
:1007BE00A3E0FAA3E0FBD31206AB500302089DE4BC
:1007CE007B107A27F9F8900012E0FCA3E0FDA3E07D
:1007DE00FEA3E0FF121772EF2430900017F0E47BB7
:1007EE00107A27F9F8900012E0FCA3E0FDA3E0FEDA
:1007FE00A3E0FF121772AC00AD01AE02AF03E47BB3
:10080E00E87A03F9F8121772EF2430900018F0E42A
:10081E007BE87A03F9F8900012E0FCA3E0FDA3E078
:10082E00FEA3E0FF121772AC00AD01AE02AF03E4FF
:10083E007B64FAF9F8121772EF2430900019F0E485
:10084E007B64FAF9F8900012E0FCA3E0FDA3E0FE51
:10085E00A3E0FF121772AC00AD01AE02AF03E47B52
:10086E000AFAF9F8121772EF243090001AF0E47BAE
:10087E000AFAF9F8900012E0FCA3E0FDA3E0FEA353
:10088E00E0FF121772EB243090001BF0020AEDE429
:10089E007FE77E03FDFC900012E0F8A3E0F9A3E0F1
:1008AE00FAA3E0FBD31206AB5003020989E47F0FD3
:1008BE007E27FDFC900012E0F8A3A3A3E0D312065E
:1008CE00AB4003020989E47B107A27F9F8900012F5
:1008DE00E0FCA3E0FDA3E0FEA3E0FF121772AC0064
:1008EE00AD01AE02AF03E47BE87A03F9F81217729A
:1008FE00EF2430900017F0E47BE87A03F9F89000CB
:10090E0012E0FCA3E0FDA3E0FEA3E0FF121772AC21
:10091E0000AD01AE02AF03E47B64FAF9F812177270
:10092E00EF2430900018F0E47B64FAF9F89000128E
:10093E00E0FCA3E0FDA3E0FEA3E0FF121772AC0003
:10094E00AD01AE02AF03E47B0AFAF9F8121772EFAB
:10095E002430900019F0E47B0AFAF9F8900012E0C6
:10096E00FCA3E0FDA3E0FEA3E0FF121772EB243020
:10097E0090001AF0A37420F0020AEDE47F63FEFDEE
:10098E00FC900012E0F8A3E0F9A3E0FAA3E0FBD399
:10099E001206AB5003020A42E47FE77E03FDFC9091
:1009AE000012E0F8A3A3A3E0D31206AB4003020AA1
:1009BE0042E47BE87A03F9F8900012E0FCA3E0FD34
:1009CE00A3E0FEA3E0FF121772AC00AD01AE02AFC2
:1009DE0003E47B64FAF9F8121772EF2430900017D3
:1009EE00F0E47B64FAF9F8900012E0FCA3E0FDA3BA
:1009FE00E0FEA3E0FF121772AC00AD01AE02AF0332
:100A0E00E47B0AFAF9F8121772EF2430900018F00E
:100A1E00E47B0AFAF9F8900012E0FCA3E0FDA3E0F3
:100A2E00FEA3E0FF121772EB2430900019F0A374AE
:100A3E0020020AEAE47F09FEFDFC900012E0F8A312
:100A4E00E0F9A3E0FAA3E0FBD31206AB4069E47F22
:100A5E0063FEFDFC900012E0F8A3A3A3E0D3120600
:100A6E00AB5054E47B64FAF9F8900012E0FCA3E07A
:100A7E00FDA3E0FEA3E0FF121772AC00AD01AE02C3
:100A8E00AF03E47B0AFAF9F8121772EF24309000E4
:100A9E0017F0E47B0AFAF9F8900012E0FCA3E0FDEF
:100AAE00A3E0FEA3E0FF121772EB2430900018F0C3
:100ABE00A37420F0A38025E47B0AFAF9F8900012C3
:100ACE00E0FCA3E0FDA3E0FEA3E0FF121772EB240F
:100ADE0030900017F0A37420F0A3F0A3F0A3F090D1
:0E0AEE000010121A197B017A0079160217B651
:0E160200900010EFF0A3EDF0A3EAF0A3EBF0E0
:1016100078157C007D017BFF7A1879157E007F05A7
:101620001204F5900012E0FEA3E0FF7C007D64123E
:101630000534EF2430900016F0900014E0FB7A009F
:10164000D3940174809480403D900012E0FEA3E0AA
:10165000FF7C007D0A1205347C007D0A120534ED02
:101660002430900017F0D3EB9401748094804016DE
:10167000900012E0FEA3E0FF7C007D0A120534ED2D
:101680002430900018F0900010121A197B017A0093
:0516900079150217B6F8
:080AFC00900005EFF0A3EDF0FE
:100B040090000C1206E000000000900007E0FCA337
:100B1400E0FDA3E0FEA3E0FF1203A490000C120684
:100B2400D490000CE0FCA3E0FDA3E0FEA3E0FF9062
:100B340000121206D4900006E0FD900005E0FF12BA
:100B4400076690000CE0FCA3E0FDA3E0FEA3E0FF39
:100B5400EC120366A804A905AA06AB07900007E0F7
:100B6400FCA3E0FDA3E0FEA3E0FF120041E4FBFAD6
:100B7400797A78441201361203A490000C1206D438
:100B840090000CE0FCA3E0FDA3E0FEA3E0FFEC3347
:100B9400501090000CA3A3A3E012069D90000C1229
:100BA40006D4E4FFFEFDFC900007E0F8A3E0F9A3FF
:100BB400E0FAA3E0FB1202DC501E900007E0FCA365
:100BC400E0FDA3E0FEA3E0FF120355900007120628
:100BD400D4121A167F2D8005121A167F20121CBEFD
:100BE4007F007E407D1C7C46900007E0F8A3E0F97E
:100BF400A3E0FAA3E0FB1202DC40247F007E507DD8
:100C0400C37C47900007E0F8A3E0F9A3E0FAA3E06F
:100C1400FB1202DC5009900005E02406020CF9E402
:100C2400FFFE7D7A7C44900007E0F8A3E0F9A3E09E
:100C3400FAA3E0FB1202DC40247F007E407D1C7C92
:100C440046900007E0F8A3E0F9A3E0FAA3E0FB1262
:100C540002DC5009900005E02405020CF9E4FFFED3
:100C64007DC87C42900007E0F8A3E0F9A3E0FAA372
:100C7400E0FB1202DC4022E4FFFE7D7A7C4490001B
:100C840007E0F8A3E0F9A3E0FAA3E0FB1202DC50CA
:100C940008900005E02404805CE4FFFE7D207C4194
:100CA400900007E0F8A3E0F9A3E0FAA3E0FB120246
:100CB400DC4022E4FFFE7DC87C42900007E0F8A3FC
:100CC400E0F9A3E0FAA3E0FB1202DC50089000056F
:100CD400E024038020E4FFFE7D207C41900007E0B7
:100CE400F8A3E0F9A3E0FAA3E0FB1202DC5023909E
:100CF4000005E02402FF90000CA3A3E0FEA3E0FBA8
:100D0400AA0690000BE0900014F0900006E0FD129B
:020D14001602C5
:010D160022BA
:03003B000212614D
:10126100C0E0C0F0C083C082C0D075D000C000C053
:1012710001C002C003C004C005C006C007E5D830E4
:10128100E72290004DE0FCA3E0FDA3E0FEA3E024F3
:1012910001FFE43EFEE43DFDE43CFC90004D1206FE
:1012A100D453D87FE5D820E003021336121C3690C0
:1012B1000057EEF0A3EFF0E4FFFE7D01FC90004D3E
:1012C100E0F8A3E0F9A3E0FAA3E0FB120580A8048B
:1012D100A905AA06AB07900057E0FEA3E0FFE4FCD6
:1012E100FDEB2FFFEA3EFEED39FDEC38FCC006C0F8
:1012F10007900051E0FEA3E0FBAA06D007D006C389
:10130100EF9BFFEE9AFEED9400FDEC9400FCA3121E
:1013110006D490004D1206E000000000900057E056
:10132100FFA3E0900051CFF0A3EFF0900057E4F05D
:10133100A3F053D8FED007D006D005D004D003D0F7
:1013410002D001D000D0D0D082D083D0F0D0E03212
:100E5E009000001206E000000000E4900004F01282
:100E6E00140BE4FDFF121A1E7BFF7A1779EB121793
:100E7E00B67D01E4FF121A1E7BFF7A1779F6121760
:100E8E00B653FE7F900004E024FE601214601C2412
:100E9E0002702575BA8090FFF2E4F0E0802575BAF5
:100EAE008090FFF2E4F0E04403801875BA8090FF62
:100EBE00F2E4F0E04402800B75BA8090FFF2E4F0A9
:100ECE00E04401F0E4F5BA43FE807FE87E03121899
:100EDE001A900053E0FCA3E0FDA3E0FEA3E0FFE4C4
:100EEE00120366A804A905AA06AB077F007E807DC3
:100EFE003B7C4612023F9000001206D4900053E055
:100F0E00FCA3E0FDA3E0FEA3E0FF9000121206D4C6
:100F1E00E4FD7F0B120766900000E0FCA3E0FDA34A
:100F2E00E0FEA3E0FF9000071206D490000B7401C0
:100F3E00F0FD7F0B120AFC7FE87E0312181A900058
:100F4E0004E004F0E0D39403748094805003020E06
:060F5E008FE4F0020E8F8B
:10140B0075BA80800090FE027480F090FE02E0546A
:10141B000160F890FE017402F090FE00E4F0E0F041
:10142B00E054F7F0E4F5BA75BA8090FF04E0540786
:10143B00F0E04488F0A3E4F0F5BA75BA8090FFF2BF
:10144B00F0E04401F0E4F5BA75BA8090FFF174F462
:10145B00F090FFF07401F0E4F5BA75BA8090FF00DC
:10146B00F0A3F0F5BA75BA80A3F0A374C8F0E4F555
:10147B00BA43FE80F5E9F5F9F5D8F5D9F5DAF5DBE0
:10148B00F5DCF5DDF5EAF5EBF5ECF5EDF5FAF5FB4D
:10149B00F5FCF5FDF5F2F5F3F5F4F5F543D908F5A3
:1014AB00E9F5F975DA1043DA0143D90143A8804312
:0814BB00D84012156D021BDA86
:10003E00020410E86480F8E933E83360110460F0DC
:10004E00ED33EC337009E8FCE9FDEAFEEBFF220428
:10005E0060DED3EB9FEA9EE99DE8C2E78CF0C2F723
:10006E0095F0400CE8CCF8E9CDF9EACEFAEBCFFBEF
:10007E001203DB85D0F05804700320D5B3E804706A
:10008E00075002B2D502041A92D5EC0460F7E4CC04
:10009E00C0E0C398F8603B94186008400DD0E0FBB8
:1000AE000203F2E4FBFAC9FC8028E830E406E4C956
:1000BE00FBE4CAFCE830E305E4C9CACBFCE854070C
:1000CE006010F8C3E913F9EA13FAEB13FBEC13FC17
:1000DE00D8F130F52FC3E49CFCEF9BFFEE9AFEEDBA
:1000EE0099FDD0E0FBEF4E4D4C701222DB03020463
:1000FE0017EC2CFCEF33FFEE33FEED33FDED30E766
:10010E00EB0203F2EF2BFFEE3AFEED39FDD0E0FBF2
:10011E0050130BBB000302041AED13FDEE13FEEF9A
:08012E0013FFEC13FC0203F2C5
:10013600EC4D6011E8497017ED33EC3304600DE4C3
:10014600FCFFFEFD22E933E8330470F802041012C6
:1001560003DB58046009E4CC2481500628500902C8
:10016600041A284003020417C0E0EB4A7044B98021
:1001760006D0E0FB020406EF4E701CBD8008EBFFC4
:10018600EAFEE9FD80EBE98DF0A4FEE5F002021F30
:10019600E9CDF9EAFEEBFFEF89F0A4FCE5F0CE89A4
:1001A600F0A42EFFE435F0CD89F0A42DFEE435F061
:1001B6008067EF4E7005BD80D780C3EF8BF0A4AC8F
:1001C600F0EE8BF0A42CFCE435F0F8EF8AF0A42CCA
:1001D600E5F038FCE433CB8DF0A42CFCE5F03BF8DD
:1001E600EE8AF0A42CFCE5F038F8E433CF89F0A4CD
:1001F6002CFCE5F038CF3400CE89F0A42FFFE5F0D3
:100206003EFEE433C98DF0A42EFEE5F039CD8AF02A
:10021600A42FFFE5F03EFEE43DFD33D0E0FB5007A2
:100226000BBB000F02041AEC2CFCEF33FFEE33FE7F
:06023600ED33FD0203F2AE
:10023C0002041AEC5D046005E85904700302041012
:10024C001203DB580460F6EC4860F2EC7004FDFE1F
:10025C00FF22C860DB2481C85009C3986002500695
:10026C000204179850CAF582E9294B4A7005AB82F3
:10027C0002040675F0007C1A7880C3EF9BEE9AEDB1
:10028C0099400DC3EF9BFFEE9AFEED99FDE842F00D
:10029C00DC23ACF0D0E0FFD0E0FED0E0FDAB822060
:1002AC00E7101BEB60BAEC2CFCEF33FFEE33FEEDEA
:1002BC0033FD0203F2E803F830E705C0F075F000F7
:1002CC00EF2FFFEE33FEED33FD40B830E7C280AACE
:1002DC0074F8CC6480CCC86480C8F58204604FC3C9
:1002EC00EB9FF5F0EA9E42F0E99D42F0E89C45F068
:1002FC00603C501DE5825FFFE582D313CB5BCBF4F2
:10030C002B5582FB50280ABA002409B9002008801A
:10031C001DE5825BFBE582D313CF5FCFF4C3132FB4
:10032C005582FF50090EBE00050DBD00010CC3EB3C
:10033C009FF5F0EA9E42F0E99D42F0E89C45F060A2
:09034C0007CC4820E701B3EC22C4
:10035500ED33EC33600A047003BD8004ECB2E7FCB6
:010365002275
:1003660075F020800E75F010800575F0087D007E12
:10037600007F003392D530D50312069DEC33401032
:10038600EF33FFEE33FEED33FDEC33FCD5F0ED221B
:0E039600E5F0247EA2D513CC92E7CDCEFF2257
:1003A400EDD2E7CD33EC3392D524814006E4FFFE51
:1003B400FDFC22FCE4CFCECDCC24E0501174FF80B0
:1003C400EDC3CC13CCCD13CDCE13CECF13CF04704D
:0703D400F030D5DE02069DAA
:1003DB00E9D2E7C933E833F892D5EDD2E7CD33EC68
:0703EB0033FC5002B2D522E1
:1003F200EC30E7100FBF000C0EBE00080DBD00046C
:100402000BEB6014A2D5EB13FCED92E7FD2274FF17
:10041200FCFDFEFF22E480F8A2D574FF13FC7D8070
:03042200E480EF84
:1016A100020E5EE493A3F8E493A34003F68001F2F3
:1016B10008DFF48029E493A3F85407240CC8C3334A
:1016C100C4540F4420C8834004F456800146F6DF19
:1016D100E4800B0102040810204080901A93E47EFC
:1016E100019360BCA3FF543F30E509541FFEE4930E
:1016F100A360010ECF54C025E060A840B8E493A3D5
:10170100FAE493A3F8E493A3C8C582C8CAC583CAFF
:10171100F0A3C8C582C8CAC583CADFE9DEE780BEB7
:011AAB00003A
:10042500E709F608DFFA8046E709F208DFFA803EB9
:1004350088828C83E709F0A3DFFA8032E309F608A6
:10044500DFFA8078E309F208DFFA807088828C830E
:10045500E309F0A3DFFA806489828A83E0A3F608C2
:10046500DFFA805889828A83E0A3F208DFFA804C9C
:1004750080D280FA80C680D4806980F28033801073
:1004850080A680EA809A80A880DA80E280CA8033DC
:1004950089828A83ECFAE493A3C8C582C8CCC58354
:1004A500CCF0A3C8C582C8CCC583CCDFE9DEE78024
:1004B5000D89828A83E493A3F608DFF9ECFAA9F0A3
:1004C500EDFB2289828A83ECFAE0A3C8C582C8CCF9
:1004D500C583CCF0A3C8C582C8CCC583CCDFEADE12
:1004E500E880DB89828A83E493A3F208DFF980CC74
:1004F50088F0EF60010E4E60C388F0ED2402B4046D
:100505000050B9F582EB2402B4040050AF23234513
:06051500822390047573BF
:10051B00BB010689828A83E0225002E722BBFE02DE
:09052B00E32289828A83E4932211
:10053400C2D5EC30E709B2D5E4C39DFDE49CFCEEE2
:1005440030E715B2D5E4C39FFFE49EFE120711C342
:10055400E49DFDE49CFC800312071130D507C3E43D
:060564009FFFE49EFE2251
:10056A00A3F8E0C5F025F0F0E58215827002158344
:06057A00E0C838F0E822A1
:10058000E88FF0A4CC8BF0A42CFCE98EF0A42CFC1A
:100590008AF0EDA42CFCEA8EF0A4CDA8F08BF0A498
:1005A0002DCC3825F0FDE98FF0A42CCD35F0FCEBF7
:1005B0008EF0A4FEA9F0EB8FF0A4CFC5F02ECD39BC
:0F05C000FEE43CFCEAA42DCE35F0FDE43CFC2229
:1005CF0075F008758200EF2FFFEE33FECD33CDCCE3
:1005DF0033CCC58233C5829BED9AEC99E582984066
:1005EF000CF582EE9BFEED9AFDEC99FC0FD5F0D643
:1005FF00E4CEFBE4CDFAE4CCF9A88222B800C1B96D
:10060F000059BA002DEC8BF084CFCECDFCE5F0CBAA
:10061F00F97818EF2FFFEE33FEED33FDEC33FCEBE3
:10062F0033FB10D703994004EB99FB0FD8E5E4F99E
:10063F00FA227818EF2FFFEE33FEED33FDEC33FC8B
:10064F00C933C910D7059BE99A4007EC9BFCE99A7F
:10065F00F90FD8E0E4C9FAE4CCFB2275F010EF2FC4
:10066F00FFEE33FEED33FDCC33CCC833C810D707C4
:10067F009BEC9AE899400AED9BFDEC9AFCE899F8FF
:0E068F000FD5F0DAE4CDFBE4CCFAE4C8F92292
:10177200C2D5E830E70FB2D5E4C39BFBE49AFAE4A2
:1017820099F9E498F8EC30E717B2D51217A81206C7
:101792000BE4C39BFBE49AFAE499F9E498F880031A
:1017A20012060B30D50DE4C39FFFE49EFEE49DFDBF
:0417B200E49CFC2295
:0E069D00C3E49FFFE49EFEE49DFDE49CFC226E
:1006AB00EB9FF5F0EA9E42F0E99D42F0EC6480C8C6
:0606BB0064809845F02266
:1006C100E8600FECC313FCED13FDEE13FEEF13FF17
:0306D100D8F1223B
:0C06D400ECF0A3EDF0A3EEF0A3EFF02299
:1006E000A8828583F0D083D0821206F71206F71213
:1006F00006F71206F7E473E493A3C583C5F0C58338
:10070000C8C582C8F0A3C583C5F0C583C8C582C863
:0107100022C6
:10071100BC000BBE0029EF8DF084FFADF022E4CCCC
:10072100F875F008EF2FFFEE33FEEC33FCEE9DEC95
:10073100984005FCEE9DFE0FD5F0E9E4CEFD22EDDB
:10074100F8F5F0EE8420D21CFEADF075F008EF2F25
:10075100FFED33FD4007985006D5F0F222C398FD16
:050761000FD5F0EA22B3
:00000001FF
