:0300000002147F68
:0C147F00787FE4F6D8FD7581070214C6E2
:1016CC0052616E67652F636D3A0050756C73652FB0
:1016DC0075733A000006090906000000202020203E
:0D16EC0000202020202020002E2020202083
:091A8D004100690042006A0000FA
:1018DC00AD07AC06E412036B1203A4D3EF9400EE35
:0D18EC009400400800EF1F70F21E80EF22F4
:04169B007F0A7E0044
:10169F00900020EEF0A3EFF0D3900021E0940090A3
:1016AF000020E094004015A3E024FFF0900020E01C
:0D16BF0034FFF07FE87E031218DC80DC228F
:081A9700AF8CEFFEAD8AEDFFFC
:011A9F002224
:081AA000AF8DEFFEAD8BEDFFF1
:011AA800221B
:081AA900AFD6EFFEADD7EDFF53
:011AB1002212
:081AB200AFD4EFFEADD5EDFF4E
:011ABA002209
:081ABB00AFD2EFFEADD3EDFF49
:011AC3002200
:10000300E490006CF0A3F053BCF0EF42BC7F017EA0
:100013000012169F43BC40E5BC30E5FB53BCDFAF89
:10002300BDEFFFADBEED90006CCFF0A3EFF09000FD
:060033006CE0FEA3E0FFFB
:0100390022A4
:1017200075C78375C501EFF5C4EEF5C375C65A7567
:10173000C6A500ADC2E4F5C7F5C5F5C675C380F50D
:03174000C4AF052E
:011743002283
:1017440075C78375C502EFF5C4EEF5C3AF058FC247
:1017540075C65A75C6A500E4F5C7F5C5F5C675C3C3
:0417640080F5C42226
:10189E0075C78375C503EFF5C4EEF5C375C65A75E6
:1018AE00C6A500E4F5C7F5C5F5C675C380F5C42217
:081AC400AFF9EFFEADE9EDFF03
:011ACC0022F7
:081ACD00AFFAEFFEADEAEDFFF8
:011AD50022EE
:081AD600AFFBEFFEADEBEDFFED
:011ADE0022E5
:081ADF00AFFCEFFEADECEDFFE2
:011AE70022DC
:081AE800AFFDEFFEADEDEDFFD7
:011AF00022D3
:10190F00AD0753F2FDED548025E0FFEF42F2ED54A9
:04191F003FF5FA2274
:0E1A2F0053F2FEEF548042F2EF543FF5EA22EC
:10197300AD0753F2FDE425E0FFEF42F2ED547FF5AE
:02198300FA2246
:091AF10053F2FEEF547FF5EA22E6
:1019EF00AD0753F2FDE425E0FFEF42F2EDF5FA22E9
:071B150053F2FEEFF5EA2296
:10181A00AD07AC0653F2CDEC5403C4F854F0C8E457
:10182A00C4540F48FBEC5404C3134B42F2EDF5FACF
:01183A00228B
:10176800AD07AC0653F2F2EC5403FEE47806CEC3A0
:1017780013CE13D8F9FBEC54041313543F4B42F225
:04178800EDF5EA226F
:10192300AD0753F3FDED548025E0FFEF42F3ED5493
:041933003FF5FB225F
:0E1A3D0053F3FEEF548042F3EF543FF5EB22DB
:10198500AD0753F3FDE425E0FFEF42F3ED547FF59A
:02199500FB2233
:091AFA0053F3FEEF547FF5EB22DB
:1019FF00AD0753F3FDE425E0FFEF42F3EDF5FB22D6
:071B1C0053F3FEEFF5EB228D
:10183B00AD07AC0653F3CDEC5403C4F854F0C8E435
:10184B00C4540F48FBEC5404C3134B42F3EDF5FBAC
:01185B00226A
:10178C00AD07AC0653F3F2EC5403FEE47806CEC37B
:10179C0013CE13D8F9FBEC54041313543F4B42F300
:0417AC00EDF5EB224A
:10193700AD0753F4FDED548025E0FFEF42F4ED547D
:041947003FF5FC224A
:0E1A4B0053F4FEEF548042F4EF543FF5EC22CA
:10199700AD0753F4FDE425E0FFEF42F4ED547FF586
:0219A700FC2220
:091B030053F4FEEF547FF5EC22CF
:101A0F00AD0753F4FDE425E0FFEF42F4EDF5FC22C2
:071B230053F4FEEFF5EC2284
:10185C00AD07AC0653F4CDEC5403C4F854F0C8E413
:10186C00C4540F48FBEC5404C3134B42F4EDF5FC89
:01187C002249
:1017B000AD07AC0653F4F2EC5403FEE47806CEC356
:1017C00013CE13D8F9FBEC54041313543F4B42F4DB
:0417D000EDF5EC2225
:10194B00AD0753F5FDED548025E0FFEF42F5ED5467
:04195B003FF5FD2235
:0E1A590053F5FEEF548042F5EF543FF5ED22B9
:1019A900AD0753F5FDE425E0FFEF42F5ED547FF572
:0219B900FD220D
:091B0C0053F5FEEF547FF5ED22C4
:101A1F00AD0753F5FDE425E0FFEF42F5EDF5FD22AF
:071B2A0053F5FEEFF5ED227B
:10187D00AD07AC0653F5CDEC5403C4F854F0C8E4F1
:10188D00C4540F48FBEC5404C3134B42F5EDF5FD66
:01189D002228
:1017D400AD07AC0653F5F2EC5403FEE47806CEC331
:1017E40013CE13D8F9FBEC54041313543F4B42F5B6
:0417F400EDF5ED2200
:0418F90090FE81F0EC
:1018FD0075BA8090FE82E030E6F9E054BFF0E4F571
:02190D00BA22FC
:0C1A750075BA8074011218F9E4F5BA2269
:0C1A810075BA8074061218F9E4F5BA2258
:1018BE0075BA8090FE86EFF090FE817402F01218D9
:0E18CE00FD90FE817403F01218FDE4F5BA22BD
:1016F900E4FE75BA8090FE817404F01218FD90FE24
:1017090087E0FE90FE82EFF090FE817405F01218DA
:06171900FDE4F5BAAF0685
:01171F0022A7
:1019CD00E4FE8FCFE5CD30E7FBAECF75CD80AF0612
:0119DD0022E7
:061060009000221206D4EC
:1010660090002C1206E000000000759850E47F0402
:10107600FEFDFC900022E0F8A3E0F9A3E0FAA3E06D
:10108600FB120580A804A905AA06AB07900028E074
:10109600FCA3E0FDA3E0FEA3E0FF12060B90002CEC
:1010A6001206D4900027E06401701D90002CE0FC2D
:1010B600A3E0FDA3E0FEA3E0FFE47B0CFAF9F8123F
:1010C600060B90002C1206D490002CE0F8A3E0F951
:1010D600A3E0FAA3E0FBC3E49BFFE49AFE74019944
:1010E600FDE498FC90002C1206D4900026E07032A5
:1010F600A3E07008538EF3438E048003538EF3905F
:10110600002CA3A3A3E0FF8FD790002CE0FCA3E064
:10111600FDA3E0FEA3E0FF78081206C18FD6438E3A
:101126001022900027E0538EBF438E40538FFD530D
:10113600890F90002CA3A3A3E0FF8F8B90002CE0D7
:10114600FCA3E0FDA3E0FEA3E0FF78081206C18F32
:041156008D438840FD
:01115A002272
:031B36008F992262
:031B3900AF99223F
:09115B0090004EEDF0AB07AA066E
:101164009000531206E000000000759A10AE02EBE6
:101174007802C333CE33CED8F9FBAA06E4F9F8904B
:10118400004FE0FCA3E0FDA3E0FEA3E0FF12060B8A
:101194009000531206D490004EE06401701D90003C
:1011A40053E0FCA3E0FDA3E0FEA3E0FFE47B0CFA24
:1011B400F9F812060B9000531206D4900053E0F88D
:1011C400A3E0F9A3E0FAA3E0FBC3E49BFFE49AFEE7
:1011D400740199FDE498FC9000531206D490004EDB
:1011E400E07008538EF3438E048003538EF3900013
:1011F40053A3A3A3E0FF8FD7900053E0FCA3E0FD2B
:10120400A3E0FEA3E0FF78081206C18FD6438E1038
:0112140022B7
:031B3C008F9B225A
:031B3F00AF9B2237
:060E5E009000301206D4E2
:100E640090003A1206E000000000900034E04410C4
:100E7400F5ACE47F04FEFDFC900030E0F8A3E0F95B
:100E8400A3E0FAA3E0FB120580A804A905AA06AB17
:100E940007900036E0FCA3E0FDA3E0FEA3E0FF1210
:100EA400060B90003A1206D4900035E06401701DE0
:100EB40090003AE0FCA3E0FDA3E0FEA3E0FFE47BA6
:100EC4000CFAF9F812060B90003A1206D490003A84
:100ED400E0F8A3E0F9A3E0FAA3E0FBC3E49BFFE49A
:100EE4009AFE740199FDE498FC90003A1206D4909D
:100EF4000034E07032A3E07008538EF3438E048014
:100F040003538EF390003AA3A3A3E0FF8FD790007E
:100F14003AE0FCA3E0FDA3E0FEA3E0FF780812069C
:100F2400C18FD6438E1022900035E0700853D1F85B
:100F340043D102800353D1F890003AA3A3A3E0FF66
:100F44008FD590003AE0FCA3E0FDA3E0FEA3E0FF10
:0A0F540078081206C18FD443D108BB
:010F5E002270
:031B42008FAD2242
:031B4500AFAD221F
:060F5F0090003E1206D4D2
:100F65009000481206E000000000900042E04410A6
:100F7500F584E47F04FEFDFC90003EE0F8A3E0F973
:100F8500A3E0FAA3E0FB120580A804A905AA06AB15
:100F950007900044E0FCA3E0FDA3E0FEA3E0FF1200
:100FA500060B9000481206D4900043E06401701DC2
:100FB500900048E0FCA3E0FDA3E0FEA3E0FFE47B96
:100FC5000CFAF9F812060B9000481206D490004866
:100FD500E0F8A3E0F9A3E0FAA3E0FBC3E49BFFE498
:100FE5009AFE740199FDE498FC9000481206D4908D
:100FF5000042E07032A3E07008538EF3438E048004
:1010050003538EF3900048A3A3A3E0FF8FD790006E
:1010150048E0FCA3E0FDA3E0FEA3E0FF780812068C
:10102500C18FD6438E1022900043E0700853D18FB4
:1010350043D120800353D18F900048A3A3A3E0FFA1
:101045008FD3900048E0FCA3E0FDA3E0FEA3E0FF02
:0A10550078081206C18FD243D18043
:01105F00226E
:031B48008F852264
:031B4B00AF852241
:1013F20012169B53B1DF53B2DF53B1DF43B2205316
:10140200B1BF53B2BF53B1BF43B24053B17F53B226
:101412007F53B17F43B2805393EF5394EF5393EFD3
:101422004394105393DF5394DF5393DF4394205339
:1014320093BF5394BF5393BF43944053937F5394AA
:101442007F53937F43948053B0BF53B0DF12169BF8
:1014520012195FE4FD7F331219DEE4FD7F321219A7
:10146200DEE4FD7F281219DEE4FD7F0C1219DEE4B2
:0D147200FD7F011219DEE4FD7F060219DE88
:1019DE00ED600814700843B020800353B0DF02128C
:0119EE0015E3
:0512150090001FEFF046
:10121A00EF5480C413131354011470054380808063
:10122A000353807F90001FE0FF5440C413135403FC
:10123A0014700543804080035380BFEF5420C413C9
:10124A00540714700543802080035380DF90001FE9
:10125A00E05410FFC4540FFE14700543801080033D
:10126A005380EF12195F90001FE0FF540813131305
:10127A00541F147005438080800353807FEF540409
:10128A001313543F14700543804080035380BF906A
:10129A00001FE0FF5402C31314700543802080032B
:1012AA005380DFEF5401FE1470054380108003530E
:0512BA0080EF02195F46
:1016660090001CEBF0A3EAF0A3E9F090001CE0FB6D
:10167600A3E475F00112056AA9F0FA12051BFF7DB5
:10168600011219DE90001CE0FBA3E0FAA3E0F912B8
:05169600051B70D722C6
:051B31007D010219DE38
:0E1A6700E4FD7F011219DEE4FD7F020219DEAC
:0817F800900004E0FFA3E0FDF6
:1018000090001CEFF0ED7005E04480800690001C15
:0A181000E044C0FFE4FD1219DE22DF
:10195F0043B0807F027E0012169F53B07F7F027EBE
:04196F000002169FBD
:10158800E4900057F078587C007D017BFF7A16794B
:10159800E0FE7F081204F5E4FD7F401219DEE490B6
:1015A8000057F0900057E0FFC3940874809480506F
:1015B8001974582FF582E43400F583E0FF7D011299
:1015C80019DE900057E004F080D9E4FD7F8002190D
:0115D800DE34
:1019BB0090006EEBF012180090006EE0FF7D0102BC
:0219CB0019DE23
:0E0D1700900060EFF0A3EDF0A3EAF0A3EBF084
:100D250078647C007D017BFF7A1679E87E007F057B
:100D35001204F5900062E0FEA3E0FFC3EE64809428
:100D4500805013A3742DF0C3E49FFFE49E900062CE
:100D5500F0A3EFF080069000647420F0900062E04C
:100D6500FEA3E0FFD39463EE648094804057D3EFF5
:100D750094E7EE64809483504C900062E0FAA3E01F
:100D8500FB7C007D64120534EF2430900065F07C17
:100D9500007D64AF03AE021205347E007F0ACFCD1D
:100DA500CFCECCCE120534EF2430A3F0900062E014
:100DB500FEA3E0FF7C007D0A120534ED243090008F
:100DC50067F0020E4F900062E0FEA3E0FFD39409A6
:100DD500EE648094804044D3EF9463EE6480948005
:100DE5005039900062E0FAA3E0FB7C007D641205B7
:100DF500347E007F0ACFCDCFCECCCE120534EF2482
:100E050030900065F07C007D0AAF03AE0212053418
:100E1500ED2430A3F0A37420F0802F900062E0FE53
:100E2500A3E0FFC3EE64809480401FD3EF9409EEE6
:100E35006480948050147C007D0A120534ED2430C2
:100E4500900065F0A37420F0A3F09000601217FBEA
:090E55007B017A00796402166643
:0807660090000FEFF0A3EDF08D
:10076E0078157C007D017BFF7A1679ED7E007F0780
:10077E001204F5900011E0FCA3E0FDA3E0FEA3E05F
:10078E00FFEC335016A3742DF0900011A3A3A3E039
:10079E0012069D9000111206D4800690001574204A
:1007AE00F0E47F0F7E27FDFC900011E0F8A3E0F946
:1007BE00A3E0FAA3E0FBD31206AB500302089DE4BC
:1007CE007B107A27F9F8900011E0FCA3E0FDA3E07E
:1007DE00FEA3E0FF121622EF2430900016F0E47B09
:1007EE00107A27F9F8900011E0FCA3E0FDA3E0FEDB
:1007FE00A3E0FF121622AC00AD01AE02AF03E47B04
:10080E00E87A03F9F8121622EF2430900017F0E47C
:10081E007BE87A03F9F8900011E0FCA3E0FDA3E079
:10082E00FEA3E0FF121622AC00AD01AE02AF03E450
:10083E007B64FAF9F8121622EF2430900018F0E4D7
:10084E007B64FAF9F8900011E0FCA3E0FDA3E0FE52
:10085E00A3E0FF121622AC00AD01AE02AF03E47BA3
:10086E000AFAF9F8121622EF2430900019F0E47B00
:10087E000AFAF9F8900011E0FCA3E0FDA3E0FEA354
:10088E00E0FF121622EB243090001AF0020AEDE47B
:10089E007FE77E03FDFC900011E0F8A3E0F9A3E0F2
:1008AE00FAA3E0FBD31206AB5003020989E47F0FD3
:1008BE007E27FDFC900011E0F8A3A3A3E0D312065F
:1008CE00AB4003020989E47B107A27F9F8900011F6
:1008DE00E0FCA3E0FDA3E0FEA3E0FF121622AC00B5
:1008EE00AD01AE02AF03E47BE87A03F9F8121622EB
:1008FE00EF2430900016F0E47BE87A03F9F89000CC
:10090E0011E0FCA3E0FDA3E0FEA3E0FF121622AC73
:10091E0000AD01AE02AF03E47B64FAF9F8121622C1
:10092E00EF2430900017F0E47B64FAF9F890001190
:10093E00E0FCA3E0FDA3E0FEA3E0FF121622AC0054
:10094E00AD01AE02AF03E47B0AFAF9F8121622EFFC
:10095E002430900018F0E47B0AFAF9F8900011E0C8
:10096E00FCA3E0FDA3E0FEA3E0FF121622EB243071
:10097E00900019F0A37420F0020AEDE47F63FEFDEF
:10098E00FC900011E0F8A3E0F9A3E0FAA3E0FBD39A
:10099E001206AB5003020A42E47FE77E03FDFC9091
:1009AE000011E0F8A3A3A3E0D31206AB4003020AA2
:1009BE0042E47BE87A03F9F8900011E0FCA3E0FD35
:1009CE00A3E0FEA3E0FF121622AC00AD01AE02AF13
:1009DE0003E47B64FAF9F8121622EF243090001625
:1009EE00F0E47B64FAF9F8900011E0FCA3E0FDA3BB
:1009FE00E0FEA3E0FF121622AC00AD01AE02AF0383
:100A0E00E47B0AFAF9F8121622EF2430900017F060
:100A1E00E47B0AFAF9F8900011E0FCA3E0FDA3E0F4
:100A2E00FEA3E0FF121622EB2430900018F0A37400
:100A3E0020020AEAE47F09FEFDFC900011E0F8A313
:100A4E00E0F9A3E0FAA3E0FBD31206AB4069E47F22
:100A5E0063FEFDFC900011E0F8A3A3A3E0D3120601
:100A6E00AB5054E47B64FAF9F8900011E0FCA3E07B
:100A7E00FDA3E0FEA3E0FF121622AC00AD01AE0214
:100A8E00AF03E47B0AFAF9F8121622EF2430900035
:100A9E0016F0E47B0AFAF9F8900011E0FCA3E0FDF1
:100AAE00A3E0FEA3E0FF121622EB2430900017F015
:100ABE00A37420F0A38025E47B0AFAF9F8900011C4
:100ACE00E0FCA3E0FDA3E0FEA3E0FF121622EB2460
:100ADE0030900016F0A37420F0A3F0A3F0A3F090D2
:0E0AEE00000F1217FB7B017A007915021666C5
:0E135F0090000FEFF0A3EDF0A3EAF0A3EBF087
:10136D0078147C007D017BFF7A1679F47E007F0571
:10137D001204F5900011E0FEA3E0FF7C007D6412E5
:10138D000534EF2430900015F0900013E0FB7A0047
:10139D00D3940174809480403D900011E0FEA3E051
:1013AD00FF7C007D0A1205347C007D0A120534EDA8
:1013BD002430900016F0D3EB940174809480401685
:1013CD00900011E0FEA3E0FF7C007D0A120534EDD4
:1013DD002430900017F090000F1217FB7B017A005C
:0513ED007914021666F0
:080AFC00900004EFF0A3EDF0FF
:100B040090000B1206E000000000900006E0FCA339
:100B1400E0FDA3E0FEA3E0FF1203A490000B120685
:100B2400D490000BE0FCA3E0FDA3E0FEA3E0FF9063
:100B340000111206D4900005E0FD900004E0FF12BD
:100B4400076690000BE0FCA3E0FDA3E0FEA3E0FF3A
:100B5400EC120366A804A905AA06AB07900006E0F8
:100B6400FCA3E0FDA3E0FEA3E0FF120041E4FBFAD6
:100B7400797A78441201361203A490000B1206D439
:100B840090000BE0FCA3E0FDA3E0FEA3E0FFEC3348
:100B9400501090000BA3A3A3E012069D90000B122B
:100BA40006D4E4FFFEFDFC900006E0F8A3E0F9A300
:100BB400E0FAA3E0FB1202DC501E900006E0FCA366
:100BC400E0FDA3E0FEA3E0FF120355900006120629
:100BD400D41217F87F2D80051217F87F20121B31CD
:100BE4007F007E407D1C7C46900006E0F8A3E0F97F
:100BF400A3E0FAA3E0FB1202DC40247F007E507DD8
:100C0400C37C47900006E0F8A3E0F9A3E0FAA3E070
:100C1400FB1202DC5009900004E02406020CF9E403
:100C2400FFFE7D7A7C44900006E0F8A3E0F9A3E09F
:100C3400FAA3E0FB1202DC40247F007E407D1C7C92
:100C440046900006E0F8A3E0F9A3E0FAA3E0FB1263
:100C540002DC5009900004E02405020CF9E4FFFED4
:100C64007DC87C42900006E0F8A3E0F9A3E0FAA373
:100C7400E0FB1202DC4022E4FFFE7D7A7C4490001B
:100C840006E0F8A3E0F9A3E0FAA3E0FB1202DC50CB
:100C940008900004E02404805CE4FFFE7D207C4195
:100CA400900006E0F8A3E0F9A3E0FAA3E0FB120247
:100CB400DC4022E4FFFE7DC87C42900006E0F8A3FD
:100CC400E0F9A3E0FAA3E0FB1202DC500890000470
:100CD400E024038020E4FFFE7D207C41900006E0B8
:100CE400F8A3E0F9A3E0FAA3E0FB1202DC5023909E
:100CF4000004E02402FF90000BA3A3E0FEA3E0FBAA
:100D0400AA0690000AE0900013F0900005E0FD129E
:020D1400135F6B
:010D160022BA
:03003B000215D9D2
:1015D900C0E0C083C082C0D075D000C005C006C0BD
:1015E90007E5D830E00A900069E06401F053D8FEBD
:1015F900900069E014700875E90075F900800B1214
:101609001ACD90006AEEF0A3EFF0D007D006D0050E
:09161900D0D0D082D083D0E032A1
:1012BF009000001206E00000000012150BE4FDFF85
:1012CF001218007BFF7A1679CC1216667D01E4FFA7
:1012DF001218007BFF7A1679D612166653C8DF12E2
:1012EF00169B4390407F0A7E001218DC5390BF4339
:1012FF00C82090006AE0FCA3E0FDE412036BE4FB5E
:10130F00FA7968784212023F9000001206D49000DA
:10131F0000E0FCA3E0FDA3E0FEA3E0FF90000612B7
:10132F0006D490000A7401F0E4FD7F0A120AFC90C3
:10133F00006AE0FEA3E0FFE4FCFD9000111206D46A
:10134F007D017F0A1207667FEA7E0112169F808C4D
:10150B0075BA80800090FE027480F090FE02E05469
:10151B000160F890FE017402F090FE00E4F0E0F040
:10152B00E054F7F0E4F5BA5391BF5392BF5391BF18
:10153B0043924053C9DF53CADF43C92043CA20F546
:10154B00E9F5F9F5D8F5D9F5DAF5DBF5DCF5DDF5E7
:10155B00EAF5EBF5ECF5EDF5FAF5FBF5FCF5FDF53C
:10156B00F2F5F3F5F4F5F5F5E9F5F975DA3043DA5B
:0D157B000143A88043D8401213F2021A6702
:10003E00020410E86480F8E933E83360110460F0DC
:10004E00ED33EC337009E8FCE9FDEAFEEBFF220428
:10005E0060DED3EB9FEA9EE99DE8C2E78CF0C2F723
:10006E0095F0400CE8CCF8E9CDF9EACEFAEBCFFBEF
:10007E001203DB85D0F05804700320D5B3E804706A
:10008E00075002B2D502041A92D5EC0460F7E4CC04
:10009E00C0E0C398F8603B94186008400DD0E0FBB8
:1000AE000203F2E4FBFAC9FC8028E830E406E4C956
:1000BE00FBE4CAFCE830E305E4C9CACBFCE854070C
:1000CE006010F8C3E913F9EA13FAEB13FBEC13FC17
:1000DE00D8F130F52FC3E49CFCEF9BFFEE9AFEEDBA
:1000EE0099FDD0E0FBEF4E4D4C701222DB03020463
:1000FE0017EC2CFCEF33FFEE33FEED33FDED30E766
:10010E00EB0203F2EF2BFFEE3AFEED39FDD0E0FBF2
:10011E0050130BBB000302041AED13FDEE13FEEF9A
:08012E0013FFEC13FC0203F2C5
:10013600EC4D6011E8497017ED33EC3304600DE4C3
:10014600FCFFFEFD22E933E8330470F802041012C6
:1001560003DB58046009E4CC2481500628500902C8
:10016600041A284003020417C0E0EB4A7044B98021
:1001760006D0E0FB020406EF4E701CBD8008EBFFC4
:10018600EAFEE9FD80EBE98DF0A4FEE5F002021F30
:10019600E9CDF9EAFEEBFFEF89F0A4FCE5F0CE89A4
:1001A600F0A42EFFE435F0CD89F0A42DFEE435F061
:1001B6008067EF4E7005BD80D780C3EF8BF0A4AC8F
:1001C600F0EE8BF0A42CFCE435F0F8EF8AF0A42CCA
:1001D600E5F038FCE433CB8DF0A42CFCE5F03BF8DD
:1001E600EE8AF0A42CFCE5F038F8E433CF89F0A4CD
:1001F6002CFCE5F038CF3400CE89F0A42FFFE5F0D3
:100206003EFEE433C98DF0A42EFEE5F039CD8AF02A
:10021600A42FFFE5F03EFEE43DFD33D0E0FB5007A2
:100226000BBB000F02041AEC2CFCEF33FFEE33FE7F
:06023600ED33FD0203F2AE
:10023C0002041AEC5D046005E85904700302041012
:10024C001203DB580460F6EC4860F2EC7004FDFE1F
:10025C00FF22C860DB2481C85009C3986002500695
:10026C000204179850CAF582E9294B4A7005AB82F3
:10027C0002040675F0007C1A7880C3EF9BEE9AEDB1
:10028C0099400DC3EF9BFFEE9AFEED99FDE842F00D
:10029C00DC23ACF0D0E0FFD0E0FED0E0FDAB822060
:1002AC00E7101BEB60BAEC2CFCEF33FFEE33FEEDEA
:1002BC0033FD0203F2E803F830E705C0F075F000F7
:1002CC00EF2FFFEE33FEED33FD40B830E7C280AACE
:1002DC0074F8CC6480CCC86480C8F58204604FC3C9
:1002EC00EB9FF5F0EA9E42F0E99D42F0E89C45F068
:1002FC00603C501DE5825FFFE582D313CB5BCBF4F2
:10030C002B5582FB50280ABA002409B9002008801A
:10031C001DE5825BFBE582D313CF5FCFF4C3132FB4
:10032C005582FF50090EBE00050DBD00010CC3EB3C
:10033C009FF5F0EA9E42F0E99D42F0E89C45F060A2
:09034C0007CC4820E701B3EC22C4
:10035500ED33EC33600A047003BD8004ECB2E7FCB6
:010365002275
:1003660075F020800E75F010800575F0087D007E12
:10037600007F003392D530D50312069DEC33401032
:10038600EF33FFEE33FEED33FDEC33FCD5F0ED221B
:0E039600E5F0247EA2D513CC92E7CDCEFF2257
:1003A400EDD2E7CD33EC3392D524814006E4FFFE51
:1003B400FDFC22FCE4CFCECDCC24E0501174FF80B0
:1003C400EDC3CC13CCCD13CDCE13CECF13CF04704D
:0703D400F030D5DE02069DAA
:1003DB00E9D2E7C933E833F892D5EDD2E7CD33EC68
:0703EB0033FC5002B2D522E1
:1003F200EC30E7100FBF000C0EBE00080DBD00046C
:100402000BEB6014A2D5EB13FCED92E7FD2274FF17
:10041200FCFDFEFF22E480F8A2D574FF13FC7D8070
:03042200E480EF84
:10148B000212BFE493A3F8E493A34003F68001F2A6
:10149B0008DFF48029E493A3F85407240CC8C33362
:1014AB00C4540F4420C8834004F456800146F6DF31
:1014BB00E4800B0102040810204080901A8DE47E1A
:1014CB00019360BCA3FF543F30E509541FFEE49326
:1014DB00A360010ECF54C025E060A840B8E493A3ED
:1014EB00FAE493A3F8E493A3C8C582C8CAC583CA18
:1014FB00F0A3C8C582C8CAC583CADFE9DEE780BED0
:011A9600004F
:10042500E709F608DFFA8046E709F208DFFA803EB9
:1004350088828C83E709F0A3DFFA8032E309F608A6
:10044500DFFA8078E309F208DFFA807088828C830E
:10045500E309F0A3DFFA806489828A83E0A3F608C2
:10046500DFFA805889828A83E0A3F208DFFA804C9C
:1004750080D280FA80C680D4806980F28033801073
:1004850080A680EA809A80A880DA80E280CA8033DC
:1004950089828A83ECFAE493A3C8C582C8CCC58354
:1004A500CCF0A3C8C582C8CCC583CCDFE9DEE78024
:1004B5000D89828A83E493A3F608DFF9ECFAA9F0A3
:1004C500EDFB2289828A83ECFAE0A3C8C582C8CCF9
:1004D500C583CCF0A3C8C582C8CCC583CCDFEADE12
:1004E500E880DB89828A83E493A3F208DFF980CC74
:1004F50088F0EF60010E4E60C388F0ED2402B4046D
:100505000050B9F582EB2402B4040050AF23234513
:06051500822390047573BF
:10051B00BB010689828A83E0225002E722BBFE02DE
:09052B00E32289828A83E4932211
:10053400C2D5EC30E709B2D5E4C39DFDE49CFCEEE2
:1005440030E715B2D5E4C39FFFE49EFE120711C342
:10055400E49DFDE49CFC800312071130D507C3E43D
:060564009FFFE49EFE2251
:10056A00A3F8E0C5F025F0F0E58215827002158344
:06057A00E0C838F0E822A1
:10058000E88FF0A4CC8BF0A42CFCE98EF0A42CFC1A
:100590008AF0EDA42CFCEA8EF0A4CDA8F08BF0A498
:1005A0002DCC3825F0FDE98FF0A42CCD35F0FCEBF7
:1005B0008EF0A4FEA9F0EB8FF0A4CFC5F02ECD39BC
:0F05C000FEE43CFCEAA42DCE35F0FDE43CFC2229
:1005CF0075F008758200EF2FFFEE33FECD33CDCCE3
:1005DF0033CCC58233C5829BED9AEC99E582984066
:1005EF000CF582EE9BFEED9AFDEC99FC0FD5F0D643
:1005FF00E4CEFBE4CDFAE4CCF9A88222B800C1B96D
:10060F000059BA002DEC8BF084CFCECDFCE5F0CBAA
:10061F00F97818EF2FFFEE33FEED33FDEC33FCEBE3
:10062F0033FB10D703994004EB99FB0FD8E5E4F99E
:10063F00FA227818EF2FFFEE33FEED33FDEC33FC8B
:10064F00C933C910D7059BE99A4007EC9BFCE99A7F
:10065F00F90FD8E0E4C9FAE4CCFB2275F010EF2FC4
:10066F00FFEE33FEED33FDCC33CCC833C810D707C4
:10067F009BEC9AE899400AED9BFDEC9AFCE899F8FF
:0E068F000FD5F0DAE4CDFBE4CCFAE4C8F92292
:10162200C2D5E830E70FB2D5E4C39BFBE49AFAE4F3
:1016320099F9E498F8EC30E717B2D5121658120669
:101642000BE4C39BFBE49AFAE499F9E498F880036B
:1016520012060B30D50DE4C39FFFE49EFEE49DFD10
:04166200E49CFC22E6
:0E069D00C3E49FFFE49EFEE49DFDE49CFC226E
:1006AB00EB9FF5F0EA9E42F0E99D42F0EC6480C8C6
:0606BB0064809845F02266
:1006C100E8600FECC313FCED13FDEE13FEEF13FF17
:0306D100D8F1223B
:0C06D400ECF0A3EDF0A3EEF0A3EFF02299
:1006E000A8828583F0D083D0821206F71206F71213
:1006F00006F71206F7E473E493A3C583C5F0C58338
:10070000C8C582C8F0A3C583C5F0C583C8C582C863
:0107100022C6
:10071100BC000BBE0029EF8DF084FFADF022E4CCCC
:10072100F875F008EF2FFFEE33FEEC33FCEE9DEC95
:10073100984005FCEE9DFE0FD5F0E9E4CEFD22EDDB
:10074100F8F5F0EE8420D21CFEADF075F008EF2F25
:10075100FFED33FD4007985006D5F0F222C398FD16
:050761000FD5F0EA22B3
:00000001FF
